:100000000C9419020C9436020C9436020C943602AD
:100010000C9436020C9436020C9436020C94360280
:100020000C9436020C9436020C9417180C94531747
:100030000C949F0F0C9436020C9436020C943602EA
:100040000C9436020C9436020C9436020C94360250
:100050000C9436020C946D0F0C9436020C943602FC
:100060000C9436020C9436020C9436020C94360230
:100070000C9436020C9436020C9436020C94360220
:100080000C9436020C9436020C9436020C94360210
:100090000C9436020C9436020C9436020C94360200
:1000A0000C9436020C9436020C943602BF05BF0540
:1000B000FD05FD0546065108F8075108660652077A
:1000C0006407640719091C091F0922092509280961
:1000D0002B098E0C930C9D0C910C960C9B0C990C7F
:1000E00064158B152B178B152B17D315F6152B179E
:1000F000F4160717CD1BCD1BE01BE01BD61BE01B26
:10010000E01BE01BCD1BCD1BDB1BE01BE01BDB1B47
:1001100035002B00E000E200290000001E00140062
:1001200004001D004A0006011F001A0016001B00F3
:100130004D00E10020000800070006004C002C00E4
:1001400021001500090019002A00190122001700DA
:100150000A000500000002582C0800070000E30117
:100160000000015339002F00000030000000AA00F9
:1001700023001C000B0011000000A900240018003F
:100180000D0010005000460025000C000E00360047
:1001900051002800260012000F0037005200E50031
:1001A00027001300330038004F00490031003400AD
:1001B0002D002E00E30000000100010001000100FD
:1001C0000100000001000100010001000100010028
:1001D0000100010001000100010001000100010017
:1001E0000100010001000100010001000100010007
:1001F00001000100010001000100010000000100F8
:10020000010001000000E201000001000100010006
:1002100000000100000001000100010001000100D8
:1002200000000100010001000100010001000100C7
:1002300001000100010001000100010001000100B6
:1002400001000100010001000100010001000100A6
:10025000010001000100010001000100E3000000B5
:100260004400010001000100010000003A0001000B
:1002700001000100010001003B000100010001003C
:10028000005C01003C0001000100010001000100D0
:100290003D00010001000100010001003E000100DD
:1002A0000100010000000100010001000000010048
:1002B0000000010001000100000001000000010039
:1002C0003F000100010001000000010040000100AA
:1002D00001000100010001004100010001000100D6
:1002E00001000100420001000100010001000100C5
:1002F0004300010001000100010001004500010070
:10030000010001000100000005010980A101850331
:100310001A81002A8300160100260300950175103A
:100320008100C0050C0901A10185041A01002A9C65
:1003300002160100269C02950175108100C005017E
:100340000906A1018505050719E029E71500250122
:100350009508750181020507190029EF150025018F
:1003600095F07501810205081901290595057501AA
:100370009102950175039101C005010906A10105CE
:100380000719E029E71500250195087501810295F7
:1003900001750881010507190029FF150026FF00D6
:1003A000950675088100050819012905950575014F
:1003B0009102950175039101C009023B0002010001
:1003C000A0FA090400000103010100092111010044
:1003D000012240000705810308000A090401000109
:1003E00003000000092111010001227100070582AC
:1003F0000320000A1201100100000008EDFE07139F
:10040000010001020301040330000000160345004F
:10041000720067006F0064006F00780020004500E4
:100420005A00000008035A00530041000000040372
:10043000090411241FBECFEFDAE0DEBFCDBF12E00A
:10044000A0E0B1E0E6EDFEE302C005900D92AE3112
:10045000B107D9F723E0AEE1B2E001C01D92A934A3
:10046000B207E1F70E941C1A0C94691F0C9400005B
:100470008F929F92AF92BF92CF92DF92EF92FF92B4
:100480000F931F93CF93DF93CDB7DEB728970FB6A7
:10049000F894DEBF0FBECDBFFC01F08011818381D7
:1004A0009481892B09F431C61F3F21F40FEFF01618
:1004B00009F42BC66F0185E0DE01119601900D92C3
:1004C0008A95E1F7F601228189819A81222349F0F8
:1004D0000E94FC10082F682F89819A810E94751153
:1004E00003C00E944811082F26E0129FF00111243A
:1004F00034E5039FE00DF11D1124EF0DF11DEE0F0A
:10050000FF1FE05FFE4F0591149109308DE518073C
:1005100009F040C0F60182818823E1F19091100337
:1005200081E0890F8770987F853020F4892B809334
:10053000100302C090931003809110038770FFEFA7
:100540008F9FC0011124959587959595879599273B
:10055000909389008093880090938B0080938A0009
:1005600090938D0080938C00409110035091110363
:1005700060911203709113038FE090E00E94001EBF
:100580006091CA027091CB028091CC029091CD0211
:100590000E942F0CF6018281882319F1033EFCE5AD
:1005A0001F07C1F050F4013E3CE5130781F0023E05
:1005B0008CE51807B1F481E010C0043E9CE51907F2
:1005C00059F0053EECE51E0761F484E006C0109288
:1005D0000C0305C082E001C083E080930C030E94FD
:1005E0008A0A17FF71C0F6018281882309F46CC062
:1005F0008091D10280931E021092D10280910C034F
:10060000813071F048F08230C1F08430E1F486EE40
:100610000E94111D88E115C082EE0E948D1C13C03E
:1006200083E00E94121C88E10E948D1C88E10E94D8
:10063000311C83E00E94071C06C082EE0E948D1CC4
:1006400087E50E94111D8FE39CE90197F1F700C037
:1006500000007801E894F7F85CE0A52EB12CC70102
:100660000A2C02C0969587950A94E2F7282F2F70DE
:1006700041F0822F90E02A3010F44D9604C0069786
:1006800002C087E290E00E94111D94E0A91AB1080F
:10069000ECEFAE16EFEFBE0611F780910C03813040
:1006A00039F040F0823031F0843051F488E206C0F5
:1006B0008CE204C082EE0E94311C02C00E94111D17
:1006C00080911E028093D102033FFCE51F07B1F128
:1006D00080F4083D3CE51307C9F0093D8CE5180797
:1006E000C9F1073D9CE51907C1F526E241EE61EE2F
:1006F00010C0053FECE51E0749F120F1063F2CE54F
:10070000120759F527E245EE66EE03C027E245EEF3
:1007100065EEC60128960FB6F894DEBF0FBECDBFBA
:10072000DF91CF911F910F91FF90EF90DF90CF90CD
:10073000BF90AF909F908F900C94A30D26E241EE56
:1007400060EEE7CF27E245EE64EEE3CF26E241EE2E
:1007500062EEDFCF28E241E0DBCFF6018281882321
:1007600009F44AC110921F020230FCE51F0708F489
:100770002DC106312CE5120738F098012A5F3C455F
:100780002730310508F022C10E942B1090932303DB
:10079000809322030F303CE5130709F4CFC008F023
:1007A00042C008309CE5190709F4A8C0F0F40430F1
:1007B000FCE51F0709F490C068F402303CE513071C
:1007C00009F486C003301C4509F0DFC08091220384
:1007D0008260D9C006309CE5190709F487C008F08B
:1007E00089C0809122038860CEC00B30FCE51F07D2
:1007F00009F495C068F409303CE5130709F482C098
:100800000A301C4509F0C1C080912203886080C075
:100810000D309CE5190709F486C008F087C0809167
:1008200022038D7FB0C00A3FFCE51F0709F457C0C3
:1008300050F502313CE5130709F488C068F4003133
:100840009CE5190709F47EC001311C4509F09DC0E3
:10085000809122038F7B97C00431FCE51F0709F4C8
:1008600087C008F479C005311C4509F08EC080911D
:10087000220382FB222720F991E0922790FB82F944
:1008800090FB83F980C00D3F8CE5180709F452C036
:1008900058F40B3FECE51E0729F10C3F1C4509F00D
:1008A00074C08091230360C00F3F2CE5120709F448
:1008B00058C080F101151D4509F067C080912303E0
:1008C000982F909591708E7F892B90FB81F94DC068
:1008D00080912203816057C08091220319C08091CA
:1008E00023031BC08091230382603FC080912203B9
:1008F000806149C080912203806245C080912203BB
:10090000806441C00E94F21B8091220380683BC03A
:10091000846039C0809123038260816026C0809109
:1009200022038E7F30C08091220319C08091220360
:10093000877F29C0809123038D7F17C08091220378
:100940008F7E21C0809122038F7D1DC00E94F21BEB
:10095000809122038F7717C080912203877F8B7F3E
:1009600012C0809123038D7F8E7F809323030DC05F
:100970000E94F21B8091220387FB222720F991E03D
:10098000922790FB87F980932203609122031091B4
:10099000230384E090E00E94EE1D612F81E290E04D
:1009A0000E94EE1D28960FB6F894DEBF0FBECDBF95
:1009B000DF91CF911F910F91FF90EF90DF90CF903B
:1009C000BF90AF909F908F900C94F21B0631FCE586
:1009D0001F0799F59091D1029A7A81E009F480E09D
:1009E00080932002811102C069E201C065E389E3BE
:1009F00092E00E94F30F0DC006311C4509F076C04D
:100A00008091200281117FC369E289E392E00E9414
:100A1000C80F28960FB6F894DEBF0FBECDBFDF918A
:100A2000CF911F910F91FF90EF90DF90CF90BF90EB
:100A3000AF909F908F900C94B61001159CE519070C
:100A4000C1F00E3D1C4509F051C028960FB6F89430
:100A5000DEBF0FBECDBFDF91CF911F910F91FF90F1
:100A6000EF90DF90CF90BF90AF909F908F900C94BD
:100A70003C100E94F21BFFEF04E31CE0F150004029
:100A80001040E1F700C00000F89481E08093E0009E
:100A900080E28093D8001092C9008FE19EE4019714
:100AA000F1F700C000001DBA109268001CBC10BE17
:100AB0001FBA10927A0010926E0010926F0010927E
:100AC0007100109272001092C9001092BC0014B80C
:100AD00017B81AB81DB810BA1092BC0015B818B8DB
:100AE0001BB81EB811BA0C94003F0FC3F601008169
:100AF0001181882349F0C8010E94FC10F82E682F4C
:100B0000C8010E94751104C0C8010E944811F82E46
:100B1000B8018F2D0E94900A182F382FF6012581D9
:100B200022952F70028101111092D0028091CE0285
:100B30008770A9F0002399F080E2810F883078F067
:100B400082E02F8338879E830E94D6118091CE0247
:100B50008770EE24E3942F8138859E818111E12CEA
:100B6000A92EA2944FE0A422B12CFCE0AF16B10450
:100B700008F097C2F501EA5AFF4F0C94361E892FF0
:100B8000807F9F70F92E882319F0F29480EFF8226D
:100B90000023B9F0FF2009F415C280E2810F8830EC
:100BA00010F0311106C09091D102F92AF092D102D1
:100BB00005C09091D002F92AF092D0020E94B6109E
:100BC00001C2812F38870E94311C3885FF2009F42B
:100BD00068C2105EF094183010F0311106C0909188
:100BE000D102F922F092D10205C09091D002F922EF
:100BF000F092D0020E94B61054C2492F407F892F34
:100C00008F70403211F08295807F332319F031309C
:100C1000E9F025C0002381F03091D202222351F067
:100C2000213041F4982F932B391709F43AC290934D
:100C3000D20237C2832B17C0222319F0213009F4C6
:100C400030C28E830E94B0108E811DC0002321F01F
:100C5000223008F026C207C0211123C214C000238D
:100C600029F02111AFC10E94271C1BC2222359F079
:100C7000193309F0B9C10FEF27EE33E001502040DE
:100C80003040E1F7AFC10E941C1C0BC2292F2695F2
:100C90002695237030E02115310521F021303105F2
:100CA00059F0FFC1002319F0812F937002C080E03A
:100CB00090E00E94680AFEC1002319F0812F937012
:100CC00002C080E090E00E94520AF4C1892F837034
:100CD00009F070C00111ECC1812F82958695877053
:100CE000880F880F412F4F7050E060E070E04A019C
:100CF0005B01082E04C0880C991CAA1CBB1C0A941A
:100D0000D2F714FF12C00FE010E020E030E004C082
:100D1000000F111F221F331F8A95D2F7B901A801B6
:100D2000409550956095709503C040E050E0BA0141
:100D3000969596959370892F90E08230910529F1D0
:100D400083309105C9F00091D3021091D402209113
:100D5000D5023091D602019759F0482959296A29BC
:100D60007B29CB01BA0160237123822393230AC01C
:100D7000802A912AA22AB32ACB01BA0168297929AB
:100D80008A299B290E94101293C1482959296A294E
:100D90007B298091D3029091D402A091D502B09189
:100DA000D6028A019B01082719272A273B27C90158
:100DB000B801E8CF002319F0892F817001C0869512
:100DC000882309F475C1812F829586958770880FD5
:100DD000880F412F4F7050E060E070E04A015B01E6
:100DE000082E04C0880C991CAA1CBB1C0A94D2F7BC
:100DF00014FF12C00FE010E020E030E004C0000F4C
:100E0000111F221F331F8A95D2F7B901A8014095FF
:100E100050956095709503C040E050E0BA019695FA
:100E200096959370892F90E082309105E9F0833098
:100E3000910579F10091CA021091CB022091CC0268
:100E40003091CD02019759F0482959296A297B2907
:100E5000CB01BA01602371238223932320C0802A0F
:100E6000912AA22AB32A15C0482959296A297B291F
:100E70008091CA029091CB02A091CC02B091CD0298
:100E80008A019B01082719272A273B27C901B80196
:100E900006C0CB01BA01682979298A299B290E94B9
:100EA000A51106C19F70F92E002339F0892F0E94E9
:100EB000EF11812F0E94271CFBC0812F0E941C1C58
:100EC0008F2D0E94B111F4C0812F323FC9F128F457
:100ED000303F49F0313F79F170C0333FC1F1343FC9
:100EE00009F44DC06AC0002311F12111DAC0292F85
:100EF0002F7181E090E0A0E0B0E0AC01BD0104C042
:100F0000440F551F661F771F2A95D2F78091CA029A
:100F10009091CB02A091CC02B091CD028A019B01AD
:100F2000082719272A273B27C901B80125C02230E5
:100F300008F0B7C0DCCF002329F0892F8F712EC0B5
:100F40000023D9F3892F8F710E94B111AAC0002309
:100F500081F0292F2F7181E090E0A0E0B0E0BC018A
:100F6000CD0104C0660F771F881F991F2A95D2F7FD
:100F700003C060E070E0CB010E94A51192C0002385
:100F800081F0192F1F71812F0E94EF1128E0129F0D
:100F9000C001112483608093CE02812F0E94EF1143
:100FA00080C081E02F830E94D6112F81223008F467
:100FB00078C082E00E94D61174C0002339F0222349
:100FC00009F4BBCF812F0E948D1C6BC0222309F432
:100FD000B9CF893349F43FEF87EE93E03150804039
:100FE0009040E1F700C00000812F0E94311C59C0E1
:100FF000323FB1F028F4303F49F0313FF9F028C0DA
:10100000343FB9F058F0353F71F022C0002309F4A5
:1010100051C090915A0281E0892708C081E00827D9
:1010200000935A0247C0011145C081E080935A02E3
:1010300041C001113FC010925A023CC0002329F068
:1010400080915902882329F329C0222311F332C049
:10105000809159022223C1F0882341F090915A02D5
:1010600081E0892780935A0210925902812F002330
:1010700019F00E948D1C1EC00E94311C86E0F601F2
:1010800011928A95E9F716C08823A1F0011112C0C8
:1010900090915A0281E0892780935A021092590256
:1010A00009C0F8E0AF1AB10804E0A016B10410F4CA
:1010B0000E947E0AEE2049F18091CE0280FD25C07B
:1010C000F60112828595859585950E94EF11C601DE
:1010D0000E9438028091CE02859585958595289647
:1010E0000FB6F894DEBF0FBECDBFDF91CF911F9139
:1010F0000F91FF90EF90DF90CF90BF90AF909F90B7
:101100008F900C94B11165E380CC28960FB6F894BB
:10111000DEBF0FBECDBFDF91CF911F910F91FF902A
:10112000EF90DF90CF90BF90AF909F908F900895F9
:101130009091220392FF0DC0282F2871283019F4B6
:10114000877F846006C0282F2471243011F48B7FA0
:10115000886093FF0DC0282F2871283119F4877EED
:10116000846106C0282F2471243111F48B7E88619C
:101170002091230320FF0DC0382F3871383019F427
:10118000877F816006C0382F3171313011F48E7F36
:10119000886021FF0DC0282F2871283119F4877E1F
:1011A000816106C0282F2171213111F48E7E886162
:1011B00094FD877E0895CF93E82F873080F5809146
:1011C000070190910801892B09F047C0CE2F64E6F2
:1011D00070E080E40E942A1D90930801809307012B
:1011E000892BD1F464E670E082E10E94811D909326
:1011F000080180930701892B79F481E090E001C018
:10120000880FCA95EAF764E670E080950E94811D18
:101210009093080180930701CF910C94D61D90E024
:10122000FC013797E730F105C0F4EE59FF4F0C94FD
:10123000361E209A289811C0219A29980EC0229A09
:101240002A980BC0239A2B9808C0529A5A9805C026
:10125000539A5B9802C03E9A4698CF910895CF93D7
:10126000873008F03FC08091070190910801892BD9
:1012700009F041C064E670E080E40E942A1D90936A
:10128000080180930701892B11F0C0E027C064E6B4
:1012900070E083E10E94811D909308018093070113
:1012A000892B99F764E670E081E40E942A1D9093EF
:1012B000080180930701892B41F784E690E00E94A2
:1012C000B11D97FF05C09093080180930701DDCF02
:1012D000C82FC09510920801109207010E94D61DD8
:1012E0008C2F0AC09FB18FB1807F869586959370B1
:1012F000892B809501C080E0CF910895EF92FF92F5
:101300000F931F93CF93DF93CDB7DEB767970FB6D9
:10131000F894DEBF0FBECDBF4B8B5C8B6D8B7E8B8D
:101320008F8B0E891F8901151105C1F15F3F11F4E3
:101330004F3FA1F1E42EF12CA1E0B0E0042E01C05A
:10134000AA0F0A94EAF7852F90E0662319F02091FE
:101350005A0206C09C01255D3D4FF90120812A23D8
:101360002223A9F046E0489F9001499F300D1124A7
:10137000F701E20FF31FEE0FFF1FEC5BFE4F408102
:101380005181FC01E55DFD4F9081A92B06C0FC0158
:10139000E55DFD4FA0958081A823A08386E0FE0136
:1013A0003D96DF01982F1D929A95E9F74D875E874C
:1013B0006F87198B088BDE01179601900D928A9525
:1013C000E1F7CE0107960E947F12811137C086E0B7
:1013D000FE013796DE01119601900D928A95E1F794
:1013E000FF81E8856A857B856115710539F1EF3FDD
:1013F00011F4FF3F19F12091610230E0C90101961B
:10140000877099274091920250E08417950779F1EF
:10141000F983EA837D836C8396E0929FD001939F4A
:10142000B00D1124AE59BD4FFE01319601900D92C1
:101430009A95E1F7809361020E941A1216E080915A
:10144000920290916102891701F1189FC001112445
:101450008E599D4F0E947F128823B9F0809192028D
:1014600090E001968770992780939202E8CF0E94BE
:10147000F21B1092610210929202EBE5F2E086E01C
:10148000DF011D928A95E9F7D9CF67960FB6F894D8
:10149000DEBF0FBECDBFDF91CF911F910F91FF90A7
:1014A000EF9008952091290230912A028217930724
:1014B00071F090932A0280932902E0912403F09125
:1014C0002503309721F00084F185E02D09940895DB
:1014D00020912702309128028217930771F0909390
:1014E000280280932702E0912403F091250330978E
:1014F00021F00680F781E02D09940895E0912403FE
:10150000F0912503309721F00190F081E02D0994AE
:1015100080E0089560910C038CE090E00C94EE1D47
:10152000CF93DF9326E0729FF001112444E5849F5E
:10153000E00DF11D1124E60FF11DEE0FFF1FE05F1E
:10154000FE4FC591D491CE01C238D10569F1B0F4F6
:10155000C133D10509F475C048F4C932D10509F485
:1015600069C0CA32D10509F473C085C0C533D1053D
:1015700009F459C0C933D105B9F07DC0C33ED105C6
:1015800071F138F4C03ED105B1F0C23ED10511F180
:1015900072C0C63ED105B9F1C73ED105C9F1C43EFE
:1015A000D10509F068C024C04091220340FD5DC010
:1015B00041FD5BC060C02091220320FD50C02091FE
:1015C000230320FF49C18091220384FD43C183EEA0
:1015D00090E042C12091220322FF3EC1F4CF8091CE
:1015E000220382FD3FC08091230380FD3EC0EBCFEC
:1015F0002091230321FF30C18091220384FD2AC161
:1016000087EE90E029C12091220323FF25C1F4CF6A
:101610008091220383FD2CC08091230381FFECCFB6
:1016200084EE90E019C12091220325FF15C189E2C3
:1016300090E012C12091220325FF0EC185E390E0C6
:101640000BC12091220326FF07C18AE290E004C16A
:101650002091220326FF00C181E390E0FDC089E3D1
:1016600090E0FAC082EE90E0F7C080EE90E0F4C027
:1016700086EE90E0F1C0C11552E5D50708F06AC0CA
:10168000C11521E5D20728F09C2F8827816F906A29
:10169000E3C0C83ED10570F5C03ED10508F0DCC0FE
:1016A000C83AD105B8F4C53AD10550F08C2F855A07
:1016B000E82FF0E0ED5EFE4F808190E09064CCC0BA
:1016C000C130D10509F4C8C008F4C4C0249708F497
:1016D000C1C0C2C0CF3BD10508F0BCC08C2F885A16
:1016E000E82FF0E0EE0FFF1FEA5EFE4F8081918150
:1016F0009464B2C0C11540E5D407E8F04C2F4370A4
:1017000081E090E002C0880F991F4A95E2F79C683B
:10171000AE01F4E056954795FA95E1F74370942BA6
:101720002C2F2F702695269550E2259F900111248D
:10173000822B932B91C0C11550E4D50720F0CE0128
:101740009F70906A89C09E013A9521153F4108F427
:1017500083C080C0C11556E5D507E8F5C11585E5FC
:10176000D80748F08C2F0E9498088F7190E0982F2E
:101770008827906271C0C11594E5D90728F09C2F85
:101780008827846F906A68C08C2F86958695AE01F5
:1017900043705527C115D34578F490E2899F900195
:1017A000112481E090E002C0880F991F4A95E2F76A
:1017B000822B932B9C6850C090E2899F900111244A
:1017C00081E090E002C0880F991F4A95E2F7822BD2
:1017D000932B9A6841C0C1154AE5D40778F5C11525
:1017E00059E5D50710F18C2F8F700E9498089E0143
:1017F00094E0369527959A95E1F72F7030E0322FD7
:1018000022273069A901482B0EC0905681159042BD
:1018100008F58D2F8F710E9498089E013327306242
:101820008F71A901582BCA0117C0C11588E5D807C7
:1018300088F09C2F8827806F906A0EC0C1159BE5A9
:10184000D90740F0CE01C1152CE5D207F0F6992753
:10185000906602C080E090E0DF91CF910895CF9232
:10186000DF92EF92FF920F931F936C01EE24FF24FF
:10187000C114D104E104F10411F0E0E103C06B01F3
:101880007C01E0E033272F2D1E2D0D2D01151105B4
:101890002105310519F0E85F68017901970186019A
:1018A000F4E03695279517950795FA95D1F7011528
:1018B00011052105310519F0EC5F680179019701E7
:1018C000860152E036952795179507955A95D1F7D9
:1018D000011511052105310519F0EE5F6801790147
:1018E000970186013695279517950795012B022BB1
:1018F000032B09F0EF5F56985E9825982D9826984F
:101900002E9827982F980E2F10E0F8013197E73086
:10191000F105A8F4E759FF4F0C94361E259A2D9A2D
:101920000EC0259A2D9A269A2E9A09C0259A2D9A8C
:1019300004C0259A2D9A269A2E9A279A2F9A1F919B
:101940000F91FF90EF90DF90CF90089580E290E0AC
:1019500090930801809307018091240281110EC0A9
:101960000E94241D81E0809324022FEF83ED90E3F9
:10197000215080409040E1F700C0000064E670E034
:1019800080E40E942A1D9093080180930701892B0F
:1019900009F04EC064E670E080E00E94811D9093E3
:1019A000080180930701892B09F042C064E670E0CA
:1019B00080E00E94811D9093080180930701892B8C
:1019C000B9F564E670E08FE30E94811D90930801F1
:1019D00080930701892B61F50E94D61D64E670E0B3
:1019E00080E40E942A1D9093080180930701892BAF
:1019F000F9F464E670E08CE00E94811D9093080188
:101A000080930701892BA1F464E670E080E00E94D6
:101A1000811D9093080180930701892B49F464E6A6
:101A200070E08FE30E94811D90930801809307016D
:101A30000E94D61D809107010895CF93DF93569899
:101A40005E9825982D9826982E9827982F98C8E864
:101A5000D0E08FEF90E099838883AAE8B0E01196F8
:101A60009C938E93ECE8F0E091838083259A2D9AE5
:101A70002FEF80E792E0215080409040E1F700C0D6
:101A80000000269A2E9A2FEF80E792E021508040A6
:101A90009040E1F700C00000279A2F9A2FEF80E7CF
:101AA00092E0215080409040E1F700C0000025986E
:101AB0002D982FEF80E792E0215080409040E1F791
:101AC00000C0000026982E982FEF80E792E021506A
:101AD00080409040E1F700C0000027982F98809147
:101AE000100387702FEF829FC00111249595879571
:101AF0009595879599279983888311969C938E93C2
:101B00009183808356985E9825982D9826982E98D4
:101B100027982F98DF91CF91089584B1807F84B961
:101B200085B1807F85B98AB1837F8AB98BB1837F84
:101B30008BB93E984698089580B38C7080BB81B372
:101B4000836F81BB08956F927F928F929F92AF9225
:101B5000BF92CF92DF92EF92FF920F931F93CF939A
:101B6000DF931F92CDB7DEB7742E622EFC01828107
:101B7000882331F160931F0269830E94930F909331
:101B8000260280932502698180E2860F883008F062
:101B900080C0677081E001C0880F6A95EAF70F90F6
:101BA000DF91CF911F910F91FF90EF90DF90CF9039
:101BB000BF90AF909F908F907F906F900C94271C58
:101BC00090911F0296134AC040912502509126021F
:101BD0008FB7F8940091D7021091D8022091D902C2
:101BE0003091DA028FBF48015901AA24BB246A014F
:101BF000E12CF12C041B150B8C149D04AE04BF04C6
:101C000010F401501109083C110540F510E2170DC0
:101C10009715B9F080E2890F883040F4977081E021
:101C200001C0880F9A95EAF70E941C1C183048F4EE
:101C300081E0972D977001C0880F9A95EAF70E946E
:101C4000271C862D0E94111D183018F5972D9770AE
:101C500081E001C0880F9A95EAF70AC080E2860FFA
:101C60008830B8F4677081E001C0880F6A95EAF7A0
:101C70000F90DF91CF911F910F91FF90EF90DF9028
:101C8000CF90BF90AF909F908F907F906F900C946B
:101C90001C1C0F90DF91CF911F910F91FF90EF903F
:101CA000DF90CF90BF90AF909F908F907F906F907C
:101CB00008959F92AF92BF92CF92DF92EF92FF92E0
:101CC0000F931F93CF93DF938091070190910801A9
:101CD000892B91F0809123028F5F809323028111E1
:101CE0000BC00E94A60C90E090930801809307011E
:101CF000892B11F40E941D0D04E113E02BE1E22E6B
:101D000023E0F22E6801C0E0912C97E0A92EAC0EE2
:101D10008C2F0E94DB088A2D0E94DB088C2F0E94EA
:101D20002F09F6019081981721F08083BB24B3948A
:101D300001C0B12C8A2D0E942F09F70190819817BC
:101D400019F0808381E001C080E0B82A9B280E94BE
:101D50008D0DCF5FFFEFCF1ADF0A8FEFE81AF80A79
:101D6000C73099F60E94930F6AEF70E00E94221E1E
:101D70009C01682F809122028823E9F110922202AF
:101D8000E0910A03F0910B03DF011E9690E07BEFD8
:101D90008AEFE82EF12C80818B3FA9F0482F50E08C
:101DA000681728F0E901C41BD50BAE0106C0670116
:101DB000C41AD50AA601420F531F4E31510514F023
:101DC000708301C091E03196EA17FB0721F79093E9
:101DD0002202911002C0911110C010922102A09114
:101DE0000A03B0910B0390912202E7E2F3E080E056
:101DF0003EE03E0F07C09110F0CF8091210281118B
:101E0000ECCF16C0E80129918E014081421741F0C4
:101E10004C914B3F21F46C93208391E001C081E011
:101E2000119631963E13EECF9093220280932102B9
:101E3000892DDF91CF911F910F91FF90EF90DF904F
:101E4000CF90BF90AF909F9008958091DD0208954C
:101E5000CF93DF93209100032430E1F52091060118
:101E6000222339F02091220327FF03C060E222E001
:101E700002C068E021E02093E9002FEF3091E800F4
:101E8000215035FD06C035ED3A95F1F700002111DE
:101E9000F5CF2091E80025FF1DC0EC0180910601DF
:101EA000811105C040E050E068E070E003C070E0E0
:101EB00040E050E0CE010E9449148091E8008E7706
:101EC0008093E80080E2FE01AEEDB2E001900D9259
:101ED0008A95E1F7DF91CF91089578941F920F9240
:101EE0000FB60F9211248F939F93AF93BF9380915E
:101EF000D7029091D802A091D902B091DA0201964E
:101F0000A11DB11D8093D7029093D802A093D9024E
:101F1000B093DA02BF91AF919F918F910F900FBE56
:101F20000F901F9018952FB7F8948091D702909139
:101F3000D802A091D902B091DA022FBF08951F9262
:101F40000F920FB60F9211248F939F93AF93BF936D
:101F500080912603811113C08091D7029091D802FD
:101F6000A091D902B091DA024196A11DB11D8093D2
:101F7000D7029093D802A093D902B093DA02BF910E
:101F8000AF919F918F910F900FBE0F901F9018955A
:101F900020910601222321F02091220327FD04C075
:101FA000FC013296089619C0262F2695269526956F
:101FB0002E31C0F4FC01E20FF11D677081E090E06A
:101FC00001C0880F6A95EAF7809592818923828300
:101FD00008953196E817F90729F020812613F9CFE3
:101FE0001082F7CF089520910601222321F020913D
:101FF000220327FD05C0FC0132962FEF30E019C007
:10200000262F2695269526952E3120F5FC01E20FE8
:10201000F11D677081E090E001C0880F6A95EAF7D2
:102020009281892B828308952F3F39F03F5F3630AC
:1020300041F041914613F8CF0DC04111F7CF232F46
:10204000F5CF2F3F39F0FC01E20FF11D27FDFA9586
:10205000628308950895CF9384E090E00E94DA1D92
:10206000C82F81E290E00E94DA1D2C2F30E0A901F8
:10207000582BCA01CF9108956FEE7EEF80E090E07B
:102080000E940C1E60E082E090E00E94EE1D60E085
:1020900083E090E00E94EE1D1092D3021092D402D1
:1020A0001092D5021092D60260E084E090E00E9487
:1020B000EE1D60E081E290E00E94EE1D60E085E0B0
:1020C00090E00E94EE1D60E086E090E00E94EE1D30
:1020D0006FEF87E090E00E94EE1D40E050E0BA0113
:1020E00088E090E00E94001E60E08DE090E00E9499
:1020F000EE1D40E050E0BA0188E190E00E94001E31
:1021000060E087E190E00E94EE1D40E050E0BA01FF
:102110008CE190E00E94001E60E080E290E00E946E
:10212000EE1D1092100310921103109212031092E0
:10213000130384E080618093100340911003509159
:10214000110360911203709113038FE090E00E94DD
:10215000001E40E050E0BA0183E190E00C94001EC4
:102160008091D20281111092D20208959091D002F2
:102170008091D102892B2091CF02982F922B90939E
:1021800039028091D2028823D9F0892B80933902B9
:1021900080910601882331F08091220387FF02C0DD
:1021A0008EE101C086E0EBE3F2E090E0815028F0A0
:1021B00021912223D9F39F5FF9CF91110E94B01092
:1021C000E0912403F09125033097A9F08091060156
:1021D000882359F08091220387FF07C0809139023C
:1021E00080933A0285E0809339020280F381E02DEA
:1021F00089E392E009940895BF92CF92DF92EF9223
:10220000FF920F931F93CF93DF938C01C090D30263
:10221000D090D402E090D502F090D6028091CA020C
:102220009091CB02A091CC02B091CD02C82AD92ABC
:10223000EA2AFB2ACFE1D0E0D701C6010C2E04C068
:10224000B695A795979587950A94D2F780FF07C012
:10225000BC2EB8018C2F0E94900A019719F4219787
:1022600058F7B12C8B2DDF91CF911F910F91FF90DB
:10227000EF90DF90CF90BF900895CF93DF93EC0164
:102280000E94FC10BE010E94900ADF91CF91089538
:10229000292F220F920F990F890F682F6695669547
:1022A0006695982F977085E0689FB001112440E0F3
:1022B00050E080E0FA01E60FF71FED56FD4F208158
:1022C00030E0092E02C0369527950A94E2F7217076
:1022D0003327042E01C0220F0A94EAF7822B4F5FA6
:1022E0005F4F4530510531F70895292F220F920F86
:1022F000990F890FA82FA695A695A695877051E0EE
:1023000001C0550F8A95EAF785E0A89FD0011124F6
:1023100020E030E070E0F901EA0FFB1FED56FD4FC1
:102320004081CB01022E02C0969587950A94E2F770
:1023300081709927819584278523842780832F5F47
:102340003F4F2530310539F708950E942F0C6093D7
:10235000CA027093CB028093CC029093CD020C946E
:10236000E41B0F931F9341E050E060E070E004C075
:10237000440F551F661F771F8A95D2F740955095D9
:10238000609570958091CA029091CB02A091CC0289
:10239000B091CD028A019B01082319232A233B23F4
:1023A000C901B8011F910F910C94A5112091CE0283
:1023B000809582238093CE02982F977079F430E035
:1023C000482F082E000C550B2417350739F085953A
:1023D000859585950E94B1111092CE0208950F93B4
:1023E0001F9341E050E060E070E004C0440F551FCF
:1023F000661F771F8A95D2F78091CA029091CB020F
:10240000A091CC02B091CD028A019B01082B192B1F
:102410002A2B3B2BC901B8011F910F910C94A511D8
:102420006093D3027093D4028093D5029093D60226
:102430000C94E41B8091920290916102891719F02B
:102440008F5F8770FBCF08958091600282958F70B7
:1024500009F054C080915D02882309F44FC0809137
:102460009202A091610260915B0270915C024091C6
:102470005E0250915F02B6E08A1709F43FC090E017
:1024800041155105C1F17F3F11F46F3FA1F1B89F94
:10249000F001B99FF00D1124EE59FD4F2181721307
:1024A0002AC02081621327C02281211124C02381E8
:1024B00034812417350710F421503109241B350BC2
:1024C000283C3105C0F4209160022F7020612093D8
:1024D000600226E0289FF001299FF00D1124E959A0
:1024E000FD4F80818F70806180838BE592E00E9438
:1024F00038020C941A1201968770BECF0895BF92CD
:10250000CF92DF92EF92FF920F931F93CF93DF93BF
:10251000CDB7DEB761970FB6F894DEBF0FBECDBF63
:102520008C0185E0F801DE011D9601900D928A95DF
:10253000E1F7D8013C9111962C9111971296EC90ED
:1025400012971396CD90DC90149750915B02609196
:102550005C0280915E0290915F02009709F44FC186
:102560006F3F19F45F3F09F44AC1B0905D02BB2090
:1025700009F4ECC040916002C816D90628F0F601B3
:10258000E81BF90BCF0104C0809590958C0D9D1D23
:10259000FF24F394883C910548F0F12C407F09F02A
:1025A0009FC08BE592E00E94380221C1842F807F7A
:1025B00009F044C0621312C0531310C0E1100EC0E2
:1025C0004F704061409360028BE592E00E943802B8
:1025D00080916002D80115968C932EC0CD2819F1F8
:1025E0002F3F11F43F3FF9F0FE2CE1101CC0809109
:1025F00092024091610256E0841709F458C090E0BD
:10260000589FF001599FF00D1124EE59FD4F618143
:10261000261306C06081361303C06281611103C0B6
:1026200001968770E9CFFE2CEE2009F421C180913C
:102630006002816080936002F12C1AC162130AC0AB
:10264000531308C0E11006C080916002D8011596AE
:102650008C93B0C03D872E878D859E850E94BD1BC3
:102660008823D1F1EE20C1F120916002822F829562
:102670008F7090E0029774F080915B0290915C0201
:1026800098878F831986DB86CA862C87CE010796AA
:102690000E94380286E0F801ABE5B2E001900D92AD
:1026A0008A95E1F70E942412FF24F394E1C03D874C
:1026B0002E878D859E850E943D11292F22952F7092
:1026C00030E0223031050CF0C7C09F7009F0C1C066
:1026D000805E883008F4CCC0C8010E943802E4CF84
:1026E000621314C0531312C0E11010C08091600235
:1026F000F8018583C8010E94380286E0EBE5F2E02C
:10270000DF011D928A95E9F7FB2CB2C03D872E8729
:102710008D859E850E94BD1B8823F1F2EE20E1F29B
:1027200020916002822F82958F7090E002970CF4C6
:10273000B1CF80915B0290915C029A8389831B8266
:10274000DD82CC822E83CE010196A2CFC816D90697
:1027500038F0C81AD90AB8ECCB16D10450F007C02B
:10276000809590958C0D9D1D883C910510F0F12C65
:102770003EC0FE2CEE2009F4AFCF621327C05313E6
:1027800025C02091600220FD18C0822F82958F7095
:10279000482F50E04115510581F0F80125834F3055
:1027A000510541F08F5F982F9295907F822F8F7007
:1027B000892B8583C8010E94380286E0F801ABE5C9
:1027C000B2E001900D928A95E1F752C03D872E87C5
:1027D0008D859E850E94BD1B81115CCF809160021A
:1027E000816080936002C8010E94380241C0EBE51D
:1027F000F2E086E0DF011D928A95E9F739C0EE200C
:1028000009F46ACF3D872E878D859E850E94BD1B6A
:10281000F82E882309F460CF86E0F801ABE5B2E03A
:1028200001900D928A95E1F780915B0290915C0294
:102830000E943D1192959F70963041F480915A020A
:1028400091E0892780935A02909359020E942412A2
:102850000FC081113DCF0CC0243031050CF03CCFAE
:102860009F7009F435CFF8019581907F09F030CF42
:102870008F2D61960FB6F894DEBF0FBECDBFDF91EE
:10288000CF911F910F91FF90EF90DF90CF90BF906D
:102890000895CF92DF92FF920F931F93CF93DF9310
:1028A0001F92CDB7DEB7F82E8B0199830E943319A2
:1028B000998181111CC0CF2CD92E01151105B1F0C1
:1028C0008091E80085FD0AC08091E8008E778093B2
:1028D000E8000E943319882381F309C0F601819131
:1028E0006F018093F10001501109E7CF80E00F9054
:1028F000DF91CF911F910F91FF90DF90CF900895BE
:102900001F93CF93DF93CDB7DEB7AA970FB6F89496
:10291000DEBF0FBECDBFE2E0F3E088E08E0F909106
:10292000F10091938E13FBCF80910303833009F460
:1029300060C030F4813071F0823009F49AC0B1C0C7
:102940008A3009F486C08B3009F46BC0893009F0F5
:10295000A8C020C080910203813A09F0A2C08091F2
:10296000E800877F8093E800809106039091070339
:10297000892B21F460E28EED92E003C060E080E0FC
:1029800090E070E00E94B9198091E8008B77809305
:10299000E80087C080910203813209F082C08091F3
:1029A000060390910703029708F07BC08091E8002E
:1029B000877F8093E8008091E80082FD05C08091C8
:1029C00000038111F8CF6DC02091F3008091F200D7
:1029D00090E0922B029729F48091F1008B7F813057
:1029E00021F48091F1008093DD028091E8008B77E3
:1029F00054C080910203813A09F053C080910603CC
:102A000090910703892B09F04CC08091E800877FE3
:102A10008093E8008091E80080FFFCCF8091060160
:102A200037C0809102038132E1F5809106039091D5
:102A30000703892BB1F58091E800877F8093E80038
:102A40000E94651980910403809306010E94F21B85
:102A500028C080910203813221F58091E800877FB0
:102A60008093E8000E946519809105038093DC0241
:102A700018C080910203813AA1F48091E800877F19
:102A80008093E8008091E80080FFFCCF8091DC0219
:102A90008093F1008091E8008E778093E8000E9497
:102AA00065198091E80083FFD6C18091020390915F
:102AB0000303492F50E04A30510508F0CCC1FA0118
:102AC000E059FF4F0C94361E803821F0823809F00F
:102AD000C2C108C08091FE029091FF02992389F043
:102AE00082600FC0809106038F70873008F0B3C1F9
:102AF0008093E9008091EB0085FB882780F9109294
:102B0000E9009091E800977F9093E8008093F100AE
:102B10001092F10074C1282F2D7F09F09CC18823E9
:102B200019F0823061F097C180910403813009F07F
:102B300092C1933009F080E08093FF022EC0809113
:102B4000040381112AC0809106038F702FEF280F94
:102B5000263008F080C18093E9002091EB0020FF2F
:102B60001CC0933021F48091EB00806214C09091DE
:102B7000EB0090619093EB0021E030E0A90102C0EE
:102B8000440F551F8A95E2F74093EA001092EA003D
:102B90008091EB0088608093EB001092E9008091B7
:102BA000E800877F2FC1811156C1109104031F7760
:102BB0008091E3008078812B8093E3008091E8008E
:102BC000877F8093E8000E9465198091E80080FF6C
:102BD000FCCF8091E30080688093E300111102C074
:102BE00082E001C083E08093000335C180588230C9
:102BF00008F031C180910403909105038C3D53E0AE
:102C0000950779F583E08A838AE289834FB7F89440
:102C1000DE01139620E03EE051E2E32FF0E0509316
:102C20005700E49120FF03C0E295EF703F5FEF7023
:102C30008E2F90E0EA3010F0C79601C0C0968D93B9
:102C40009D932F5F243149F74FBF8091E800877F24
:102C50008093E8006AE270E0CE0101960E94B91903
:102C6000BDC04091060350910703292F332723301D
:102C70003105B9F06CF42130310509F4FBC0223084
:102C8000310509F0E8C08BE390E0E9EBF3E054C0D4
:102C90002132310509F433C02232310509F43CC038
:102CA000DAC0992781309105D1F05CF4892B09F0C5
:102CB000D2C0EEE2F4E0E4918E2F90E0EEE2F4E098
:102CC00038C08230910599F0039709F0C4C0E6E05E
:102CD000F4E0E4918E2F90E0E6E0F4E02AC0E4E234
:102CE000F4E0E4918E2F90E0E4E2F4E022C0ECE026
:102CF000F4E0E4918E2F90E0ECE0F4E01AC041158E
:102D0000510509F4BCC04130510509F0A4C089E067
:102D100090E0E4EEF3E010C04115510509F4B4C0B1
:102D20004130510509F097C081E790E0E8E0F3E019
:102D300003C0009709F48FC02091E800277F2093FB
:102D4000E80020910803309109032817390708F497
:102D5000C90140E0009789F120910003222309F482
:102D60003DC02530D9F12091E80023FD37C02091E6
:102D7000E80022FD2FC02091E80020FFEBCF40911A
:102D8000F3002091F20030E0342B009759F0283006
:102D9000310540F444914093F100319601972F5F43
:102DA0003F4FF3CF41E02830310509F040E020915A
:102DB000E8002E772093E800CDCF4111CDCF0AC097
:102DC00080910003882351F0853041F08091E80024
:102DD00083FD04C08091E80082FFF2CF8091E8007B
:102DE0008B778093E80037C08038A9F58091E800A0
:102DF000877F8093E800809101038093F1008091A8
:102E0000E8008E778093E8000E94651924C0811144
:102E100022C0109104031230F0F48091E800877F03
:102E20008093E800109301030E946519111106C0F8
:102E30008091E30087FD02C081E001C084E08093BF
:102E4000000342E061EC81E00E94841942E261ECFF
:102E500082E00E9484198091E80083FF1AC080916B
:102E6000E800877F8093E8008091EB008062809388
:102E7000EB000FC082E190E0E4EFF3E05DCF89E08A
:102E800090E0EBECF3E058CF80E490E0E9E7F3E08A
:102E900053CFAA960FB6F894DEBF0FBECDBFDF9119
:102EA000CF911F9108951F920F920FB60F92112488
:102EB0002F933F934F935F936F937F938F939F9342
:102EC000AF93BF93CF93DF93EF93FF93C091E9004C
:102ED000CF708091EC00D82FD17080FDD0E8109297
:102EE000E9008091F000877F8093F00078940E9441
:102EF00080141092E9008091F00088608093F000C7
:102F0000CD2BCF70C093E900FF91EF91DF91CF916E
:102F1000BF91AF919F918F917F916F915F914F91F1
:102F20003F912F910F900FBE0F901F901895E8EDD5
:102F3000F0E080818E7F80831092E2001092DA00B0
:102F40001092E100A0EEB0E08C9181608C938081C2
:102F50008F77808319BCA7EDB0E08C918E7F8C9326
:102F600080818F7E80831092DB020895CF92DF9262
:102F7000EF92FF920F931F93CF93DF93C8EDD0E0B2
:102F800088818F7E8883E7EDF0E080818160808397
:102F900084E082BF81E08093DB0288818E7F88831A
:102FA00002EE10E0F80110821092DA0081EEC82ED5
:102FB000D12CF601108288818F7788838881806880
:102FC000888388818F7D888319BC109200031092BA
:102FD00001031092FF021092FE0290EEE92EF12CF6
:102FE000F70180818B7F808388818160888342E0C4
:102FF00060E080E00E948419F60180818E7F8083EA
:10300000F801808181608083808188608083F701FE
:1030100080818E7F8083888180618883DF91CF91DA
:103020001F910F91FF90EF90DF90CF9008951F9226
:103030000F920FB60F9211242F933F934F935F93EC
:103040006F937F938F939F93AF93BF93EF93FF9370
:103050008091E10082FF09C08091E20082FF05C0FB
:103060008091E1008B7F8093E1008091DA0080FF06
:103070002AC08091D80080FF26C08091DA008E7F20
:103080008093DA008091D90080FF18C080E189BD6B
:1030900082E189BD09B400FEFDCF81E08093000389
:1030A0008091DB0281110FC00E9497170E94B61712
:1030B0008091E20084608093E20005C019BC109208
:1030C00000031092DB028091E10080FF17C0809125
:1030D000E20080FF13C08091E2008E7F8093E200C7
:1030E0008091E20080618093E2008091D80080624C
:1030F0008093D80019BC85E0809300038091E100A3
:1031000084FF32C08091E20084FF2EC080E189BD3F
:1031100082E189BD09B400FEFDCF8091D8008F7D8A
:103120008093D8008091E1008F7E8093E1008091B0
:10313000E2008F7E8093E2008091E20081608093C4
:10314000E20080910103882311F084E007C08091A0
:10315000E30087FD02C081E001C083E080930003AB
:103160000E94F21B0E947E0A8091E10083FF27C02B
:103170008091E20083FF23C08091E100877F8093EC
:10318000E10082E080930003109201038091E1004E
:103190008E7F8093E1008091E2008E7F8093E20039
:1031A0008091E20080618093E20042E060E080E094
:1031B0000E9484198091F00088608093F000FF9154
:1031C000EF91BF91AF919F918F917F916F915F919F
:1031D0004F913F912F910F900FBE0F901F90189518
:1031E0000895CF93DF9300D01F92CDB7DEB79091B3
:1031F0000003943019F589837B836A8382E080938E
:10320000E9008FEF9091E800815095FD06C095EDA3
:103210009A95F1F700008111F5CF8091E80085FFC4
:103220000DC040E050E063E070E0CE0101960E94E6
:1032300049148091E8008E778093E8000F900F90FA
:103240000F90DF91CF91089520910003243021F455
:10325000BC0184E00C94F1180895BC016058710918
:1032600083E00C94F1182091E4003091E50095E69C
:103270004091EC00842F817040FF22C08091E800D3
:1032800080FD1CC080910003882391F0853091F06F
:103290008091EB0085FD10C04091E4005091E50065
:1032A0004217530729F39A01915011F784E00895CA
:1032B00082E0089583E0089581E0089580E0089514
:1032C0004091E80042FFDECF08958091020387FF1E
:1032D00011C08091E80082FD05C08091000381113A
:1032E000F8CF11C08091E8008B770BC0809100036C
:1032F000882349F08091E80080FFF8CF8091E800B2
:103300008E778093E8000895982F973058F5909322
:10331000E900981739F07091EC002091ED00509180
:10332000F00003C0242F762F50E021FF19C0309108
:10333000EB003E7F3093EB003091ED003D7F30930A
:10334000ED003091EB0031603093EB007093EC00B6
:103350002093ED005093F0002091EE0027FF07C06E
:103360009F5FD3CF8F708093E90081E0089580E064
:10337000089520910803309109032617370748F074
:103380006115710539F42091E8002E772093E8004B
:1033900001C0B90140E061157105A9F12091000358
:1033A000222309F443C0253009F442C02091E800EB
:1033B00023FD40C02091E80022FD32C02091E800AA
:1033C00020FFE9CF4091F3002091F20030E0342B50
:1033D000FC01CF016115710559F02830310540F429
:1033E00081918093F100615071092F5F3F4FF1CFC0
:1033F00041E02830310509F040E02091E8002E77C7
:103400002093E800C8CF4111C9CF0AC080910003C2
:10341000882361F0853061F08091E80083FD0AC067
:103420008091E80082FFF2CF80E0089582E0089565
:1034300083E0089581E00895CF93DF93CDB7DEB7A1
:103440002A970FB6F894DEBF0FBECDBF84B7877F33
:1034500084BF0FB6F894A89580916000886180932E
:103460006000109260000FBE90E080E80FB6F89404
:1034700080936100909361000FBE85B7806885BF1F
:1034800085B7806885BF0E9497170E94B617809104
:10349000E20084608093E2007894809100038823A6
:1034A000A1F01091E9001F709091EC00892F8170BC
:1034B00090FD80E8182B1092E9008091E80083FDD0
:1034C0000E9480141F701093E90082E084BD93E095
:1034D00095BD9AEF97BD80936E000E94A60C90E078
:1034E00090930801809307010E948D0D0E949C0D0E
:1034F000A4E1B3E0E7E2F3E05EE0E52EEE0E119228
:103500001D92EE12FCCF8EE090E00E943C1E809354
:103510000A0390930B03FC010E962BEF2193E817FF
:10352000F907E1F780E090E00E94E81D8F3E9E4F92
:1035300011F00E943C108CE090E00E94DA1D90E0B7
:10354000A0E0B0E080930C0390930D03A0930E03D2
:10355000B0930F0389EA8093800089E08093810013
:1035600024982C983F988AB18F7C8AB96E98479A94
:103570008BB180638BB9769A8FE090E00E94E21D58
:1035800060931003709311038093120390931303BD
:1035900067708FEF689FB0011124759567957595D9
:1035A00067957727709389006093880070938B00EC
:1035B00060938A0070938D0060938C000E941D0DB3
:1035C00080E090E00E94E81D8F3E9E4F11F00E9427
:1035D0003C1082E090E00E94DA1D809336030E9446
:1035E0002B10909323038093220383E090E00E94AA
:1035F000DA1D682F70E080E090E00E94101289E0F0
:1036000091E09093250380932403BB24BA9480E136
:10361000982E92E1A92E28E1C22ED12C30E4832EDF
:1036200080910003853009F043C08091000384300D
:1036300009F1109226030FB6F894A895C092600085
:103640000FBE8092600083B7817F846083BF83B7A1
:10365000816083BF7894889583B78E7F83BF0FB6D0
:10366000F894A89580916000886180936000109222
:1036700060000FBE8091FF02882391F20E94A60C89
:1036800090E090930801809307010E948D0D0E94A5
:103690009C0DE7E2F3E01192EE12FDCF0E94590E6D
:1036A000E7E2F3E08191811154C0EE12FBCFB8CF75
:1036B0000E94590EE7E3F3E0A7E2B3E000E010E078
:1036C000302F2D919191922721F180E0FF24F394E6
:1036D0004F2D4923D1F089833A832F2181E009F4CA
:1036E00080E08B830E94930F8160782F9D838C8371
:1036F00049815A816B818D810E947E09F801E95CC4
:10370000FC4F8081F826F08218C08F5FFF0C863056
:10371000F9F60F5F1F4F0E30110591F6BE82BF8282
:1037200018860E94930F8160782F9A8789874E812F
:103730005F8168858A850E947E09109135030E9409
:103740007E0A181709F46CCF0E947E0A8093350315
:1037500067CF99BCA9BC09B400FEFDCF8091D80009
:103760008F7D8093D8008091E00082608093E0009C
:103770008091E00081FDFCCF53CF0E943D11292FA5
:103780002F7092959F70E92FF0E03297EE30F1059F
:10379000B8F4E658FF4F0C94361E803F99F018F4A9
:1037A000883E70F40FC0843F59F40CC0883E50F03E
:1037B000813F31F407C0822F8695869586950895BE
:1037C00080E0089581E008951092D0021092CF0217
:1037D0000E94B61080E090E00E94680A80E090E0CD
:1037E0000C94520A1092D10280910601882331F084
:1037F0008091220387FF02C08EE101C086E0EBE3E7
:10380000F2E0DF011D928A95E9F70C94E41B88230E
:1038100041F080959091D00289238093D0020C943E
:10382000B6100895882339F09091D002892B8093A7
:10383000D0020C94B6100895882341F080959091A1
:10384000D10289238093D1020C94B6100895882365
:1038500039F09091D102892B8093D1020C94B6104B
:103860000895882309F458C0682F823869F40E94AB
:103870007E0A81FF51C069E389E392E00E94F30F61
:103880000E94B61069E30EC0833891F40E947E0A4C
:1038900080FF42C063E589E392E00E94F30F0E943B
:1038A000B61063E589E392E00E94C80F0C94B6104D
:1038B000843869F40E947E0A82FF2EC067E489E39F
:1038C00092E00E94F30F0E94B61067E4EBCF8CEFFA
:1038D000860F813A38F380E2860F883070F4677083
:1038E00081E090E001C0880F6A95EAF78095909199
:1038F000D10289238093D102D9CF8BE5860F833003
:1039000020F480E090E00C94680A685A673120F453
:1039100080E090E00C94520A0895882309F480C056
:10392000682F8238B1F40E947E0A81FD79C069E374
:1039300089E392E00E94F30F0E94B6102FEF81EE10
:1039400094E0215080409040E1F700C0000069E31E
:1039500017C08338D9F40E947E0A80FD61C063E5F8
:1039600089E392E00E94F30F0E94B6102FEF81EEE0
:1039700094E0215080409040E1F700C0000063E5F2
:1039800089E392E00E94C80F0C94B6108438B1F419
:103990000E947E0A82FD44C067E489E392E00E94AF
:1039A000F30F0E94B6102FEF81EE94E0215080407B
:1039B0009040E1F700C0000067E4E2CF8CEF860F93
:1039C000813A28F489E392E00E94F30FDDCF80E290
:1039D000860F883068F4677081E090E001C0880F3E
:1039E0006A95EAF79091D102892B8093D102CCCFCE
:1039F000EBE5E60FE33038F4F0E0E451FE4F808170
:103A000090E00C94680A685A673150F4E62FF0E0B1
:103A1000EE0FFF1FE151FE4F808191810C94520AFD
:103A20000895CF93C82F0E948D1CC93349F42FEFFE
:103A300087EE93E0215080409040E1F700C0000005
:103A40008C2FCF910C94311C1092B9008CE0809394
:103A5000B8000895EF92FF920F931F93CF93DF93D7
:103A6000182FEB011092BC0084EA8093BC000E94E6
:103A7000930F7C019091BC0097FD0EC0CF3F8FEF5C
:103A8000D807C1F30E94930F8E199F098C179D07C9
:103A900088F38EEF9FEF2EC09091B900987F9830F9
:103AA00041F09091B900987F903119F08FEF9FEF1E
:103AB00021C01093BB0084E88093BC000E94930F48
:103AC0008C019091BC0097FD0CC0CF3F8FEFD807C1
:103AD000C1F30E94930F801B910B8C179D0788F3F5
:103AE000D8CF8091B900887F883111F08034F1F609
:103AF00080E090E0DF91CF911F910F91FF90EF90C8
:103B000008950F931F93CF93DF93EB018093BB0036
:103B100084E88093BC000E94930F8C019091BC00BC
:103B200097FD0EC0CF3F8FEFD807C1F30E94930FD0
:103B3000801B910B8C179D0788F38EEF9FEF0CC0B5
:103B40002091B900287F81E090E0283211F480E0D4
:103B500090E0919581959109DF91CF911F910F91FF
:103B600008950F931F93CF93DF93EC0184E8809324
:103B7000BC000E94930F8C019091BC0097FD0EC079
:103B8000CF3F8FEFD807C1F30E94930F801B910B9B
:103B90008C179D0788F38EEF9FEF03C08091BB00C9
:103BA00090E0DF91CF911F910F91089584E9809368
:103BB000BC000895F999FECF92BD81BDF89A99276E
:103BC00080B50895A6E1B0E044E050E00C94141EE6
:103BD000A8E1B0E042E050E00C94141E262FF999C1
:103BE000FECF92BD81BDF89A019700B4021639F05C
:103BF0001FBA20BD0FB6F894FA9AF99A0FBE08952D
:103C00000396272F0E94EF1D0E94EE1D252F0E9474
:103C1000EF1D242F0C94EF1D0196272F0E94EF1DFE
:103C20000C94EE1DDC01CB01FC01F999FECF06C01E
:103C3000F2BDE1BDF89A319600B40D92415050406A
:103C4000B8F70895AA1BBB1B51E107C0AA1FBB1FF1
:103C5000A617B70710F0A61BB70B881F991F5A9518
:103C6000A9F780959095BC01CD010895EE0FFF1F37
:103C70000590F491E02D0994CF93DF938230910564
:103C800010F482E090E0E0914703F091480320E0D7
:103C900030E0C0E0D0E0309711F140815181481709
:103CA0005907C0F04817590761F482819381209722
:103CB00019F09B838A832BC090934803809347031A
:103CC00026C02115310519F04217530718F49A013F
:103CD000BE01DF01EF010280F381E02DDCCF211571
:103CE000310509F1281B390B2430310590F4129667
:103CF0008D919C9113976115710521F0FB019383C0
:103D0000828304C09093480380934703FD01329659
:103D100044C0FD01E20FF31F8193919322503109BA
:103D20002D933C933AC02091450330914603232BB9
:103D300041F4209102013091030130934603209316
:103D4000450320910001309101012115310541F415
:103D50002DB73EB74091040150910501241B350B4E
:103D6000E0914503F0914603E217F307A0F42E1B00
:103D70003F0B2817390778F0AC014E5F5F4F2417CF
:103D8000350748F04E0F5F1F50934603409345039D
:103D90008193919302C0E0E0F0E0CF01DF91CF91F9
:103DA00008950F931F93CF93DF93009709F48CC06E
:103DB000FC0132971382128200914703109148034D
:103DC0000115110581F420813181820F931F20910B
:103DD0004503309146032817390779F5F0934603D8
:103DE000E093450371C0D80140E050E0AE17BF0733
:103DF00050F412962D913C911397AD012115310588
:103E000009F1D901F3CF9D01DA0133832283608167
:103E10007181860F971F8217930769F4EC0128813F
:103E20003981260F371F2E5F3F4F318320838A81D0
:103E30009B8193838283452B29F4F0934803E0937D
:103E4000470342C01396FC93EE931297ED014991FC
:103E500059919E01240F351FE217F30771F48081F9
:103E60009181840F951F029611969C938E93828167
:103E7000938113969C938E931297E0E0F0E0D80123
:103E800012968D919C911397009719F0F8018C016F
:103E9000F6CF8D919C9198012E5F3F4F820F931F1B
:103EA00020914503309146032817390769F430976C
:103EB00029F4109248031092470302C01382128221
:103EC0001093460300934503DF91CF911F910F910B
:063ED0000895F894FFCFF5
:103ED600000049032000012000250F280FF0182DAF
:103EE600192419818283E200E900EA00B500B600D0
:103EF600B700CD008301CC008A0192019401210212
:103F0600230224022502260227022A02B300B40055
:103F16006F007000000D010D020D030D040D050D5F
:103F2600000C010C020C030C040C050C000B010B1D
:103F3600020B030B040B050B000A010A020A030A13
:103F4600040A050A00090109020903090409050909
:103F5600000801080208030804080508000701070D
:103F66000207030704070507000601060206030603
:103F760004060506000501050205030504050505F9
:103F860000040104020403040404050400030103FD
:103F960002030303040305030002010202020302F3
:103FA60004020502000101010201030104010501E9
:103FB600000001000200030004000500818283E284
:103FC60000E900EA00B500B600B700CD008301CCD9
:103FD600008A01920194012102230224022502266D
:0E3FE6000227022A02B300B4006F0070000030
:00000001FF
