:100000000C946F020C948C020C948C020C948C0255
:100010000C948C020C948C020C948C020C948C0228
:100020000C948C020C948C020C94F1170C942D17E8
:100030000C9459110C948C020C948C020C948C022C
:100040000C948C020C948C020C948C020C948C02F8
:100050000C948C020C94E7100C948C020C948C027F
:100060000C948C020C948C020C948C020C948C02D8
:100070000C948C020C948C020C948C020C948C02C8
:100080000C948C020C948C020C948C020C948C02B8
:100090000C948C020C948C020C948C020C948C02A8
:1000A0000C948C020C948C020C948C028A048C04A8
:1000B00097048E04900492049404960499049B047B
:1000C0009D04A8049F04A104A304A504A704AA04F2
:1000D0004C054C058A058A05C605E605B8071108D2
:1000E00028061108150715072207220722072207ED
:1000F00022072207220722072207220722072207B8
:10010000220722072207220733075B0760076707DA
:100110007F07DB08DE08E108E408E708EA08ED08E5
:1001200086138B13951389138E13931391133E1516
:100130006515051765150517AD15D0150517CE16EC
:10014000E116511C511C641C641C5A1C641C641C68
:10015000641C511C511C5F1C641C641C5F1C35001A
:100160002B00E000E200290000001E001400040043
:100170001D0039004D001F001A0016001B00000072
:10018000E10020000800070006004C002C002100C0
:100190001500090019002A004A00220017000A0071
:1001A0000500000006012C0800070000E301000024
:1001B000190101532F00000030000000AA002300A5
:1001C0001C000B0011000000A900240018000D0005
:1001D00010005000460025000C000E0036005100B3
:1001E0002800260012000F00370052000258270096
:1001F0001300330038004F004900310034002D0057
:100200002E00E300000001000100010001000100D8
:1002100000000100010001000100010001000100D7
:1002200001000100010001000100010001000100C6
:1002300001000100010001000100010001000100B6
:1002400001000100010001000100000001000100A7
:1002500001000000E20100000100010001000000B7
:100260000100000001000100010001000100000088
:100270000100010001000100010001000100010076
:100280000100010001000100010001000100010066
:100290000100010001000100010001000100010056
:1002A00001000100010001000100E3000000440022
:1002B000010001000100010000003A0001000100FE
:1002C0000100010001003B00010001000100005C91
:1002D000F5003C000100010001000100F4003D00B8
:1002E000010001000100010001003E0001000100C9
:1002F00001000000010001000100000001000000F9
:10030000010001000100000001000000AA003F0000
:100310000100010001000000A900400001000100EF
:100320000100F20001004100010001000100F100A4
:10033000FA004200010001000100F000F900430052
:10034000010001000100F30001004500010001006F
:1003500001000100000005010902A1018502090157
:10036000A10005091901290515002501950575014B
:10037000810295017503810105010930093115815B
:10038000257F95027508810609381581257F95011D
:1003900075088106050C0A38021581257F950175BF
:1003A000088106C0C005010980A10185031601006E
:1003B0002603001A81002A8300751095018100C070
:1003C000050C0901A1018504160100269C021A01F1
:1003D000002A9C02751095018100C005010906A143
:1003E000018505050719E029E71500250195087520
:1003F00001810205081901290595057501910295EC
:1004000001750391010507190029EF1500250195D4
:10041000F075018102C005010906A101050719E077
:1004200029E71500250195087501810295017508D8
:1004300081010508190129059505750191029501AC
:10044000750391010507190029FF150026FF009586
:100450000675088100C009023B00020100A0FA09EC
:1004600004000001030101000921110100012240E3
:10047000000705810308000A0904010001030000C8
:100480000009211101000122C0000705820320009C
:100490000A1201100100000008EDFE07130100011F
:1004A00002030104033000000016034500720067D8
:1004B000006F0044006F007800200045005A0000E3
:1004C0000016034500720067006F0044006F00785B
:1004D00000200045005A0000000403090400112414
:1004E0001FBECFEFDAE0DEBFCDBF11E0A0E0B1E08C
:1004F000ECEBF4E402C005900D92AC3BB107D9F7E8
:1005000022E0ACEBB1E001C01D92A03FB207E1F7E1
:100510000E94C1190C945C220C9400008F929F924F
:10052000AF92BF92CF92DF92EF92FF920F931F9301
:10053000CF93DF93CDB7DEB728970FB6F894DEBF21
:100540000FBECDBFFC01F080118183819481892B86
:1005500009F49EC51F3F21F40FEFF01609F498C56A
:100560006F0185E0DE01119601900D928A95E1F709
:10057000F601228189819A81222349F00E94831207
:10058000082F682F89819A810E94FC1203C00E9463
:10059000CF12082F26E0129FF001112434E5039FAB
:1005A000E00DF11D1124EF0DF11DEE0FFF1FE25ABA
:1005B000FE4F05911491F6018281063FFCE51F076D
:1005C000A1F5882309F464C51CC01092BD01F60191
:1005D00092810531FCE51F0708F40CC10C3DECE5E8
:1005E0001E0709F465C108F413C10D3D3CE513076E
:1005F00009F464C10E3D1C4509F005C2992309F4B4
:1006000047C528960FB6F894DEBF0FBECDBFDF9169
:10061000CF911F910F91FF90EF90DF90CF90BF90FF
:10062000AF909F908F900C94E511882319F1033EB1
:100630002CE51207C1F050F4013E8CE5180781F05B
:10064000023E9CE51907B1F481E010C0043EECE5E0
:100650001E0759F0053EFCE51F0761F484E006C063
:100660001092AB0205C082E001C083E08093AB0230
:100670000E944E0A17FF73C0F6018281882309F495
:100680006EC080917A028093BC0110927A028091B0
:10069000AB02813071F048F08230D1F08430F1F457
:1006A00086EE0E94DC1E88E117C082EE0E94EF1EDB
:1006B00015C08EE898E00E94161488E10E94EF1E93
:1006C00088E10E94751E8EE798E00E94161406C00D
:1006D00082EE0E94EF1E87E50E94DC1E8FE39CE9FC
:1006E0000197F1F700C000007801E894F7F85CE0AA
:1006F000A52EB12CC7010A2C02C0969587950A94A5
:10070000E2F7282F2F7041F0822F90E02A3010F46A
:100710004D9604C0069702C087E290E00E94DC1E5E
:1007200094E0A91AB108ECEFAE16EFEFBE0611F790
:100730008091AB02813039F040F0823031F084306A
:1007400051F488E206C08CE204C082EE0E94751E5D
:1007500002C00E94DC1E8091BC0180937A02003F9F
:10076000FCE51F07C1F188F4083D3CE51307D9F00B
:10077000093D8CE51807D9F1073D9CE5190709F0FB
:1007800024CF26E241EE61EE11C0023FECE51E07E8
:1007900051F128F1033F2CE5120709F016CF27E2AB
:1007A00046EE66EE03C027E245EE65EEC6012896EA
:1007B0000FB6F894DEBF0FBECDBFDF91CF911F9172
:1007C0000F91FF90EF90DF90CF90BF90AF909F90F0
:1007D0008F900C94960D26E240EE60EEE7CF27E274
:1007E00044EE64EEE3CF26E242EE62EEDFCF28E293
:1007F00041E0DBCF02302CE5120708F066C001159E
:100800003CE5130751F001301C4509F448C0FBC01A
:1008100006311C4509F4C3C0F6C0992309F438C455
:1008200010927A020E944D1E9FEFE4E3FCE091508B
:10083000E040F040E1F700C00000F89481E08093D0
:10084000E00080E28093D8001092C9008FE19EE41E
:100850000197F1F700C000001DBA109268001CBC9F
:1008600010BE1FBA10927A0010926E0010926F00A4
:1008700010927100109272001092C9001092BC0088
:1008800014B817B81AB81DB810BA1092BC0015B831
:1008900018B81BB81EB811BA0C94003FF9C39923BD
:1008A00009F4F6C38091DA0281608093DA02F0C322
:1008B000992309F4EDC31092E902EAC3992309F4DC
:1008C000E7C382E08093E902E3C3992309F49BC064
:1008D00080E090E00E94C7208D3E9E4F11F00E9464
:1008E000E51184E090E00E94BF2090E09093BE026A
:1008F0008093BD02F801E350FC45E231F10530F48C
:10090000EA5AFF4F8091BD020C9429218091BD02CB
:10091000816027C0826025C0846023C0806121C0BF
:1009200080621FC080641DC080681BC084608860B6
:1009300018C08E7F16C08D7F14C08B7F12C08F7E33
:1009400010C08F7D0EC08F7B0CC08F770AC08B7F4D
:10095000877F07C087FB222720F991E0922790FB31
:1009600087F98093BD026091BD0284E090E00E940F
:10097000CD2010927A0228960FB6F894DEBF0FBEF3
:10098000CDBFDF91CF911F910F91FF90EF90DF903E
:10099000CF90BF90AF909F908F900C944D1E809100
:1009A0007A02992389F0982F9A7A81E009F480E0FD
:1009B0008093BE01811102C069E201C065E389ED47
:1009C00091E00E94AD110BC08091BE01811102C067
:1009D00069E201C065E389ED91E00E9482112896E9
:1009E0000FB6F894DEBF0FBECDBFDF91CF911F9140
:1009F0000F91FF90EF90DF90CF90BF90AF909F90BE
:100A00008F900C943D12F60100811181992349F0D9
:100A1000C8010E948312F82E682FC8010E94FC12A0
:100A200004C0C8010E94CF12F82EB8018F2D0E9479
:100A3000540A182F382FF601258122952F70028134
:100A4000011110926E0280916C028770A9F0002350
:100A500099F080E2810F883078F082E02F83388728
:100A60009E830E94C81380916C028770EE24E394E9
:100A70002F8138859E818111E12CA92EA2944FE00F
:100A8000A422B12CFCE0AF16B10408F0CAC2F501F3
:100A9000E859FF4F0C942921892F807F9F70F92EF0
:100AA000882319F0F29480EFF8220023B9F0FF2098
:100AB00009F448C280E2810F883010F0311106C07D
:100AC00090917A02F92AF0927A0205C090916E0212
:100AD000F92AF0926E020E943D1234C2812F3887AB
:100AE0000E94751E3885FF2009F49BC2105EF094A9
:100AF000183010F0311106C090917A02F922F0926C
:100B00007A0205C090916E02F922F0926E020E9464
:100B10003D1287C2492F407F892F8F70403211F0DC
:100B20008295807F332319F03130E9F025C000230E
:100B300081F030916F02222351F0213041F4982F3F
:100B4000932B391709F46DC290936F026AC2832BFD
:100B500081C1222319F0213009F463C28E830E94DF
:100B600037128E817DC1002321F0223008F059C256
:100B700071C1211156C274C1002321F0222309F44E
:100B800069C1E0C1222309F46BC1EEC1292F26956A
:100B90002695237030E02115310521F021303105F3
:100BA00059F03FC2002319F0812F937002C080E0FA
:100BB00090E00E942C0A43C2002319F0812F937009
:100BC00002C080E090E00E94160A39C20023F9F0CA
:100BD000153F51F0163F71F0143FA9F48091BF0109
:100BE0009091C00181600BC08091BF019091C001C4
:100BF000826005C08091BF019091C0018460909394
:100C0000C0018093BF01812F0E947F101EC0153F3D
:100C100051F0163F71F0143FA9F48091BF019091FB
:100C2000C0018E7F0BC08091BF019091C0018D7F6C
:100C300005C08091BF019091C0018B7F9093C0014E
:100C40008093BF01812F0E94B50F0E944311F7C10D
:100C5000892F837009F071C00111EFC1812F829536
:100C600086958770880F880F412F4F7050E060E0A5
:100C700070E04A015B01082E04C0880C991CAA1C74
:100C8000BB1C0A94D2F714FF12C00FE010E020E062
:100C900030E004C0000F111F221F331F8A95D2F7C6
:100CA000B901A801409550956095709503C040E04A
:100CB00050E0BA01969596959370892F90E0823016
:100CC0009105E9F08330910579F10091700210915E
:100CD00071022091720230917302019759F04829F4
:100CE00059296A297B29CB01BA0160237123822308
:100CF000932320C0802A912AA22AB32A15C048290A
:100D000059296A297B298091700290917102A091E2
:100D10007202B09173028A019B01082719272A27C2
:100D20003B27C901B80106C0CB01BA01682979295E
:100D30008A299B290E94021480C1002319F0892F5F
:100D4000817001C08695882309F477C1812F82952F
:100D500086958770880F880F412F4F7050E060E0B4
:100D600070E04A015B01082E04C0880C991CAA1C83
:100D7000BB1C0A94D2F714FF12C00FE010E020E071
:100D800030E004C0000F111F221F331F8A95D2F7D5
:100D9000B901A801409550956095709503C040E059
:100DA00050E0BA01969596959370892F90E0823025
:100DB0009105E9F08330910579F100916802109175
:100DC000690220916A0230916B02019759F048291B
:100DD00059296A297B29CB01BA0160237123822317
:100DE000932320C0802A912AA22AB32A15C0482919
:100DF00059296A297B298091680290916902A09102
:100E00006A02B0916B028A019B01082719272A27E1
:100E10003B27C901B80106C0CB01BA01682979296D
:100E20008A299B290E942C1308C1412F50E0FA0106
:100E3000E05EF109E531F10508F07FC0EC58FF4FA5
:100E40000C9429211F70892F8F71002331F00E948B
:100E5000E113812F0E946B1EE4C00E94A313812F17
:100E60000E94601EDEC0002311F12111DAC0292F7B
:100E70002F7181E090E0A0E0B0E0AC01BD0104C0C2
:100E8000440F551F661F771F2A95D2F7809168027D
:100E900090916902A0916A02B0916B028A019B0154
:100EA000082719272A273B27C901B80125C0223066
:100EB00008F0B7C0DCCF002329F0892F8F712EC036
:100EC0000023D9F3892F8F710E94A313AAC0002396
:100ED00081F0292F2F7181E090E0A0E0B0E0BC010B
:100EE000CD0104C0660F771F881F991F2A95D2F77E
:100EF00003C060E070E0CB010E942C1392C000237D
:100F000081F0192F1F71812F0E94E11328E0129F99
:100F1000C0011124836080936C02812F0E94E11331
:100F200080C081E02F830E94C8132F81223008F4F3
:100F300078C082E00E94C81374C0002339F02223D5
:100F400009F4BBCF812F0E94EF1E6BC0222309F44E
:100F5000B9CF193349F43FEF83EC99E03150804029
:100F60009040E1F700C00000812F0E94751E59C01B
:100F7000323FB1F028F4303F49F0313FF9F028C05A
:100F8000343FB9F058F0353F71F022C0002309F426
:100F900056C09091EB0281E0892708C081E00827C4
:100FA0000093EB024CC001114AC081E08093EB0238
:100FB00046C0011144C01092EB0241C0002329F049
:100FC0008091EA02882329F329C0222311F337C034
:100FD0008091EA022223C1F0882341F09091EB0234
:100FE00081E089278093EB021092EA02812F00238F
:100FF00019F00E94EF1E23C00E94751E86E0F601C4
:1010000011928A95E9F71BC08823C9F0011117C016
:101010009091EB0281E089278093EB021092EA0223
:101020000EC0F8E0AF16B10441F04CF01AE0A11A7E
:10103000B10822E0A216B10410F40E94420AEE2088
:1010400039F180916C0280FD23C0F60112828595F2
:10105000859585950E94E113C6010E948E028091BC
:101060006C0285958595859528960FB6F894DEBF18
:101070000FBECDBFDF91CF911F910F91FF90EF90E9
:10108000DF90CF90BF90AF909F908F900C94A31360
:1010900028960FB6F894DEBF0FBECDBFDF91CF917B
:1010A0001F910F91FF90EF90DF90CF90BF90AF9086
:1010B0009F908F9008959091BD0292FF0DC0282FB0
:1010C0002871283019F4877F846006C0282F247186
:1010D000243011F48B7F886093FF0DC0282F287176
:1010E000283119F4877E846106C0282F24712431A9
:1010F00011F48B7E886194FD877E0895282F2770D8
:1011000081E090E001C0880F2A95EAF780959091E0
:101110006E02892380936E020C943D12282F277053
:1011200081E090E001C0880F2A95EAF790916E0265
:10113000892B80936E020C943D12CF93E82F873059
:1011400080F58091070190910801892B09F047C033
:10115000CE2F64E670E080E40E940F209093080197
:1011600080930701892BD1F464E670E082E10E944C
:1011700066209093080180930701892B79F481E020
:1011800090E001C0880FCA95EAF764E670E08095A8
:101190000E9466209093080180930701CF910C94E0
:1011A000BB2090E0FC013797E730F105C0F4E7572A
:1011B000FF4F0C942921209A289811C0219A299830
:1011C0000EC0229A2A980BC0239A2B9808C0529AD4
:1011D0005A9805C0539A5B9802C03E9A4698CF91A0
:1011E0000895CF93873008F03FC080910701909118
:1011F0000801892B09F041C064E670E080E40E9498
:101200000F209093080180930701892B11F0C0E013
:1012100027C064E670E083E10E9466209093080195
:1012200080930701892B99F764E670E081E40E94BE
:101230000F209093080180930701892B41F784E6E2
:1012400090E00E94962097FF05C09093080180933C
:101250000701DDCFC82FC095109208011092070139
:101260000E94BB208C2F0AC09FB18FB1807F8695D2
:1012700086959370892B809501C080E0CF91089569
:10128000EF92FF920F931F93CF93DF93CDB7DEB70B
:1012900067970FB6F894DEBF0FBECDBF4B8B5C8B4C
:1012A0006D8B7E8B8F8B0E891F8901151105C1F106
:1012B0005F3F11F44F3FA1F1E42EF12CA1E0B0E02B
:1012C000042E01C0AA0F0A94EAF7852F90E0662346
:1012D00019F02091EB0206C09C0125533E4FF90105
:1012E00020812A232223A9F046E0489F9001499FAC
:1012F000300D1124F701E20FF31FEE0FFF1FED5E1B
:10130000FE4F40815181FC01E553FE4F9081A92B96
:1013100006C0FC01E553FE4FA0958081A823A08361
:1013200086E0FE013D96DF01982F1D929A95E9F720
:101330004D875E876F87198B088BDE0117960190AA
:101340000D928A95E1F7CE0107960E94681C8111E3
:1013500037C086E0FE013796DE01119601900D92AE
:101360008A95E1F7FF81E8856A857B8561157105BE
:1013700039F1EF3F11F4FF3F19F12091FF0130E007
:10138000C9010196877099274091300250E0841777
:10139000950779F1F983EA837D836C8396E0929FC8
:1013A000D001939FB00D1124A050BE4FFE01319685
:1013B00001900D929A95E1F78093FF010E940C1421
:1013C00016E0809130029091FF01891711F1189F6A
:1013D000C001112480509E4F0E94681C8823C9F0D0
:1013E0008091300290E001968770992780933002B7
:1013F000E8CF10927A020E944D1E1092FF011092C7
:101400003002E9EFF1E086E0DF011D928A95E9F70D
:10141000D7CF67960FB6F894DEBF0FBECDBFDF9172
:10142000CF911F910F91FF90EF9008952091C901E6
:101430003091CA018217930771F09093CA0180938B
:10144000C901E091BF02F091C002309721F0008401
:10145000F185E02D099408952091C7013091C801CC
:101460008217930771F09093C8018093C701E091B0
:10147000BF02F091C002309721F00680F781E02D85
:1014800009940895E091BF02F091C002309721F0D5
:101490000190F081E02D099480E008956091AB0205
:1014A0008CE090E00C94CD20CF93DF9326E0729FE8
:1014B000F001112434E5839FE00DF11D1124E60FA6
:1014C000F11DEE0FFF1FE25AFE4FC591D491CE01E0
:1014D000C238D10549F1B0F4C133D10509F464C073
:1014E00048F4C932D10509F458C0CA32D10509F40B
:1014F00062C068C0C533D10509F448C0C933D105FD
:1015000099F060C0C33ED10541F138F4C03ED10529
:1015100091F0C23ED105B1F055C0C63ED10521F1D2
:10152000C73ED10561F14EC02091BD0220FD14C21D
:1015300021FD12C213C22091BD0220FF0FC289E318
:1015400090E00CC22091BD0222FF08C28091BD0232
:1015500084FDB4C183EE90E001C28091BD0282FFA0
:10156000F5CF82EE90E0FAC12091BD0223FFF6C1D3
:101570008091BD0284FDA2C187EE90E0EFC1809111
:10158000BD0283FFF5CF86EE90E0E8C12091BD0259
:1015900025FFE4C189E290E0E1C12091BD0225FF71
:1015A000DDC185E390E0DAC12091BD0226FFD6C1FE
:1015B0008AE290E0D3C12091BD0226FFCFC181E332
:1015C00090E0CCC1C11520E5D20708F047C0C11595
:1015D00030E4D30708F034C1C83ED10518F5C03E49
:1015E000D10508F0BBC1C83AD10570F4C53AD105A0
:1015F00008F0B0C0C130D10509F4B0C108F45EC133
:10160000249708F45BC1AAC1CF3BD10508F4ADC053
:10161000C03CD10508F452C1FE01EE0FFF1FEA5293
:10162000FE4F02C1C11520E2D20760F4C11531E0BE
:10163000D30708F093C1C03FD10508F43FC1CE01E4
:1016400090658CC1C11580E3D80708F0F0C0FE0199
:10165000FF70EE0FFF1FEA5AFC4FE6C0C11595E57B
:10166000D90708F044C0C11524E5D20708F000C12D
:10167000C11532E5D30710F5C11581E5D80708F08B
:10168000E3C02C2F237081E090E002C0880F991FE7
:101690002A95E2F79C689E0174E0369527957A9525
:1016A000E1F72370922BEC2FEF70E695E69530E290
:1016B000E39FF00111248E2B9F2B50C18C2F869518
:1016C0008695AE0143705527C115D34508F0C1C0BA
:1016D00090E2899F9001112481E090E002C0880F80
:1016E000991F4A95E2F7822B932B9C6837C1C1154D
:1016F0002AE5D207A0F4C11539E5D30708F0C6C022
:10170000C11586E5D80708F4B8C0C11598E5D90712
:1017100008F4D4C09C2F8827806F906A1FC1C11520
:101720002BE5D20708F4CAC0CE01C1153CE5D307AA
:1017300008F4C1C090568115904208F0BFC08D2FAB
:101740008F710E945B08FE01FF27F0628F719F017D
:10175000382BAFC0C53AD10509F4B3C0C63AD1059C
:1017600009F0B2C082E890E4F9C0C83AD10509F4A2
:10177000AEC0C93AD10509F4ADC0CA3AD10509F4E1
:10178000ACC0CB3AD10509F4ABC0CC3AD10509F4D1
:10179000AAC0CB3BD10509F4A9C0CC3BD10509F4C3
:1017A000A8C0CD3AD10509F4A7C0C03BD10509F4C2
:1017B000A6C0CE3AD10509F4A5C0CF3AD10509F4A7
:1017C000A4C0C13BD10509F4A3C0C23BD10509F4B3
:1017D000A2C0C33BD10509F4A1C0C43BD10509F4A3
:1017E000A0C0C53BD10509F49FC0C63BD10509F493
:1017F0009EC0C73BD10509F49DC0C83BD10509F483
:101800009CC0C93BD10509F49BC0CD3BD10509F46F
:101810009AC0CE3BD10509F499C0CA3BD10509F461
:1018200098C080E094E49AC08591949197C09E01FD
:101830003327C901D3FF02C0986C90C0906C8EC052
:10184000CE019F70906A8AC09C2F8827816F906A12
:1018500085C090E2899F9001112481E090E002C050
:10186000880F991F4A95E2F7822B932B9A6876C0CE
:101870009C2F8827846F906A71C08C2F0E945B0810
:101880008F7190E0982F8827906268C08C2F8F709E
:101890000E945B08FE0194E0F695E7959A95E1F7C2
:1018A000EF70F0E0FE2FEE27F06A8F70806E9F01E0
:1018B000282BC90153C09927906650C080E090E062
:1018C0004DC081E890E44AC083E890E447C082EECE
:1018D00094E444C089EE94E441C08AEE94E43EC0AE
:1018E00085EB94E43BC086EB94E438C083EB94E44E
:1018F00035C084EB94E432C087EB94E42FC08CECC9
:1019000094E42CC08DEC94E429C083E895E426C0CF
:101910008AE895E423C082E995E420C084E995E44F
:101920001DC081E296E41AC083E296E417C084E207
:1019300096E414C085E296E411C086E296E40EC0F7
:1019400087E296E40BC08FE694E408C080E794E455
:1019500005C08AE296E402C080EE90E0DF91CF916C
:10196000089580E290E090930801809307018091B0
:10197000C40181110EC00E94092081E08093C4013E
:101980002FEF83ED90E3215080409040E1F700C0BD
:10199000000064E670E080E40E940F20909308014C
:1019A00080930701892B09F04EC064E670E080E067
:1019B0000E9466209093080180930701892B09F00B
:1019C00042C064E670E080E00E94662090930801C7
:1019D00080930701892BB9F564E670E08FE30E94DC
:1019E00066209093080180930701892B61F50E947E
:1019F000BB2064E670E080E40E940F209093080111
:101A000080930701892BF9F464E670E08CE00E9472
:101A100066209093080180930701892BA1F464E666
:101A200070E080E00E946620909308018093070197
:101A3000892B49F464E670E08FE30E94662090935E
:101A40000801809307010E94BB208091070108953F
:101A500056985E9825982D9826982E9827982F9816
:101A60008FEF90E0909389008093880090938B0093
:101A700080938A0090938D0080938C00259A2D9AF4
:101A80002FEF80E792E0215080409040E1F700C0C6
:101A90000000269A2E9A2FEF80E792E02150804096
:101AA0009040E1F700C00000279A2F9A2FEF80E7BF
:101AB00092E0215080409040E1F700C0000025985E
:101AC0002D982FEF80E792E0215080409040E1F781
:101AD00000C0000026982E982FEF80E792E021505A
:101AE00080409040E1F700C0000027982F9856985A
:101AF0005E9825982D9826982E9827982F980895C7
:101B000084B1807F84B985B1807F85B98AB1837FB4
:101B10008AB98BB1837F8BB93E984698089580B37C
:101B20008C7080BB81B3836F81BB08950F931F932B
:101B3000CF93DF93C62FD42F022FFC0182818823FD
:101B4000C9F06093BD010E9437119093C601809344
:101B5000C50180E28C0F883008F050C0C77081E06A
:101B600001C0880FCA95EAF7DF91CF911F910F91BD
:101B70000C946B1E1091BD01161330C08091C501ED
:101B80009091C6010E940D11883C910538F5C0E284
:101B9000CD0F1D17B9F080E2810F883040F4177027
:101BA00081E001C0880F1A95EAF70E94601EC830D4
:101BB00048F481E09D2F977001C0880F9A95EAF74D
:101BC0000E946B1E802F0E94DC1EC830B8F4D770B4
:101BD00081E001C0880FDA95EAF70AC080E28C0F35
:101BE000883060F4C77081E001C0880FCA95EAF7B9
:101BF000DF91CF911F910F910C94601EDF91CF91D7
:101C00001F910F9108959F92AF92BF92CF92DF9252
:101C1000EF92FF920F931F93CF93DF938091070171
:101C200090910801892B91F08091C3018F5F80937F
:101C3000C30181110BC00E94B10C90E09093080188
:101C400080930701892B11F40E94280D0FEA12E0FE
:101C500026EBE22E22E0F22E6801C0E0912C97E004
:101C6000A92EAC0E8C2F0E949D088A2D0E949D08E3
:101C70008C2F0E94F108F6019081981721F0808343
:101C8000BB24B39401C0B12C8A2D0E94F108F70146
:101C90009081981719F0808381E001C080E0B82A14
:101CA0009B280E94800DCF5FFFEFCF1ADF0A8FEFD6
:101CB000E81AF80AC73099F60E9437116AEF70E007
:101CC0000E9401219C01682F8091C2018823E9F1C3
:101CD0001092C201E091A902F091AA02DF011E96C2
:101CE00090E07BEF8AEFE82EF12C80818B3FA9F00A
:101CF000482F50E0681728F0E901C41BD50BAE014E
:101D000006C06701C41AD50AA601420F531F4F30FF
:101D1000510514F0708301C091E03196EA17FB077A
:101D200021F79093C201911002C0911110C010923E
:101D3000C101A091A902B091AA029091C201E2EC66
:101D4000F2E080E03EE03E0F07C09110F0CF8091BE
:101D5000C1018111ECCF16C0E80129918E014081AB
:101D6000421741F04C914B3F21F46C93208391E05A
:101D700001C081E0119631963E13EECF9093C201DF
:101D80008093C101892DDF91CF911F910F91FF9019
:101D9000EF90DF90CF90BF90AF909F90089580918B
:101DA0007C020895CF93DF9300D01F92CDB7DEB7AA
:101DB00020919F02243031F523E029838058910936
:101DC0009B838A8382E08093E9008FEF9091E80003
:101DD000815095FD06C095ED9A95F1F700008111AF
:101DE000F5CF8091E80085FF0DC040E050E063E052
:101DF00070E0CE0101960E9421148091E8008E7758
:101E00008093E8000F900F900F90DF91CF9108958D
:101E10000F931F93CF93DF9300D01F92CDB7DEB700
:101E20008C010E94B519823011F0843021F584E0D4
:101E300089831B830A8382E08093E9008FEF90916E
:101E4000E800815095FD06C095ED9A95F1F70000E8
:101E50008111F5CF8091E80085FF0DC040E050E092
:101E600063E070E0CE0101960E9421148091E800A9
:101E70008E778093E8000F900F900F90DF91CF91B5
:101E80001F910F910895CF93DF93EC010E94B51934
:101E9000823011F08430F9F482E08093E9009FEF02
:101EA0008091E800915085FD06C085ED8A95F1F797
:101EB00000009111F5CF8091E80085FF0CC040E053
:101EC00050E066E070E0CE010E9421148091E800AD
:101ED0008E778093E800DF91CF910895CF93DF93C1
:101EE000EC010E94B519823011F08430D9F580914F
:101EF0000601882339F08091BD0287FF03C060E2AC
:101F000082E002C068E081E08093E9008FEF909169
:101F1000E800815095FD06C095ED9A95F1F7000017
:101F20008111F5CF8091E80085FF1CC080910601EA
:101F3000811105C040E050E068E070E003C070E04F
:101F400040E050E0CE010E9421148091E8008E779D
:101F50008093E80080E2FE01ADE7B2E001900D92CF
:101F60008A95E1F7DF91CF910895803F39F4809110
:101F7000D30287FF6CC01092D30269C0813F29F45D
:101F80008091D3021816BCF362C09091D202823FB6
:101F900029F497FF5CC01092D20259C0833F19F414
:101FA0001916CCF354C0893F41F48091D40218161D
:101FB0000CF04DC01092D4024AC08A3F29F480919F
:101FC000D40287FF44C0F6CF8B3F39F48091D5020D
:101FD00087FF3DC01092D5023AC08C3F29F4809112
:101FE000D5021816BCF333C0843F21F48091D1028E
:101FF0008E7F17C0853F21F48091D1028D7F11C063
:10200000863F21F48091D1028B7F0BC0873F21F462
:102010008091D102877F05C0883F31F48091D10241
:102020008F7E8093D10213C08D3F21F4809178027E
:102030008E7F0BC08E3F21F4809178028D7F05C08A
:102040008F3F29F4809178028B7F80937802809172
:10205000D20281110EC08091D30281110AC08091F9
:10206000D402811106C08091D502811102C0109264
:10207000D60208958091780280FD16C081FD16C0B9
:1020800082FD18C08091D602882391F0883290F4A6
:1020900028E0829FC001112468E270E00E941521AF
:1020A000862F672B29F007C082E0089584E0089509
:1020B00081E0089588E008958091780280FD17C03E
:1020C00081FD17C082FD19C08091D602882399F046
:1020D0008C3398F423E2829FC00111246CE370E0FA
:1020E0000E941521862F672B49F481E0089588E02E
:1020F000089581E1089585E0089583E20895803F81
:1021000021F40E945C10819504C0813F29F40E9453
:102110005C108093D3020895823F21F40E945C10EA
:10212000819504C0833F29F40E945C108093D20201
:102130000895893F19F40E943A1005C08A3F31F48E
:102140000E943A1081958093D40208958B3F21F428
:102150000E943A10819504C08C3F29F40E943A10E5
:102160008093D5020895843F21F48091D10281604B
:1021700017C0853F21F48091D102826011C0863F53
:1021800021F48091D10284600BC0873F21F48091BB
:10219000D102886005C0883F31F48091D10280610E
:1021A0008093D10208958D3F21F48091780281605F
:1021B0000BC08E3F21F480917802826005C08F3F72
:1021C00029F480917802846080937802089578944D
:1021D0001F920F920FB60F9211248F939F93AF937C
:1021E000BF938091740290917502A0917602B09194
:1021F00077020196A11DB11D809374029093750220
:10220000A0937602B0937702BF91AF919F918F9187
:102210000F900FBE0F901F901895CF92DF92EF9204
:10222000FF920F931F932FB7F8944091740250912F
:10223000750260917602709177022FBF6A017B016F
:10224000EE24FF248C0120E030E0C016D106E20627
:10225000F30610F4415051099A01281B390BC901AA
:102260001F910F91FF90EF90DF90CF9008952FB7BF
:10227000F8948091740290917502A0917602B091C9
:1022800077022FBF0895E091BF02F091C00230970E
:1022900049F082E08093D0020480F581E02D80ED4A
:1022A00092E009950E9437119093D8028093D7024B
:1022B00008951F920F920FB60F9211248F939F9340
:1022C000AF93BF938091C102811113C080917402BA
:1022D00090917502A0917602B09177024196A11D6E
:1022E000B11D8093740290937502A0937602B0930F
:1022F0007702BF91AF919F918F910F900FBE0F907A
:102300001F90189520910601222321F02091BD02F3
:1023100027FD04C0FC013296089619C0262F269589
:10232000269526952E31C0F4FC01E20FF11D677051
:1023300081E090E001C0880F6A95EAF7809592816C
:102340008923828308953196E817F90729F02081BF
:102350002613F9CF1082F7CF08952091060122238A
:1023600021F02091BD0227FD05C0FC0132962FEF20
:1023700030E019C0262F2695269526952E3120F57A
:10238000FC01E20FF11D677081E090E001C0880F51
:102390006A95EAF79281892B828308952F3F39F05D
:1023A0003F5F363041F041914613F8CF0DC04111E7
:1023B000F7CF232FF5CF2F3F39F0FC01E20FF11DAE
:1023C00027FDFA956283089508956DEE7EEF80E013
:1023D00090E00E94EB2060E082E090E00E94CD203F
:1023E00060E083E090E00E94CD2010927002109295
:1023F0007102109272021092730260E084E090E029
:102400000E94CD2060E085E090E00E94CD2060E059
:1024100086E090E00E94CD206FEF87E090E00E9480
:10242000CD2040E050E0BA0188E090E00E94DF203B
:1024300060E08DE090E00E94CD2040E050E0BA01E5
:1024400088E190E00E94DF2060E087E190E00E9458
:10245000CD2040E050E0BA018FE090E00E94DF2004
:1024600040E050E0BA0183E190E00C94DF208091DD
:102470006F02811110926F02089590916E02809107
:102480007A02892B20916D02982F922B9093D9017B
:1024900080916F028823D9F0892B8093D901809194
:1024A0000601882331F08091BD0287FF02C08EE1D2
:1024B00001C086E0EBEDF1E090E0815028F0219141
:1024C0002223D9F39F5FF9CF91110E943712E09137
:1024D000BF02F091C0023097A9F0809106018823D5
:1024E00059F08091BD0287FF07C08091D901809388
:1024F000DA0185E08093D9010280F381E02D89ED36
:1025000091E009940895BF92CF92DF92EF92FF92EB
:102510000F931F93CF93DF938C01C0907002D090E4
:102520007102E0907202F0907302809168029091C3
:102530006902A0916A02B0916B02C82AD92AEA2ADC
:10254000FB2ACFE1D0E0D701C6010C2E04C0B6951E
:10255000A795979587950A94D2F780FF07C0BC2E60
:10256000B8018C2F0E94540A019719F4219758F74B
:10257000B12C8B2DDF91CF911F910F91FF90EF9098
:10258000DF90CF90BF900895CF93DF93EC010E942E
:102590008312BE010E94540ADF91CF910895292F22
:1025A000220F920F990F890F682F66956695669591
:1025B000982F977085E0689FB001112440E050E0AB
:1025C00080E0FA01E60FF71FEF5CFD4F208130E05D
:1025D000092E02C0369527950A94E2F72170332719
:1025E000042E01C0220F0A94EAF7822B4F5F5F4F3F
:1025F0004530510531F70895292F220F920F990F79
:10260000890FA82FA695A695A695877051E001C0C1
:10261000550F8A95EAF785E0A89FD001112420E0A4
:1026200030E070E0F901EA0FFB1FEF5CFD4F4081E5
:10263000CB01022E02C0969587950A94E2F781702D
:102640009927819584278523842780832F5F3F4F97
:102650002530310539F708950F931F93AB01BC0165
:10266000CB01AA27BB270097A105B10511F0E0E136
:1026700003C0DB01CA01E0E0092F1A2F2B2F3327FB
:10268000011511052105310519F0E85FD901C801CF
:102690008C019D01F4E03695279517950795FA95DD
:1026A000D1F7011511052105310519F0EC5FD901AC
:1026B000C8018C019D01F2E0369527951795079585
:1026C000FA95D1F7011511052105310519F0EE5FD5
:1026D000D901C801B695A79597958795892B8A2B1F
:1026E0008B2B09F0EF5F56985E9825982D982698C9
:1026F0002E9827982F988E2F90E0FC013197E73085
:10270000F105A8F4E057FF4F0C942921259A2D9A42
:102710000EC0259A2D9A269A2E9A09C0259A2D9A8E
:1027200004C0259A2D9A269A2E9A279A2F9A40937A
:1027300068025093690260936A0270936B021F9162
:102740000F910C94321E0F931F9341E050E060E014
:1027500070E004C0440F551F661F771F8A95D2F79B
:1027600040955095609570958091680290916902AE
:10277000A0916A02B0916B028A019B010823192380
:102780002A233B23C901B8011F910F910C942C13EC
:1027900020916C028095822380936C02982F977011
:1027A00079F430E0482F082E000C550B241735071C
:1027B00039F08595859585950E94A31310926C023A
:1027C00008950F931F9341E050E060E070E004C073
:1027D000440F551F661F771F8A95D2F780916802B4
:1027E00090916902A0916A02B0916B028A019B01EB
:1027F000082B192B2A2B3B2BC901B8011F910F91D4
:102800000C942C1360937002709371028093720287
:10281000909373020C94321E809130029091FF01CC
:10282000891719F08F5F8770FBCF0895CF93DF93DF
:10283000EC0180EEFE01099581EEFE01DF91CF9162
:102840000994CF92DF92FF920F931F93CF93DF9360
:102850001F92CDB7DEB7F82E8B0199830E94CC185A
:10286000998181111CC0CF2CD92E01151105B1F011
:102870008091E80085FD0AC08091E8008E77809302
:10288000E8000E94CC18882381F309C0F6018191E9
:102890006F018093F10001501109E7CF80E00F90A4
:1028A000DF91CF911F910F91FF90DF90CF9008950E
:1028B0001F93CF93DF93CDB7DEB7AA970FB6F894E7
:1028C000DEBF0FBECDBFE1EAF2E088E08E0F90914F
:1028D000F10091938E13FBCF8091A202833009F413
:1028E00060C030F4813071F0823009F49CC0B3C014
:1028F0008A3009F488C08B3009F46BC0893009F044
:10290000AAC020C08091A102813A09F0A4C08091A0
:10291000E800877F8093E8008091A5029091A6024D
:10292000892B21F460E28DE792E003C060E080E053
:1029300090E070E00E9452198091E8008B778093BC
:10294000E80089C08091A102813209F084C08091A1
:10295000A5029091A602029708F07DC08091E80040
:10296000877F8093E8008091E80082FD05C0809118
:102970009F028111F8CF6FC02091F3008091F20087
:1029800090E0922B029729F48091F1008B7F8130A7
:1029900021F48091F10080937C028091E8008B7794
:1029A00056C08091A102813A09F055C08091A502DC
:1029B0009091A602892B09F04EC08091E800877F94
:1029C0008093E8008091E80080FFFCCF80910601B1
:1029D00039C08091A1028132F1F58091A5029091D8
:1029E000A602892BC1F58091E800877F8093E800DB
:1029F0000E94FE188091A3028093060110927A0231
:102A00000E944D1E28C08091A102813221F5809143
:102A1000E800877F8093E8000E94FE188091A4025E
:102A200080937B0218C08091A102813AA1F4809129
:102A3000E800877F8093E8008091E80080FFFCCF6A
:102A400080917B028093F1008091E8008E778093E3
:102A5000E8000E94FE188091E80083FFD6C18091B3
:102A6000A1029091A202492F50E04A30510508F08E
:102A7000CCC1FA01E956FF4F0C942921803821F08E
:102A8000823809F0C2C108C080919D0290919E02D7
:102A9000992389F082600FC08091A5028F708730E2
:102AA00008F0B3C18093E9008091EB0085FB882793
:102AB00080F91092E9009091E800977F9093E800E8
:102AC0008093F1001092F10074C1282F2D7F09F03E
:102AD0009CC1882319F0823061F097C18091A302D4
:102AE000813009F092C1933009F080E080939E021A
:102AF0002EC08091A30281112AC08091A5028F70FF
:102B00002FEF280F263008F080C18093E900209134
:102B1000EB0020FF1CC0933021F48091EB00806219
:102B200014C09091EB0090619093EB0021E030E0B5
:102B3000A90102C0440F551F8A95E2F74093EA00AD
:102B40001092EA008091EB0088608093EB00109275
:102B5000E9008091E800877F2FC1811156C1109153
:102B6000A3021F778091E3008078812B8093E3009C
:102B70008091E800877F8093E8000E94FE18809192
:102B8000E80080FFFCCF8091E30080688093E30041
:102B9000111102C082E001C083E080939F0235C121
:102BA0008058823008F031C18091A3029091A40234
:102BB0008C3D53E0950779F583E08A838AE2898327
:102BC0004FB7F894DE01139620E03EE051E2E32F88
:102BD000F0E050935700E49120FF03C0E295EF70BE
:102BE0003F5FEF708E2F90E0EA3010F0C79601C083
:102BF000C0968D939D932F5F243149F74FBF8091ED
:102C0000E800877F8093E8006AE270E0CE010196D9
:102C10000E945219BDC04091A5025091A602292FD1
:102C2000332723303105B9F06CF42130310509F434
:102C3000FBC02230310509F0E8C08BE390E0E6E507
:102C4000F4E054C02132310509F433C02232310599
:102C500009F43CC0DAC0992781309105D1F05CF4C9
:102C6000892B09F0D2C0E9EDF4E0E4918E2F90E0D9
:102C7000E9EDF4E038C08230910599F0039709F04E
:102C8000C4C0E3EAF4E0E4918E2F90E0E3EAF4E0DC
:102C90002AC0E1ECF4E0E4918E2F90E0E1ECF4E066
:102CA00022C0E9EAF4E0E4918E2F90E0E9EAF4E052
:102CB0001AC04115510509F4BCC04130510509F055
:102CC000A4C089E090E0E1E8F4E010C041155105AE
:102CD00009F4B4C04130510509F097C080EC90E090
:102CE000E6E5F3E003C0009709F48FC02091E80007
:102CF000277F2093E8002091A7023091A80228178F
:102D0000390708F4C90140E0009789F120919F023A
:102D1000222309F43DC02530D9F12091E80023FD9C
:102D200037C02091E80022FD2FC02091E80020FF4D
:102D3000EBCF4091F3002091F20030E0342B00976C
:102D400059F02830310540F444914093F100319618
:102D500001972F5F3F4FF3CF41E02830310509F055
:102D600040E02091E8002E772093E800CDCF41117C
:102D7000CDCF0AC080919F02882351F0853041F069
:102D80008091E80083FD04C08091E80082FFF2CFCB
:102D90008091E8008B778093E80037C08038A9F5F0
:102DA0008091E800877F8093E8008091A002809363
:102DB000F1008091E8008E778093E8000E94FE1871
:102DC00024C0811122C01091A3021230F0F480912E
:102DD000E800877F8093E8001093A0020E94FE180D
:102DE000111106C08091E30087FD02C081E001C09F
:102DF00084E080939F0242E061EC81E00E941D1913
:102E000042E261EC82E00E941D198091E80083FF9C
:102E10001AC08091E800877F8093E8008091EB00E2
:102E200080628093EB000FC082E190E0E1E9F4E082
:102E30005DCF89E090E0E8E6F4E058CF80E490E0F0
:102E4000E6E1F4E053CFAA960FB6F894DEBF0FBECA
:102E5000CDBFDF91CF911F9108951F920F920FB6B2
:102E60000F9211242F933F934F935F936F937F9310
:102E70008F939F93AF93BF93CF93DF93EF93FF9382
:102E8000C091E900CF708091EC00D82FD17080FD07
:102E9000D0E81092E9008091F000877F8093F000E5
:102EA00078940E9458141092E9008091F000886094
:102EB0008093F000CD2BCF70C093E900FF91EF918C
:102EC000DF91CF91BF91AF919F918F917F916F9142
:102ED0005F914F913F912F910F900FBE0F901F90D8
:102EE0001895E8EDF0E080818E7F80831092E200FB
:102EF0001092DA001092E100A0EEB0E08C918160B7
:102F00008C9380818F77808319BCA7EDB0E08C9182
:102F10008E7F8C9380818F7E8083109279020895BA
:102F2000CF92DF92EF92FF920F931F93CF93DF9395
:102F3000C8EDD0E088818F7E8883E7EDF0E0808166
:102F40008160808384E082BF81E080937902888100
:102F50008E7F888302EE10E0F80110821092DA0072
:102F600081EEC82ED12CF601108288818F7788835C
:102F700088818068888388818F7D888319BC1092BE
:102F80009F021092A00210929E0210929D0290EE5B
:102F9000E92EF12CF70180818B7F8083888181600D
:102FA000888342E060E080E00E941D19F601808184
:102FB0008E7F8083F801808181608083808188603A
:102FC0008083F70180818E7F808388818061888300
:102FD000DF91CF911F910F91FF90EF90DF90CF90F5
:102FE00008951F920F920FB60F9211242F933F93C3
:102FF0004F935F936F937F938F939F93AF93BF9301
:10300000EF93FF938091E10082FF09C08091E2007D
:1030100082FF05C08091E1008B7F8093E100809169
:10302000DA0080FF2AC08091D80080FF26C08091FE
:10303000DA008E7F8093DA008091D90080FF18C07B
:1030400080E189BD82E189BD09B400FEFDCF81E048
:1030500080939F028091790281110FC00E947117A5
:103060000E9490178091E20084608093E20005C086
:1030700019BC10929F02109279028091E10080FFAA
:1030800017C08091E20080FF13C08091E2008E7F24
:103090008093E2008091E20080618093E200809161
:1030A000D80080628093D80019BC85E080939F028D
:1030B0008091E10084FF34C08091E20084FF30C041
:1030C00080E189BD82E189BD09B400FEFDCF809118
:1030D000D8008F7D8093D8008091E1008F7E80930F
:1030E000E1008091E2008F7E8093E2008091E20017
:1030F00081608093E2008091A002882311F084E037
:1031000007C08091E30087FD02C081E001C083E039
:1031100080939F0210927A020E944D1E0E94420AE2
:103120008091E10083FF27C08091E20083FF23C0EC
:103130008091E100877F8093E10082E080939F028D
:103140001092A0028091E1008E7F8093E100809137
:10315000E2008E7F8093E2008091E20080618093A4
:10316000E20042E060E080E00E941D198091F000E2
:1031700088608093F000FF91EF91BF91AF919F9194
:103180008F917F916F915F914F913F912F910F9010
:103190000FBE0F901F9018952091E4003091E5002C
:1031A00095E64091EC00842F817040FF22C0809111
:1031B000E80080FD1CC080919F02882391F085303B
:1031C00091F08091EB0085FD10C04091E40050919A
:1031D000E5004217530729F39A01915011F784E053
:1031E000089582E0089583E0089581E0089580E0E5
:1031F00008954091E80042FFDECF08958091A1023A
:1032000087FF11C08091E80082FD05C080919F0278
:103210008111F8CF11C08091E8008B770BC08091AD
:103220009F02882349F08091E80080FFF8CF8091C9
:10323000E8008E778093E8000895982F973058F52E
:103240009093E900981739F07091EC002091ED000F
:103250005091F00003C0242F762F50E021FF19C0B9
:103260003091EB003E7F3093EB003091ED003D7FDD
:103270003093ED003091EB0031603093EB007093B0
:10328000EC002093ED005093F0002091EE0027FF1A
:1032900007C09F5FD3CF8F708093E90081E00895CE
:1032A00080E008952091A7023091A80226173707E1
:1032B00048F06115710539F42091E8002E772093CC
:1032C000E80001C0B90140E061157105A9F1209144
:1032D0009F02222309F443C0253009F442C0209103
:1032E000E80023FD40C02091E80022FD32C020917B
:1032F000E80020FFE9CF4091F3002091F20030E098
:10330000342BFC01CF016115710559F028303105CE
:1033100040F481918093F100615071092F5F3F4F1C
:10332000F1CF41E02830310509F040E02091E8007C
:103330002E772093E800C8CF4111C9CF0AC08091F1
:103340009F02882361F0853061F08091E80083FD61
:103350000AC08091E80082FFF2CF80E0089582E009
:10336000089583E0089581E008958091E902811134
:1033700007C080919F02843011F081E0089582E0BF
:103380000895CF93DF93CDB7DEB72A970FB6F894A1
:10339000DEBF0FBECDBF84B7877F84BF0FB6F89462
:1033A000A895809160008861809360001092600011
:1033B0000FBE80E8809361001092610085B780683D
:1033C00085BF85B7806885BF0E9471170E949017DE
:1033D0008091E20084608093E200789480919F0263
:1033E0008823A1F01091E9001F709091EC00892FC3
:1033F000817090FD80E8182B1092E9008091E80020
:1034000083FD0E9458141F701093E90082E084BD70
:1034100093E095BD9AEF97BD80936E000E94B10C2A
:1034200090E090930801809307010E94800D0E9414
:103430008F0DAFEAB2E0E2ECF2E01EE0F12EFE0EFC
:1034400011921D92FE12FCCF8EE090E00E942F217F
:103450008093A9029093AA02FC010E962BEF219370
:10346000E817F907E1F780E090E00E94C7208D3E61
:103470009E4F11F00E94E5118CE090E00E94BF2069
:1034800090E0A0E0B0E08093AB029093AC02A093F8
:10349000AD02B093AE0289EA8093800089E0809308
:1034A000810024982C983F988AB18F7C8AB96E98B5
:1034B000479A8BB180638BB9769A0E94280D80E081
:1034C00090E00E94C7208D3E9E4F11F00E94E511B2
:1034D00082E090E00E94BF208093DA0284E090E0D6
:1034E0000E94BF2090E09093BE028093BD0283E0D3
:1034F00090E00E94BF20682F70E080E090E00E9482
:10350000021489E091E09093C0028093BF02992455
:103510009394EE24EA94CC24C394D12C50E1452E0C
:1035200062E1562E78E1A72EB12CE0E48E2E809138
:103530009F02853009F043C080919F02843009F1D9
:103540001092C1020FB6F894A895A09260000FBE29
:103550008092600083B7817F846083BF83B781607E
:1035600083BF7894889583B78E7F83BF0FB6F89416
:10357000A89580916000886180936000109260003F
:103580000FBE80919E02882391F20E94B10C90E0C0
:1035900090930801809307010E94800D0E948F0D77
:1035A000E2ECF2E01192FE12FDCF0E94030EE2EC7B
:1035B000F2E081918111F2C0FE12FBCFB8CF0E94E0
:1035C000030EEBEDF2E0A2ECB2E000E010E0702FB1
:1035D0006D9121912627B1F180E090E030E0782EC6
:1035E000A901082E02C0559547950A94E2F740FFBD
:1035F00025C089837A83C60102C0880F991F7A94F7
:10360000E2F73C01862F90E08621972121E0892B6B
:1036100009F420E02B830E9437118160782F9D836D
:103620008C8349815A816B818D810E944009F80108
:10363000E552FD4F80816826608219C00196863070
:10364000910569F60F5F1F4F0E30110509F0BFCFCE
:10365000EE82EF8218860E9437118160782F9A8758
:1036600089874E815F8168858A850E9440098091A3
:10367000D7029091D8020E940D119C019091D60220
:10368000992321F02431310508F47CC08091D202C5
:103690001091D30281110BC0111194C02091D4025A
:1036A000211190C02091D50221118CC06BC09F3F89
:1036B00019F09F5F9093D602181624F40E945C10B4
:1036C0008093D2028091D20287FF05C00E945C10D5
:1036D00081958093D202111624F40E945C1080938D
:1036E000D3028091D30287FF05C00E945C108195B0
:1036F0008093D3023091D202332301F12091D3027F
:103700002223E1F045EB3403C0011124892F990FE6
:10371000990B009719F08093D20202C09092D202C6
:1037200035EB2303C0011124892F990F990B0097C2
:1037300019F08093D30202C09092D3028091D402F8
:10374000181624F40E943A108093D4028091D40277
:1037500087FF05C00E943A1081958093D402809122
:10376000D502181624F40E943A108093D502809155
:10377000D50287FF05C00E943A1081958093D5023B
:103780000E9443111091D9020E94420A181709F4AD
:10379000CECE0E94420A8093D902C9CE49BC59BC00
:1037A00009B400FEFDCF8091D8008F7D8093D800B2
:1037B0008091E00082608093E0008091E00081FDD4
:1037C000FCCFB5CE9F3F09F074CF7CCF8091FE0136
:1037D00082958F7009F054C08091FB01882309F411
:1037E0004FC080913002A091FF016091F90170916A
:1037F000FA014091FC015091FD01B6E08A1709F4ED
:103800003FC090E041155105C1F17F3F11F46F3F7A
:10381000A1F1B89FF001B99FF00D1124E050FE4FC7
:10382000218172132AC02081621327C022812111B5
:1038300024C0238134812417350710F42150310925
:10384000241B350B283C3105C0F42091FE012F705C
:1038500020612093FE0126E0289FF001299FF00DB2
:103860001124EB5FFD4F80818F708061808389EF31
:1038700091E00E948E020C940C1401968770BECFCA
:1038800008950E94C412292F2F7092959F70E92FDE
:10389000F0E03297EE30F105B8F4EF55FF4F0C949D
:1038A0002921803F99F018F4803E70F40FC0843FC6
:1038B00059F40CC0803E50F0813F31F407C0822F94
:1038C000869586958695089580E0089581E008950F
:1038D000BF92CF92DF92EF92FF920F931F93CF93FD
:1038E000DF93CDB7DEB761970FB6F894DEBF0FBE9A
:1038F000CDBF8C0185E0F801DE011D9601900D928F
:103900008A95E1F7D8013C9111962C911197129666
:10391000EC9012971396CD90DC9014975091F9018A
:103920006091FA018091FC019091FD01009709F4EA
:103930004FC16F3F19F45F3F09F44AC1B090FB01DA
:10394000BB2009F4ECC04091FE01C816D90628F04E
:10395000F601E81BF90BCF0104C0809590958C0D02
:103960009D1DFF24F394883C910548F0F12C407F85
:1039700009F09FC089EF91E00E948E0221C1842F3F
:10398000807F09F044C0621312C0531310C0E110CD
:103990000EC04F7040614093FE0189EF91E00E949C
:1039A0008E028091FE01D80115968C932EC0CD28F1
:1039B00019F12F3F11F43F3FF9F0FE2CE1101CC02C
:1039C000809130024091FF0156E0841709F458C0FD
:1039D00090E0589FF001599FF00D1124E050FE4FE8
:1039E0006181261306C06081361303C062816111B4
:1039F00003C001968770E9CFFE2CEE2009F421C1A7
:103A00008091FE0181608093FE01F12C1AC1621346
:103A10000AC0531308C0E11006C08091FE01D8010E
:103A200015968C93B0C03D872E878D859E850E940C
:103A3000411C8823D1F1EE20C1F12091FE01822F9B
:103A400082958F7090E0029774F08091F9019091C7
:103A5000FA0198878F831986DB86CA862C87CE0168
:103A600007960E948E0286E0F801A9EFB1E001906E
:103A70000D928A95E1F70E94E61BFF24F394E1C0C2
:103A80003D872E878D859E850E94C412292F229501
:103A90002F7030E0223031050CF0C7C09F7009F064
:103AA000C1C0805E883008F4CCC0C8010E948E027C
:103AB000E4CF621314C0531312C0E11010C0809100
:103AC000FE01F8018583C8010E948E0286E0E9EFBD
:103AD000F1E0DF011D928A95E9F7FB2CB2C03D872A
:103AE0002E878D859E850E94411C8823F1F2EE2051
:103AF000E1F22091FE01822F82958F7090E0029773
:103B00000CF4B1CF8091F9019091FA019A838983E5
:103B10001B82DD82CC822E83CE010196A2CFC816F5
:103B2000D90638F0C81AD90AB8ECCB16D10450F02F
:103B300007C0809590958C0D9D1D883C910510F0D7
:103B4000F12C3EC0FE2CEE2009F4AFCF621327C04B
:103B5000531325C02091FE0120FD18C0822F8295AD
:103B60008F70482F50E04115510581F0F8012583F1
:103B70004F30510541F08F5F982F9295907F822FA3
:103B80008F70892B8583C8010E948E0286E0F80120
:103B9000A9EFB1E001900D928A95E1F752C03D87FF
:103BA0002E878D859E850E94411C81115CCF80915E
:103BB000FE0181608093FE01C8010E948E0241C017
:103BC000E9EFF1E086E0DF011D928A95E9F739C05F
:103BD000EE2009F46ACF3D872E878D859E850E9451
:103BE000411CF82E882309F460CF86E0F801A9EF84
:103BF000B1E001900D928A95E1F78091F9019091E1
:103C0000FA010E94C41292959F70963041F48091FF
:103C1000EB0291E089278093EB029093EA020E94E5
:103C2000E61B0FC081113DCF0CC0243031050CF0D4
:103C30003CCF9F7009F435CFF8019581907F09F052
:103C400030CF8F2D61960FB6F894DEBF0FBECDBF7B
:103C5000DF91CF911F910F91FF90EF90DF90CF9068
:103C6000BF90089510926E0210926D020E943D1254
:103C7000E0EDF2E086E0DF011D928A95E9F710920F
:103C8000D602109278020E94431180E090E00E94D8
:103C90002C0A80E090E00C94160A8091060188239B
:103CA00031F08091BD0287FF02C08EE101C086E045
:103CB000EBEDF1E0DF011D928A95E9F70C94321EDD
:103CC000882341F0809590917A02892380937A022B
:103CD0000C943D120895882339F090917A02892B33
:103CE00080937A020C943D120895882309F463C0EE
:103CF000823869F40E94420A81FF5DC069E389ED60
:103D000091E00E94AD110E943D1269E30EC083381C
:103D100091F40E94420A80FF4EC063E589ED91E074
:103D20000E94AD110E943D1263E589ED91E00E9471
:103D300082110C943D12843869F40E94420A82FF79
:103D40003AC067E489ED91E00E94AD110E943D12F6
:103D500067E4EBCF9CEF980F913A10F4682FE5CF12
:103D600090E2980F983088F4877021E030E0A90144
:103D700002C0440F551F8A95E2F7CA0180959091C1
:103D80007A02892380937A02D4CF9BE5980F9330EF
:103D900020F480E090E00C942C0A98E5980F97317D
:103DA00020F480E090E00C94160A803F20F00E94FE
:103DB000B50F0C9443110895CF93C82F0E94EF1EA6
:103DC000C93349F42FEF83EC99E0215080409040B3
:103DD000E1F700C000008C2FCF910C94751E882352
:103DE00009F416C18238B1F40E94420A81FD10C163
:103DF00069E389ED91E00E94AD110E943D122FEF21
:103E000041EE54E0215040405040E1F700C0000036
:103E100069E317C08338D9F40E94420A80FDF8C0D4
:103E200063E589ED91E00E94AD110E943D128FEF94
:103E300091EE24E0815090402040E1F700C0000066
:103E400063E589ED91E00E9482110C943D12843863
:103E5000B1F40E94420A82FDDBC067E489ED91E083
:103E60000E94AD110E943D124FEF51EE84E041508F
:103E700050408040E1F700C0000067E4E2CF9CEFD3
:103E8000980F913A30F4682F89ED91E00E94AD11BE
:103E9000DCCF90E2980F983080F4877021E030E01A
:103EA000A90102C0440F551F8A95E2F7CA019091FB
:103EB0007A02892B80937A02C8CF9BE5980F9330C2
:103EC00070F4853A29F0863A31F083E890E005C035
:103ED00081E890E002C082E890E00C942C0A98E51A
:103EE000980F973108F08EC0883A09F445C0893A96
:103EF00009F445C08A3A09F445C08B3A09F445C033
:103F00008C3A09F445C08B3B09F445C08C3B09F45D
:103F100045C08D3A09F445C0803B09F445C08E3A4E
:103F200009F445C08F3A09F445C0813B09F445C006
:103F3000823B09F445C0833B09F445C0843B09F446
:103F400045C0853B09F445C0863B09F445C0873B25
:103F500009F445C0883B09F445C0893B09F445C0D4
:103F60008D3B09F445C08E3B09F445C08A3B09F4FA
:103F700045C080E090E044C082EE90E041C089EE10
:103F800090E03EC08AEE90E03BC085EB90E038C008
:103F900086EB90E035C083EB90E032C084EB90E09C
:103FA0002FC087EB90E02CC08CEC90E029C08DEC0A
:103FB00090E026C083E891E023C08AE891E020C029
:103FC00082E991E01DC084E991E01AC081E292E0AB
:103FD00017C083E292E014C084E292E011C085E24F
:103FE00092E00EC086E292E00BC087E292E008C049
:103FF0008FE690E005C080E790E002C08AE292E0A0
:104000000C94160A803F20F00E947F100C944311FC
:1040100008951092B9008CE08093B8000895EF9253
:10402000FF920F931F93CF93DF93182FEB01109202
:10403000BC0084EA8093BC000E9437117C019091FF
:10404000BC0097FD0EC0CF3F8FEFD807C1F30E9491
:1040500037118E199F098C179D0788F38EEF9FEFFC
:104060002EC09091B900987F983041F09091B9009E
:10407000987F903119F08FEF9FEF21C01093BB0014
:1040800084E88093BC000E9437118C019091BC00A1
:1040900097FD0CC0CF3F8FEFD807C1F30E943711B7
:1040A000801B910B8C179D0788F3D8CF8091B900A6
:1040B000887F883111F08034F1F680E090E0DF9164
:1040C000CF911F910F91FF90EF9008950F931F9341
:1040D000CF93DF93EB018093BB0084E88093BC0017
:1040E0000E9437118C019091BC0097FD0EC0CF3F0C
:1040F0008FEFD807C1F30E943711801B910B8C17EB
:104100009D0788F38EEF9FEF0CC02091B900287FA8
:1041100081E090E0283211F480E090E09195819563
:104120009109DF91CF911F910F9108950F931F93E4
:10413000CF93DF93EC0184E88093BC000E94371199
:104140008C019091BC0097FD0EC0CF3F8FEFD80738
:10415000C1F30E943711801B910B8C179D0788F3C8
:104160008EEF9FEF03C08091BB0090E0DF91CF9175
:104170001F910F91089584E98093BC000895F999E7
:10418000FECF92BD81BDF89A992780B50895A8E128
:10419000B0E042E050E00C94F320262FF999FECFD6
:1041A00092BD81BDF89A019700B4021639F01FBA8A
:1041B00020BD0FB6F894FA9AF99A0FBE08950396A7
:1041C000272F0E94CE200E94CD20252F0E94CE2096
:1041D000242F0C94CE200196272F0E94CE200C94E1
:1041E000CD20DC01CB01FC01F999FECF06C0F2BD68
:1041F000E1BDF89A319600B40D9241505040B8F7A5
:104200000895AA1BBB1B51E107C0AA1FBB1FA6171D
:10421000B70710F0A61BB70B881F991F5A95A9F76F
:1042200080959095BC01CD01089597FB072E16F45B
:10423000009407D077FD09D00E94012107FC05D02A
:104240003EF4909581959F4F0895709561957F4FAD
:104250000895EE0FFF1F0590F491E02D0994CF9380
:10426000DF938230910510F482E090E0E091EE025D
:10427000F091EF0220E030E0C0E0D0E0309711F1A3
:104280004081518148175907C0F04817590761F418
:1042900082819381209719F09B838A832BC090930E
:1042A000EF028093EE0226C02115310519F0421766
:1042B000530718F49A01BE01DF01EF010280F38178
:1042C000E02DDCCF2115310509F1281B390B2430F5
:1042D000310590F412968D919C911397611571059B
:1042E00021F0FB019383828304C09093EF028093BB
:1042F000EE02FD01329644C0FD01E20FF31F8193EF
:104300009193225031092D933C933AC02091EC02B5
:104310003091ED02232B41F42091020130910301F1
:104320003093ED022093EC022091000130910101C5
:104330002115310541F42DB73EB74091040150914C
:104340000501241B350BE091EC02F091ED02E21720
:10435000F307A0F42E1B3F0B2817390778F0AC01A8
:104360004E5F5F4F2417350748F04E0F5F1F509385
:10437000ED024093EC028193919302C0E0E0F0E003
:10438000CF01DF91CF9108950F931F93CF93DF93C8
:10439000009709F48CC0FC013297138212820091BD
:1043A000EE021091EF020115110581F42081318197
:1043B000820F931F2091EC023091ED0228173907EC
:1043C00079F5F093ED02E093EC0271C0D80140E082
:1043D00050E0AE17BF0750F412962D913C91139701
:1043E000AD012115310509F1D901F3CF9D01DA01A4
:1043F0003383228360817181860F971F8217930711
:1044000069F4EC0128813981260F371F2E5F3F4F59
:10441000318320838A819B8193838283452B29F476
:10442000F093EF02E093EE0242C01396FC93EE93FA
:104430001297ED01499159919E01240F351FE21702
:10444000F30771F480819181840F951F0296119674
:104450009C938E938281938113969C938E93129753
:10446000E0E0F0E0D80112968D919C9113970097AF
:1044700019F0F8018C01F6CF8D919C9198012E5F77
:104480003F4F820F931F2091EC023091ED022817CD
:10449000390769F4309729F41092EF021092EE0276
:1044A00002C0138212821093ED020093EC02DF919E
:0C44B000CF911F910F910895F894FFCF59
:1044BC000000F0022000012000CF0E6E0F430FD23F
:1044CC000E080F000D010D020D030D040D050D005E
:1044DC000C010C020C030C040C050C000B010B0260
:1044EC000B030B040B050B000A010A020A030A0456
:1044FC000A050A0009010902090309040905090052
:10450C00080108020803080408050800070107024F
:10451C000703070407050700060106020603060445
:10452C000605060005010502050305040505050041
:10453C00040104020403040404050400030103023F
:10454C000303030403050300020102020203020435
:10455C000205020001010102010301040105010031
:0C456C0000010002000300040005000034
:00000001FF
