:100000000C94E7010C9404020C9404020C94040276
:100010000C9404020C9404020C9404020C94040248
:100020000C9404020C9404020C940B0F0C94C70E55
:100030000C943B1C0C9404020C9404020C940402D7
:100040000C9404020C9404020C9404020C94040218
:100050000C9404020C94E60F0C9404020C94040219
:100060000C9404020C9404020C9404020C940402F8
:100070000C9404020C9404020C9404020C940402E8
:100080000C9404020C9404020C9404020C940402D8
:100090000C9404020C9404020C9404020C940402C8
:1000A0000C9404020C9404020C94040235002B00FE
:1000B000E000E200290000001E00140004001D0002
:1000C0004A0006011F001A0016001B004D00E10047
:1000D00020000800070006004C002C00210015003D
:1000E000090019002A001901220017000A00050062
:1000F000000002582C0800070000E3010000015333
:1001000039002F00000030000000AA0023001C006E
:100110000B0011000000A900240018000D001000C1
:100120005000460025000C000E003600510028004B
:10013000260012000F0037005200E50027001300D0
:10014000330038004F004900310034002D002E00EC
:10015000E3000000010001000100010001000000B7
:100160000100010001000100010001000100010087
:100170000100010001000100010001000100010077
:100180000100010001000100010001000100010067
:100190000100010001000100000001000100010058
:1001A0000000E20100000100010001000000010068
:1001B0000000010001000100010001000000010039
:1001C0000100010001000100010001000100010027
:1001D0000100010001000100010001000100010017
:1001E0000100010001000100010001000100010007
:1001F0000100010001000100E300000044000100D3
:1002000001000100010000003A00010001000100AE
:10021000010001003B00010001000100005C010041
:100220003C00010001000100010001003D0001004F
:1002300001000100010001003E0001000100010079
:1002400000000100010001000000010000000100A9
:100250000100010000000100000001003F0001005A
:100260000100010000000100400001000100010048
:100270000100010041000100010001000100010036
:1002800042000100010001000100010043000100E3
:100290000100010001000100450001000100010012
:1002A0000100000005010980A10185031A81002ACF
:1002B0008300160100260300950175108100C0051A
:1002C0000C0901A10185041A01002A9C02160100F3
:1002D000269C02950175108100C005010906A10147
:1002E0008505050719E029E7150025019508750121
:1002F00081020507190029EF1500250195F0750108
:1003000081020508190129059505750191029501DC
:1003100075039101C005010906A101050719E0292E
:10032000E715002501950875018102950175088181
:10033000010507190029FF150026FF00950675081D
:10034000810005081901290595057501910295019E
:1003500075039101C009023B00020100A0FA0904E3
:1003600000000103010100092111010001224000E8
:100370000705810308000A090401000103000000C9
:100380000921110100012271000705820320000AE2
:100390001201100100000008EDFE07130100010228
:1003A00003010403300000001603450072006700DB
:1003B0006F0064006F007800200045005A000000C4
:1003C00008035A00530041000000040309041124EB
:1003D0001FBECFEFDAE0DEBFCDBF11E0A0E0B1E09D
:1003E000EAEAFDE302C005900D92AC3EB107D9F7F1
:1003F00023E0ACEEB1E001C01D92A731B207E1F7F6
:100400000E94951A0C94A81E0C940000E8EDF0E0F0
:1004100080818E7F80831092E2001092DA00109229
:10042000E100A0EEB0E08C9181608C9380818F77A9
:10043000808319BCA7EDB0E08C918E7F8C93808176
:100440008F7E80831092E40208952091E400309121
:10045000E50095E6A9012091EC00822F817020FF34
:1004600006C08091E80080FF06C080E008952091DA
:10047000E80022FD1AC080910903882389F08530A5
:1004800089F08091EB0085FD0FC02091E400309150
:10049000E50042175307F9F29150E1F684E0089520
:1004A00082E0089583E0089581E00895EF92FF923D
:1004B0000F931F93CF937C018B010E942502C82FBD
:1004C000811117C08091E80085FD0BC08091E80084
:1004D0008E778093E8000E942502882399F3C82F25
:1004E00008C0F70181917F018093F100015011094B
:1004F00049F78C2FCF911F910F91FF90EF900895A6
:1005000080910B0387FF13C08091E80082FF06C033
:100510008091E8008B778093E80004C08091090304
:100520008111F2CF0895809109038823D9F3809136
:10053000E80080FFF8CF8091E8008E77ECCF982F0D
:100540009093E900242F762F50E0891731F07091B5
:10055000EC002091ED005091F00021FD07C09F5F5D
:10056000973071F78093E90081E008953091EB00B6
:100570003E7F3093EB003091ED003D7F3093ED00F6
:100580003091EB0031603093EB007093EC002093DE
:10059000ED005093F0002091EE0027FDE0CF80E0C9
:1005A0000895CF92DF92EF92FF920F931F93CF9314
:1005B000DF93C8EDD0E088818F7E8883E7EDF0E09F
:1005C00080818160808384E082BF81E08093E40247
:1005D00088818E7F888302EE10E0F80110821092ED
:1005E000DA0081EEC82ED12CF601108288818F7737
:1005F000888388818068888388818F7D888319BCFF
:100600001092090310920A03109208031092070334
:1006100090EEE92EF12CF70180818B7F8083888119
:100620008160888342E060E080E00E949F02F601E2
:1006300080818E7F8083F8018081816080838081CA
:1006400088608083F70180818E7F808388818061CC
:100650008883DF91CF911F910F91FF90EF90DF90F2
:10066000CF900895FC018091110390911203861799
:100670009707A0F06115710529F49091E8009E7725
:100680009093E80090E06115710551F4911108C054
:100690008091E80082FF34C080E00895BC01F2CF71
:1006A000809109038823C1F18530C1F18091E80070
:1006B00083FD30C08091E80082FDEACF8091E800A0
:1006C00080FFE1CF8091F3002091F200382F611577
:1006D000710519F02830310558F091E028303105C6
:1006E00009F090E02091E8002E772093E800CBCF2E
:1006F00081918093F100615071092F5F3F4FE7CFE7
:1007000080910903882341F0853041F08091E80011
:1007100083FFBECF81E0089582E0089583E00895CD
:1007200008958091E60208958091A00281111092AF
:10073000A002089580919F0290919E02892B909132
:100740009D02892B8093EC019091A0029923A1F046
:10075000892B8093EC0180911201882341F18091D3
:10076000C10287FF24C08EE1EEEEF1E090E08150FF
:1007700000F591110E949403E091C302F091C4022C
:100780003097E1F080911201882359F08091C102E5
:1007900087FF07C08091EC018093ED0185E0809395
:1007A000EC010280F381E02D8CEE91E0099486E06B
:1007B000DBCF21912223D9F29F5FD9CF0895909169
:1007C00012019923D1F09091C10297FF16C0E82F32
:1007D000E695E695E695EE31E0F4F0E0E451FE4F63
:1007E000282F277081E090E001C0880F2A95EAF752
:1007F00080959281892382830895EEEEF1E09191B4
:10080000891303C0DF0111971C9291E0E43FF907BF
:10081000B1F70895909112019923C1F09091C1020E
:1008200097FF14C0E82FE695E695E695EE31F8F4CB
:10083000F0E0E451FE4F877021E030E001C0220F6C
:100840008A95EAF78281822B82830895AEEEB1E029
:10085000EFEF90E02D91821751F0EF3F19F4211145
:1008600001C0E92F9F5F9630A9F7EF3F09F4089583
:100870000E2E000CFF0BE451FE4FE6CFE92FEE0FDA
:10088000E90FEE0F8E0F982F9770869586958695B7
:1008900025E0829FF0011124EF59FD4F50E040E028
:1008A00080E0219130E0092E02C0369527950A9408
:1008B000E2F721703327042E01C0220F0A94EAF7D1
:1008C000822B4F5F5F4F4530510559F70895E92F4F
:1008D000EE0FE90FEE0F8E0F982F977041E001C0D9
:1008E000440F9A95EAF786958695869595E0899FB7
:1008F000F0011124EF59FD4F30E020E070E05191FC
:10090000DF011197CB01022E02C0969587950A94BC
:10091000E2F7817081958527842385278C932F5F4B
:100920003F4F2530310559F708958091600290912D
:100930002F02981301C008958F5F8770FACF882324
:1009400041F0809590919E02892380939E020C94A1
:100950009A030895882339F090919E02982B9093E2
:100960009E020C949A030895882341F080959091FB
:100970009F02892380939F020C949A0308958823F1
:1009800039F090919F02982B90939F020C949A03B8
:10099000089520911402309115022817390771F03B
:1009A0009093150280931402E091C302F091C40267
:1009B000309721F00084F185E02D0994089520916D
:1009C0001202309113022817390771F09093130225
:1009D00080931202E091C302F091C402309721F09B
:1009E0000680F781E02D0994089510929E021092DE
:1009F0009D020E949A0390E080E00E94DF0490E054
:100A000080E00C94C9046093A1027093A2028093C9
:100A1000A3029093A4020C94F504E091C302F09118
:100A2000C402309721F00190F081E02D099480E01C
:100A30000895882309F452C0823871F40E940D058C
:100A400081FF4CC089E30E940A040E949A0389E353
:100A50000E94DF030C949A03833859F40E940D0519
:100A600080FF3CC083E50E940A040E949A0383E54C
:100A7000EFCF843859F40E940D0582FF2FC087E420
:100A80000E940A040E949A0387E4E2CF9CEF980F29
:100A9000913AF0F290E2980F983088F4877021E054
:100AA00030E0A90102C0440F551F8A95E2F7CA0140
:100AB000809590919F02892380939F02CBCF9BE5E5
:100AC000980F933020F490E080E00C94DF04885A73
:100AD000873120F490E080E00C94C904089590914F
:100AE000C10292FF06C0282F28712830F9F4877FB1
:100AF000846093FF06C0282F28712831F1F4877E87
:100B000084612091C20220FF06C0382F387138302E
:100B1000D9F4877F816021FF06C0282F28712831F2
:100B2000D1F4877E816194FD877E0895282F2471FA
:100B30002430F9F68B7F8860DCCF282F2471243194
:100B400001F78B7E8861DDCF382F3171313019F795
:100B50008E7F8860E0CF282F2171213121F78E7E92
:100B60008861E1CFCF93DF93972F70E026E0929FCB
:100B7000600D711D1124FB0134E5839FE00DF11D13
:100B80001124EE0FFF1FE455FF4FC591D491CE0104
:100B9000C238D105B9F1E8F5C133D10509F499C0DE
:100BA00050F5C932D10509F48DC0CA32D10509F416
:100BB00097C0C11542E5D40708F0B6C0C11521E5BC
:100BC000D20708F02EC1C83ED10508F09DC0C03E36
:100BD000D10568F5C83AD10508F089C0C53AD105F4
:100BE00008F0F7C0C130D10511F1209709F443C0D6
:100BF0002497E8F440C0C533D10509F45CC0C9337B
:100C0000D105B9F62091C102237089F080EE90E001
:100C10000EC0C33ED10591F168F4C03ED105F9F094
:100C2000C23ED10531F62091C10222FD20C0DF91E4
:100C3000CF910895C63ED10561F1C73ED10581F13E
:100C4000C43ED10509F0B5CF2091C20221FFEFCFFC
:100C50008091C10284FD0FC087EE90E0E8CF209123
:100C6000C10220FD0EC13091C20230FFE0CF83EE01
:100C700090E024FFDCCF90E080E0D9CF2091C1024A
:100C800022FD02C13091C20230FDC0CF24FFCFCF80
:100C9000F2CF2091C10223FFCACF24FDECCFDCCFDD
:100CA0002091C10223FDF3C03091C20231FFEECF8B
:100CB00084EE90E0BCCF2091C10225FFB8CF89E23D
:100CC00090E0B5CF2091C10225FFB1CF85E390E040
:100CD000AECF2091C10226FFAACF8AE290E0A7CF33
:100CE0002091C10226FFA3CF81E390E0A0CFCF3BAC
:100CF000D10508F6C85AD0E0CC0FDD1FC254DE4F34
:100D000088819981946493CFC11530E5D30708F0A9
:100D10006CC0C11540E4D40708F063C0DA95C11572
:100D2000DF4108F484CFA7CFC11536E5D30718F506
:100D3000C11545E5D40708F08AC0C11584E5D80778
:100D400008F080C09C2F96959695AE01437055276C
:100D5000C115D34508F46AC021E030E002C0220F7B
:100D6000331F4A95E2F740E2949FC0011124822B81
:100D7000932B9A685CCFC1153AE5D30778F4C11577
:100D800049E5D40708F06DC0C11588E5D80708F417
:100D900072CF9C2F8827806F906A49CFC1159BE541
:100DA000D90708F468CFCE01C1152CE5D20708F4A5
:100DB00065C090568115904208F05DCF8D2F8F71E0
:100DC0000E946F0590E0982F882788279F718C2BB1
:100DD00046C0C55AD0E0C554DE4F888190E090648B
:100DE00026CFCE019F70906A22CF9E01E4E0369517
:100DF0002795EA95E1F723708C2F86958695837069
:100E000040E2849FC0011124922BC37021E030E0A6
:100E100002C0220F331FCA95E2F7822B932B9C68E6
:100E200006CF9C2F8827816F906A01CF21E030E0A8
:100E300002C0220F331F4A95E2F740E2949FC0019F
:100E40001124EBCF9C2F8827846F906AF0CE8C2FD3
:100E50000E946F0590E0982F882788279F719062E5
:100E6000E6CE8C2F8F700E946F0534E0D695C79523
:100E70003A95E1F7CF709C2F9069D9CE992790666B
:100E8000D6CE89E390E0D3CE82EE90E0D0CE86EE4F
:100E900090E0CDCEBF92CF92DF92EF92FF920F9370
:100EA0001F93CF93DF938C01C0909802D09099024A
:100EB000E0909A02F0909B028091A1029091A20290
:100EC000A091A302B091A402C82AD92AEA2AFB2A37
:100ED000CFE1D0E0BC2ED701C6010C2E04C0B695E0
:100EE000A795979587950A94D2F780FD0EC0219714
:100EF00088F7B12C8B2DDF91CF911F910F91FF902F
:100F0000EF90DF90CF90BF900895B8018C2F0E9492
:100F1000B205019761F3EECFCF93DF93EC010E940E
:100F20004A07BE01DF91CF910C94B2050E948C0755
:100F3000292F2F7092959F7092509E3078F4E92F50
:100F4000F0E0E655F14E0C942F1D803F19F020F48F
:100F5000883E20F481E00895843FE1F380E0089525
:100F6000883EC0F3813FD1F7F5CF822F86958695D5
:100F70008695089527982F98089526982E98089575
:100F800025982D98089556985E980895279A2F9A37
:100F90000895269A2E9A0895259A2D9A0895CF920B
:100FA000DF92EF92FF92CF936B017C01C701AA27DA
:100FB000BB27C0E10097A105B10519F4D701CB010A
:100FC000C0E0492F5A2F6B2F772741155105610536
:100FD000710519F0C85FDB01CA01AC01BD01E4E095
:100FE0007695679557954795EA95D1F7411551053F
:100FF0006105710519F0CC5FDB01CA01AC01BD01CF
:1010000032E076956795579547953A95D1F7411512
:1010100051056105710519F0CE5FDB01CA01B69576
:10102000A79597958795892B8A2B8B2B09F0CF5FF6
:101030000E94C3070E94C0070E94BD070E94BA0712
:10104000C150C73040F4EC2FF0E0E854F14E0C945E
:101050002F1D0E94CC07C701B601CF91FF90EF90E2
:10106000DF90CF9008950E94CC070E94C907F3CF6C
:101070000E94CC070E94C607EECF0E94CC070E94B8
:10108000C907F8CF0E94CF07609398027093990226
:1010900080939A0290939B020C94F5040F931F93F4
:1010A00041E050E060E070E004C0440F551F661F4F
:1010B000771F8A95D2F7CB01BA016095709580951C
:1010C0009095009198021091990220919A02309186
:1010D0009B0260237123822393231F910F910C9411
:1010E000420890919C028095892380939C02282F2E
:1010F000277071F4282F082E000C330B921713065B
:1011000039F08595859585950E944E0810929C0230
:1011100008950F931F9341E050E060E070E004C039
:10112000440F551F661F771F8A95D2F7809198024A
:1011300090919902A0919A02B0919B028A019B0121
:10114000082B192B2A2B3B2BC901B8011F910F919A
:101150000C94420884B1807F84B985B1807F85B9C1
:101160008AB1837F8AB98BB1837F8BB93E984698C9
:10117000089580B38C7080BB81B3836F81BB089569
:10118000CF9384E090E00E94351DC82F81E290E06B
:101190000E94351D982F8C2FCF910895CF93DF9308
:1011A00000D00F92CDB7DEB790910903943019F5B6
:1011B00089837B836A8382E08093E9008FEF90913B
:1011C000E800815095FD06C095ED9A95F1F7000075
:1011D0008111F5CF8091E80085FF0DC050E040E01F
:1011E00063E070E0CE0101960E9456028091E80013
:1011F0008E778093E8000F900F900F90DF91CF9142
:10120000089520910903243021F4BC0184E00C945A
:10121000CE080895BC016058710983E00C94CE0893
:10122000CF93DF93EC01809109038430B9F580916D
:1012300012018823B1F18091C10287FF32C060E2C0
:1012400082E08093E9008FEF9091E800815095FD56
:1012500006C095ED9A95F1F700008111F5CF8091C8
:10126000E80085FF1BC08091120170E050E040E073
:10127000811104C050E040E068E070E0CE010E94BF
:1012800056028091E8008E778093E80080E2FE01AC
:10129000A7EEB2E001900D928A95E1F7DF91CF9130
:1012A000089568E081E0CDCF882309F475C08238C5
:1012B000B9F40E940D0581FD6FC089E30E940A0404
:1012C0000E949A032FEF81EE94E0215080409040DD
:1012D000E1F700C0000089E30E94DF030C949A0349
:1012E0008338A1F40E940D0580FD56C083E50E945D
:1012F0000A040E949A032FEF81EE94E0215080406F
:101300009040E1F700C0000083E5E6CF8438A1F407
:101310000E940D0582FD40C087E40E940A040E94DD
:101320009A032FEF81EE94E0215080409040E1F746
:1013300000C0000087E4D0CF9CEF980F913A18F4DA
:101340000E940A04CBCF90E2980F983068F487701F
:1013500021E030E001C0220F8A95EAF780919F02D8
:10136000822B80939F02BACFEBE5E80FE33038F48D
:10137000F0E0E554FE4F808190E00C94DF04885A41
:10138000873150F4E82FF0E0EE0FFF1FE254FE4FDC
:10139000808191810C94C9040895CF93C82F0E9435
:1013A0005409C93349F42FEF87EE93E02150804070
:1013B0009040E1F700C000008C2FCF910C941905EC
:1013C000EF92FF920F931F93CF93DF930E94C30777
:1013D0000E94C0070E94BD070E94BA0788E8E82E55
:1013E000F12C8FEF90E0F701918380830AE810E001
:1013F000F80191838083CCE8D0E0998388830E94B0
:10140000CC07FFEF20E782E0F15020408040E1F779
:1014100000C000000E94C9079FEFE0E7F2E0915092
:10142000E040F040E1F700C000000E94C6072FEF47
:1014300080E792E0215080409040E1F700C000003A
:101440000E94C007EFEFF0E722E0E150F0402040BB
:10145000E1F700C000000E94BD078FEF90E7E2E0D7
:1014600081509040E040E1F700C000000E94BA07C0
:101470008091AF028770FFEF8F9FC0011124959577
:101480008795959587959927F70191838083F80132
:1014900091838083998388830E94C3070E94C00739
:1014A0000E94BD07DF91CF911F910F91FF90EF90A8
:1014B0000C94BA076091AB028CE090E00C94491D4B
:1014C0006FEE7EEF90E080E00E94671D60E082E0BA
:1014D00090E00E94491D60E083E090E00E94491D79
:1014E0001092A1021092A2021092A3021092A402E2
:1014F00060E084E090E00E94491D60E081E290E0BD
:101500000E94491D60E085E090E00E94491D60E076
:1015100086E090E00E94491D6FEF87E090E00E9416
:10152000491D40E050E0BA0188E090E00E945B1D58
:1015300060E08DE090E00E94491D40E050E0BA017B
:1015400088E190E00E945B1D60E087E190E00E94EE
:10155000491D40E050E0BA018CE190E00E945B1D23
:1015600060E080E290E00E94491D1092AF0210926C
:10157000B0021092B1021092B20284E080618093B6
:10158000AF024091AF025091B0026091B1027091F0
:10159000B2028FE090E00E945B1D40E050E0BA0193
:1015A00083E190E00C945B1D10929F0280911201E8
:1015B000EEEEF1E0882359F08091C10287FF07C069
:1015C0008EE1DF011D928A95E9F70C94F50486E01F
:1015D000F8CF1F93CF93DF93CDB7DEB7AA970FB69F
:1015E000F894DEBF0FBECDBF8BE093E02091F100F9
:1015F000FC012193CF01F3E083319F07B9F780917C
:101600000C03833009F46FC0B8F4813009F446C08C
:10161000823009F4B0C08091E80083FF87C28091D6
:101620000B0390910C039A3008F080C2E92FF0E090
:10163000E154F14E0C942F1D8A3009F48BC08B308D
:1016400009F46EC0893039F780910B03813219F7A4
:1016500080910F03909110030297E8F68091E800C3
:10166000877F8093E8008091E80082FF37C09091E7
:10167000F3008091F200029729F48091F1008B7FB2
:10168000813021F48091F1008093E6028091E8009E
:101690008B778093E8000E948002BDCF80910B037E
:1016A000813A09F0B8CF8091E800877F8093E80005
:1016B00080910F0390911003892B61F460E287EE13
:1016C00092E070E00E9432038091E8008B77809373
:1016D000E800A1CF60E090E080E0F3CF80910903C3
:1016E0008111C1CF98CF80910B03813A09F093CF3C
:1016F00080910F0390911003892B09F08CCF80917A
:10170000E800877F8093E8008091E80080FFFCCFAD
:10171000809112018093F1008091E8008E77B9CF1B
:1017200080910B03813209F076CF80910F03909165
:101730001003892B09F06FCF8091E800877F809399
:10174000E8000E94800280910D03809312010E94A4
:10175000D40A61CF80910B03813209F05CCF809174
:10176000E800877F8093E8000E94800280910E034A
:101770008093E50250CF80910B03813A09F04BCF63
:101780008091E800877F8093E8008091E80080FFE7
:10179000FCCF8091E502BECF803899F0823809F005
:1017A000C5C180910F038F70873008F0BFC180934F
:1017B000E9008091EB0085FB882780F91092E90011
:1017C00006C0809107039091080391118260909167
:1017D000E800977F9093E8008093F1001092F10069
:1017E0008091E8008E779EC1882309F48CC18230F5
:1017F00009F09CC180910D0381118FC180910F036D
:101800008F702FEF280F263008F090C18093E900E9
:101810002091EB0020FF81C1933031F48091EB00E7
:1018200080628093EB0079C19091EB00906190937E
:10183000EB0021E030E001C0220F8A95EAF7209307
:10184000EA001092EA008091EB008860EACF8111F3
:101850006DC110910D031F778091E3008078812B7B
:101860008093E3008091E800877F8093E8000E94E6
:1018700080028091E80080FFFCCF8091E3008068C7
:101880008093E30082E0111183E0809309034EC14D
:101890008058823008F04AC180910D0390910E0368
:1018A0008C3D23E09207A1F583E08A838AE2898355
:1018B0004FB7F894DE01139620E03EE051E2E32FAB
:1018C000F0E050935700E49120FF03C0E295EF70E1
:1018D0003F5FEF708E2F90E0EA30C0F0C7968D9397
:1018E0009D932F5F243159F74FBF8091E800877F88
:1018F0008093E8006AE270E0CE0101960E94320314
:101900008091E8008B778093E80010C1C096E7CF04
:1019100040910F0350911003292F332723303105B5
:1019200009F445C078F52130310509F47BC08BE31B
:1019300090E0E5E5F3E02230310509F0F7C02091B1
:10194000E800277F2093E8002091110330911203D3
:101950008217930708F49C0140E02115310509F036
:1019600070C041116EC08091E80082FDC9CF8091A6
:101970000903882329F2853019F28091E80083FF5A
:10198000F2CFBECF2132310509F440C022323105F9
:1019900009F0CCC04115510509F44EC04130510544
:1019A00009F0C4C081E790E0E4EAF2E0C8CF9927EB
:1019B00081309105D9F0009771F082309105F1F0F6
:1019C000039709F0B3C0E2EAF3E0E4918E2F90E0D0
:1019D000E2EAF3E007C0EAECF3E0E4918E2F90E056
:1019E000EAECF3E0009709F4A1C0A9CFE0ECF3E042
:1019F000E4918E2F90E0E0ECF3E0F4CFE8EAF3E03E
:101A0000E4918E2F90E0E8EAF3E0ECCF4115510528
:101A100071F04130510509F089C089E090E0E0E8BB
:101A2000F3E08DCF82E190E0E0E9F3E088CF89E058
:101A300090E0E7E6F3E083CF80E490E0E5E1F3E0D7
:101A40007ECF80910903882309F45ACF853009F4A9
:101A500057CF8091E80083FD53CF8091E80082FD4D
:101A600082CF8091E80080FF78CF9091F300809141
:101A7000F2002115310519F08830910550F041E050
:101A8000089709F040E08091E8008E778093E800A5
:101A900064CF44914093F100319621503109019671
:101AA000E8CF803809F042C08091E800877F8093BA
:101AB000E80080910A038093F10092CE811136C034
:101AC00010910D03123090F58091E800877F80938C
:101AD000E80010930A030E948002112311F084E0B1
:101AE00005C08091E30087FDFACF81E08093090370
:101AF00042E061EC81E00E949F0242E261EC82E000
:101B00000E949F0213C080910D03813079F481E01F
:101B1000933009F080E0809308031092E9008091EF
:101B2000E800877F8093E8000E9480028091E800AF
:101B300083FF0AC08091E800877F8093E80080914E
:101B4000EB0080628093EB00AA960FB6F894DEBF9C
:101B50000FBECDBFDF91CF911F910895CF93C82FB6
:101B6000873070F58091060190910701892B89F5E6
:101B700064E670E080E40E94681C90930701809303
:101B80000601892BD1F464E670E082E10E94C41C56
:101B90009093070180930601892B79F481E090E00E
:101BA00001C0880FCA95EAF764E670E080950E944C
:101BB000C41C9093070180930601CF910C94171DCC
:101BC0008A30B9F040F4883071F0893079F0209A89
:101BD0002898CF9108958C3091F070F08D30B9F73E
:101BE0003E9A4698F6CF219A2998F3CF229A2A98BE
:101BF000F0CF239A2B98EDCF529A5A98EACF539A66
:101C00005B98E7CF80E290E0909307018093060114
:101C100080910F0281110EC00E94621C81E08093AE
:101C20000F022FEF83ED90E3215080409040E1F7C9
:101C300000C0000064E670E080E40E94681C90939D
:101C4000070180930601892B09F04EC064E670E01D
:101C500080E00E94C41C9093070180930601892BA9
:101C600009F042C064E670E080E00E94C41C9093DA
:101C7000070180930601892BB9F564E670E08FE3D4
:101C80000E94C41C9093070180930601892B61F583
:101C90000E94171D64E670E080E40E94681C909327
:101CA000070180930601892BF9F464E670E08CE06B
:101CB0000E94C41C9093070180930601892BA1F414
:101CC00064E670E080E00E94C41C9093070180935A
:101CD0000601892B49F464E670E08FE30E94C41C7E
:101CE00090930701809306010E94171D80910601C1
:101CF0000895CF93873008F040C0809106019091FD
:101D00000701C0E0892B71F464E670E080E40E9472
:101D1000681C9093070180930601892B31F0C0E085
:101D20000E94171D8C2FCF91089564E670E083E127
:101D30000E94C41C9093070180930601892B79F7B8
:101D400064E670E081E40E94681C90930701809330
:101D50000601892B21F784E690E00E94F31C97FF8F
:101D600005C09093070180930601D9CFC82FC09575
:101D70001092070110920601D3CFCFB18FB1869593
:101D800086958C73C3708C2BC82FC095CBCF1F92B8
:101D90000F920FB60F9211242F933F934F935F939F
:101DA0006F937F938F939F93AF93BF93CF93DF9363
:101DB000EF93FF93D091E900DF708091EC00C82F82
:101DC000C17080FDC0E81092E9008091F000877F2B
:101DD0008093F00078940E94E90A1092E9008091C3
:101DE000F00088608093F000CD2BCF70C093E900A5
:101DF000FF91EF91DF91CF91BF91AF919F918F9123
:101E00007F916F915F914F913F912F910F900FBEF6
:101E10000F901F9018951F920F920FB60F921124DA
:101E20002F933F934F935F936F937F938F939F93E2
:101E3000AF93BF93EF93FF938091E10082FF09C0BE
:101E40008091E20082FF05C08091E1008B7F80934A
:101E5000E1008091DA0080FF24C08091D80080FFEB
:101E600020C08091DA008E7F8093DA008091D900C3
:101E700080FF9FC080E189BD82E189BD09B400FE79
:101E8000FDCF81E0809309038091E402811109C0B4
:101E90000E9406020E94D1028091E2008460809339
:101EA000E2008091E10080FF17C08091E20080FF96
:101EB00013C08091E2008E7F8093E2008091E20067
:101EC00080618093E2008091D80080628093D80086
:101ED00019BC85E0809309038091E10084FF2DC047
:101EE0008091E20084FF29C080E189BD82E189BD43
:101EF00089B5982F917080FFFBCF8091D8008F7D9E
:101F00008093D8008091E1008F7E8093E1008091E2
:101F1000E2008F7E8093E2008091E20081608093F6
:101F2000E20080910A03882309F449C084E0809389
:101F300009030E94D40A0E940D058091E10083FFED
:101F400027C08091E20083FF23C08091E100877F5A
:101F50008093E10082E08093090310920A0380914C
:101F6000E1008E7F8093E1008091E2008E7F80937C
:101F7000E2008091E20080618093E20042E060E054
:101F800080E00E949F028091F00088608093F000C2
:101F9000FF91EF91BF91AF919F918F917F916F9141
:101FA0005F914F913F912F910F900FBE0F901F9017
:101FB000189519BC109209031092E40272CF809117
:101FC000E30087FD93E090930903B3CF78941F92C9
:101FD0001FB61F9211248F939F93AF93BF9380914D
:101FE000A5029091A602A091A702B091A802019625
:101FF000A11DB11D8093A5029093A602A093A702F4
:10200000B093A802BF91AF919F918F911F901FBE77
:102010001F9018952FB7F8948091A5029091A60271
:10202000A091A702B091A8022FBF0895CF92DF928E
:10203000EF92FF920F931F93CF93DF93C62F142F2E
:10204000022FFC0182818823C1F0609325020E9447
:102050000A109093110280931002C77081E001C0B2
:10206000880FCA95EAF7DF91CF911F910F91FF90EA
:10207000EF90DF90CF900C94BF04809125028613DF
:1020800051C020911002309111024FB7F894809105
:10209000A5029091A602A091A702B091A8024FBFFD
:1020A0006C017D01EE24FF24A90170E060E0821B39
:1020B000930BC416D506E606F70608F40197883C8C
:1020C000910580F5D0E2D10FC117B9F080E28C0FF5
:1020D000883040F4C77081E001C0880FCA95EAF7E4
:1020E0000E94B404D83048F481E0912F977001C069
:1020F000880F9A95EAF70E94BF04802F0E94CD09AD
:10210000D830B8F4177081E001C0880F1A95EAF74B
:10211000DF91CF911F910F91FF90EF90DF90CF90C3
:102120000C94B404C77081E001C0880FCA95EAF727
:10213000EFCFDF91CF911F910F91FF90EF90DF9044
:10214000CF9008954F925F926F927F928F929F925D
:10215000AF92BF92CF92DF92EF92FF920F931F93B5
:10216000CF93DF9300D000D00F92CDB7DEB76C01D4
:10217000FC0183819481892B39F01081F180812FBA
:102180008F218F3F09F0C1C50F900F900F900F90D6
:102190000F90DF91CF911F910F91FF90EF90DF9003
:1021A000CF90BF90AF909F908F907F906F905F90F7
:1021B0004F9008950E944A07082F682F89819A81BD
:1021C0000E946704E12FF0E026E0F29EE00DF11D91
:1021D000112434E5039FE00DF11D1124EE0FFF1FC4
:1021E000E455FF4F0591149109308DE51807F1F57D
:1021F000F6018281882309F44EC08091AF0291E0FC
:10220000980F9770887F953008F4892B8093AF02E0
:102210008091AF028770FFEF8F9FC00111249595C9
:102220008795959587959927909389008093880045
:1022300090938B0080938A0090938D0080938C0004
:102240004091AF025091B0026091B1027091B20220
:102250008FE090E00E945B1D60919802709199025E
:1022600080919A0290919B020E94CF07F601828191
:10227000882389F0033EFCE51F0709F4D3C008F06A
:10228000BDC0013E3CE5130709F4C5C0023E8CE524
:10229000180709F4C5C017FFF2C0F6018281882330
:1022A00009F44DC080919F028093240210929F02F6
:1022B0008091AB02813009F4BDC0882309F4B6C017
:1022C000823009F4C4C0843009F4C8C08FE39CE9AB
:1022D0000197F1F700C000005801E894B7F84CE00E
:1022E000E42EF12C95010E2C02C0369527950A9408
:1022F000E2F72F7087E290E031F0822F90E02A30F1
:1023000008F0B1C04D960E94CD0994E0E91AF10899
:10231000ECEFEE16EFEFFE0629F78091AB0281306D
:1023200009F4A7C0882309F4A0C0823009F49DC035
:10233000843009F4A2C08091240280939F02F601A8
:102340008281882309F4F2C4109225020230FCE550
:102350001F0708F4BCC106312CE5120738F09801BC
:102360002A5F3C452730310508F0B1C10E94C00802
:102370009093C2028093C1020F303CE5130709F429
:1023800087C108F001C108309CE5190709F46AC14A
:1023900008F0D6C00430FCE51F0709F457C108F067
:1023A000BCC002303CE5130709F448C103301C45AA
:1023B00009F448C16091C1021091C20284E090E02A
:1023C0000E94491D612F81E290E00E94491D0F90FB
:1023D0000F900F900F900F90DF91CF911F910F9161
:1023E000FF90EF90DF90CF90BF90AF909F908F9035
:1023F0007F906F905F904F900C94D40A043E9CE5C0
:10240000190791F084E0053EECE51E0709F043CF83
:102410008093AB0202C01092AB020E945A0A3BCFDB
:1024200081E0F6CF82E0F4CF83E0F2CF82EE0E942B
:1024300054094CCF83E00E94AA0488E10E94540909
:1024400088E10E94190583E00E949F043FCF82EE3D
:102450000E94540987E50E94CD0938CF86EE0E947C
:10246000CD0988E1F8CF06974ECF82EE0E9419057C
:1024700062CF8CE20E94CD095ECF88E2FBCF033FA2
:10248000FCE51F07D9F140F5083D3CE5130791F144
:10249000093D8CE51807F1F1073D9CE5190709F0A6
:1024A0004ECF26E241EE61EEC6010F900F900F90E5
:1024B0000F900F90DF91CF911F910F91FF90EF90B0
:1024C000DF90CF90BF90AF909F908F907F906F9054
:1024D0005F904F900C941610053FECE51E07B1F08D
:1024E00088F0063F2CE5120709F029CF27E245EED8
:1024F00066EEDACF27E245EE65EED6CF26E241EE74
:1025000060EED2CF27E245EE64EECECF26E241EE7A
:1025100062EECACF28E241E0EFCF8091C102806134
:1025200006309CE5190709F447C08091C102886014
:1025300007301C4508F440C08091C10280623CC055
:102540000B30FCE51F0709F49BC068F409303CE53B
:10255000130709F48BC00A301C4509F02BCF80917A
:10256000C1028C6029C08091C1028B7F0D309CE537
:10257000190711F18091C1028D7F0E301C45E0F0EA
:102580008091C102877F18C00A3FFCE51F0709F44C
:1025900061C060F502313CE5130709F481C078F4AD
:1025A00000319CE5190709F477C08091C1028F7B47
:1025B00001311C4509F0FECE8093C102FBCE0431EF
:1025C000FCE51F0709F47AC008F470C005311C450A
:1025D00009F0F0CE8091C10282FB992790F921E0A9
:1025E000922790FB82F990FB83F9E6CF0D3F8CE5B3
:1025F000180709F449C070F40B3FECE51E0771F1B0
:102600008091C2028E7F0C3F1C4509F0D3CE80938F
:10261000C202D0CE0F3F2CE5120709F44BC060F187
:1026200001151D4509F0C6CE8091C202982F9095E4
:1026300091708E7F892B90FB81F9E9CF8091C10247
:102640008160BACF8091C1028260B6CF8091C10211
:102650008460B2CF8091C2028160D9CF8091C202E2
:102660008260D5CF8091C1028064A6CF0E94D40A37
:102670008091C1028068A0CF8091C2028360C7CFE1
:102680008091C1028E7F98CF8091C2028D7FBFCF93
:102690008091C1028F7E90CF8091C1028F7D8CCFBF
:1026A0000E94D40A8091C1028F7786CF8091C102A7
:1026B000837F82CF8091C2028C7FA9CF0E94D40AEF
:1026C0009091C102892F97FB87F9805875CF063109
:1026D0009CE5190709F035C380919F028A7A91E041
:1026E00009F490E09093260281111AC089E20E94B9
:1026F0000A040F900F900F900F900F90DF91CF91E1
:102700001F910F91FF90EF90DF90CF90BF90AF900F
:102710009F908F907F906F905F904F900C949A0352
:1027200085E3E5CF85E30AC30E94D40AEFEFF4E323
:102730002CE0E150F0402040E1F700C00000F894A8
:1027400081E08093E00080E28093D8001092C9007D
:102750008FE19EE40197F1F700C000001DBA1092CE
:1027600068001CBC10BE1FBA10927A0010926E0056
:1027700010926F0010927100109272001092C900B6
:102780001092BC0014B817B81AB81DB810BA10923D
:10279000BC0015B818B81BB81EB811BA0C94003F8D
:1027A000F3CC0F900F900F900F900F90DF91CF917F
:1027B0001F910F91FF90EF90DF90CF90BF90AF905F
:1027C0009F908F907F906F905F904F900C94600AD5
:1027D000C8010E943E04F82ECBC2212F2F70E22E9A
:1027E000107F19F0E29490EFE922FF20C9F0EE206B
:1027F00069F080E2800F883010F0B1100BC080913A
:102800009F02E82AE0929F020E949A03802F0E9472
:10281000540918C080919E02E82AE0929E02F4CFEB
:10282000802F0E941905EE2069F0E094005E0830C8
:1028300010F0B1103CC080919F02E822E0929F020C
:102840000E949A03292D2850330B2430310510F4AF
:102850000E940D05AA2009F497CC80919C0280FD6E
:1028600093CCF60112828595859585950E948908FD
:10287000C6010E94A21080919C0285958595859540
:102880000F900F900F900F900F90DF91CF911F91AD
:102890000F91FF90EF90DF90CF90BF90AF909F90FF
:1028A0008F907F906F905F904F900C944E08809126
:1028B0009E02E822E0929E02C3CF312F3F70832E0A
:1028C000107F103219F0829480EF8822802FBB2075
:1028D00041F091E0B91631F1FF2079F1EE2041F19C
:1028E00095CFFF2091F09091A002892F8829E110C7
:1028F00003C00E94BF04A6CFE1E0EE12FACF891711
:1029000009F4A0CF8093A0029DCFE11006C00E94E1
:102910009403882D0E94B40495CFF1E0EF1609F4DA
:1029200091CFF5CFFF2031F021E02E1508F48ACFAA
:10293000882DDFCFE11086CFECCFEE2051F3893325
:1029400049F43FEF87EE93E0315080409040E1F74B
:1029500000C00000802F0E94190574CF812F86953A
:102960008695837061F0813009F06CCFC801937057
:10297000F11002C090E080E00E94C90463CFC8015A
:102980009370F11002C090E080E00E94DF045ACF03
:10299000812F837009F066C0F11054CF802F82958B
:1029A00086958770880F880F602F6F70462E512C88
:1029B000712C612C082E04C0440C551C661C771C1D
:1029C0000A94D2F740E050E0BA0104FF0FC04FE094
:1029D00050E060E070E004C0440F551F661F771F91
:1029E0008A95D2F74095509560957095812F869580
:1029F00086958370823019F1D8F40091A10210916C
:102A0000A2022091A3023091A402813069F04429EE
:102A1000552966297729CB01BA01602371238223C6
:102A200093230E9403050ECF402A512A622A732A5B
:102A3000CB01BA016429752986299729F2CF442947
:102A40005529662977290091A1021091A2022091AF
:102A5000A3023091A402CB01BA016027712782271B
:102A60009327DFCF8695FF2011F0812F8170882377
:102A700009F4E8CE802F829586958770880F880F9D
:102A8000602F6F70462E512C712C612C082E04C0C3
:102A9000440C551C661C771C0A94D2F740E050E0A9
:102AA000BA0104FF0FC04FE050E060E070E004C0E6
:102AB000440F551F661F771F8A95D2F74095509592
:102AC00060957095812F869586958370823019F177
:102AD000D8F4009198021091990220919A023091B5
:102AE0009B02813069F04429552966297729CB0159
:102AF000BA0160237123822393230E944208A2CE4D
:102B0000402A512A622A732ACB01BA016429752905
:102B100086299729F2CF44295529662977290091DA
:102B200098021091990220919A0230919B02CB0158
:102B3000BA016027712782279327DFCF1F70FF20FC
:102B400029F0812F0E948908802FD3CE802F0E94E8
:102B5000B404812F0E944E0875CE802FE2EFBE167E
:102B600009F44EC0EB1578F0F0EFBF1619F121EF24
:102B7000B21609F43DC0FF2009F465C0E11046CE4D
:102B8000812F8F713AC033EFB31609F43EC094EF32
:102B9000B912F1CFFF2009F44BC01F71812F0E94A1
:102BA0008908F8E01F9FC0011124836080939C0274
:102BB000812F23C0FF20B9F0E11044CE1F7161E0E6
:102BC00070E080E090E004C0660F771F881F991FB7
:102BD0001A95D2F7009198021091990220919A02C9
:102BE00030919B02A6CFE1E0EE1508F42BCEE6CFA4
:102BF000812F8F71FF2009F4ADCF0E94890822CE6A
:102C0000812F8F71FF20C9F3A5CF60E070E0CB0169
:102C1000FF2009F472CF1F7161E070E080E090E066
:102C200004C0660F771F881F991F1A95D2F765CFCA
:102C300081E00E94710821E02E1508F003CE82E0A9
:102C40000E947108FFCDE1107ACE812F8F7182CF63
:102C5000E2EFBE16D1F1EB1500F1F0EFBF1649F12E
:102C600021EFB216D1F180912702EE2009F441C084
:102C7000882341F08091280291E0892780932802DF
:102C800010922702802FF110C2CD0E94190586E014
:102C9000F60111928A95E9F7D5CD34EFB316C1F05C
:102CA000B31688F085EFB812DECFF110CBCD81E0FE
:102CB00007C0FF2009F4C6CD8091280291E0892742
:102CC00080932802BFCD81E0F826F0922802BACD89
:102CD000F110B8CD10922802B5CDFF2039F08091C7
:102CE0002702882349F310922702ACCDEE2021F36E
:102CF000A9CD882309F4A6CDF110A4CD8091280296
:102D000091E0892780932802EECF85E0DE011196BD
:102D100001900D928A95E1F7F601228189819A81CD
:102D2000211148CA0E943E04082F4CCA06311C4596
:102D300089F4809126028111F5CC89E20E94DF039B
:102D4000D8CC01152CE5120709F4EECC0E3D1C453C
:102D500009F427CDF60100811181882309F438CDCB
:102D6000C8010E944A07F82E682FC8010E94670414
:102D7000B8018F2D0E94B2058C01B82EF601E580B6
:102D8000E2943FE0E322F280F11010929E028091E3
:102D90009C02877079F0FF2069F080E2800F883014
:102DA00048F082E00E94710880919C028770AA24FA
:102DB000A3948111A12C912E92942FE09222FBE0FA
:102DC000F91508F43FCDE92DF0E0E753F14E0C94EE
:102DD0002F1D1F93CF93DF9380912E02807FC1F42C
:102DE00080912B028823A1F080916002C0912F0274
:102DF0006091290270912A0240912C0250912D027B
:102E0000D62FD723DA01A095B09516E0C81304C0D9
:102E1000DF91CF911F91089590E04115510511F078
:102E2000DF3F31F401968770F1CF2A0F3B1F17C0A7
:102E3000189FF001199FF00D1124E05DFD4F2181D5
:102E40002713F0CF20812613EDCF22812111EACF65
:102E5000238134812417350740F3241B350B283C8C
:102E6000310500F720912E022F70206120932E0251
:102E700026E0289FF001299FF00D1124EB5CFD4F07
:102E800080818F708061808389E292E00E94A2102D
:102E9000DF91CF911F910C949504BF92CF92DF9256
:102EA000EF92FF920F931F93CF93DF93CDB7DEB7CF
:102EB00061970FB6F894DEBF0FBECDBF8C0185E0E1
:102EC000F801DE011D9601900D928A95E1F7D80177
:102ED0002C9111963C9111971296EC90129780913B
:102EE0002C0290912D02009709F463C140912902B0
:102EF00050912A02642F65236F3F09F45AC113963B
:102F0000CD90DC90B0902B02BB2009F413C1C81601
:102F1000D906C0F1F601E81BF90BCF01FF24F394A9
:102F2000883C910508F0F12C80912E02982F907F1B
:102F3000FF2009F4C1C091117DC0FE2C531327C09E
:102F4000421325C0E11023C08F70806180932E0250
:102F500089E292E00E94A21080912E02D80115967B
:102F60008C938F2D61960FB6F894DEBF0FBECDBF48
:102F7000DF91CF911F910F91FF90EF90DF90CF9055
:102F8000BF900895809590958C0D9D1DC7CFCD283D
:102F900029F0822F83238F3F09F035C180E0B82FBD
:102FA000B170DB2E80FF3CC08091600240912F0207
:102FB00056E0841315C02D873E878D859E850E941F
:102FC0008C07292F22952F702230F0F0243018F52D
:102FD0009F70F1F0F8019581907FD1F4D12C1EC043
:102FE00090E0589FF001599FF00D1124E05DFD4FD6
:102FF0006181361306C06081261303C06281E61228
:103000000FC001968770D5CF9F7011F0882331F3E0
:10301000805E883018F3C8010E94A210FD2CA1CF59
:10302000EE2009F49ECF80912E02816080932E02C3
:10303000F12C97CF531313C0421311C0E1100FC0EE
:10304000D80115968C93C8010E94A21086E0F80161
:10305000A9E2B2E001900D928A95E1F782CF2D8727
:103060003E878D859E850E949607882309F1EE2074
:10307000F9F080912E02803270F020912902309177
:103080002A0238872F831986DB86CA868C87CE0171
:1030900007960E94A21086E0F801A9E2B2E0019032
:1030A0000D928A95E1F70E94E916FF24F39459CF17
:1030B000C8010E94A210F9CF91110CC089E292E0E0
:1030C0000E94A21086E0E9E2F2E0DF011D928A95FB
:1030D000E9F747CF531312C0421310C0E1100EC0DE
:1030E000F8018583C8010E94A210E9E2F2E086E0BF
:1030F000DF011D928A95E9F7FB2C33CF2D873E87A0
:103100008D859E850E949607882391F2EE2081F29C
:1031100080912E02803208F4BECF20912902309196
:103120002A023A8329831B82DD82CC828E83CE01E0
:103130000196AFCFC816D90640F0C81AD90AB8EC24
:10314000CB16D10448F0F12CBDCF809590958C0D15
:103150009D1D883C9105B8F7FE2CEE2009F4A8CF00
:10316000531316C0421314C080912E0280FD6ECFFF
:10317000982F907F09F46ACFF8018583903F09F476
:1031800062CF982F907F905F8F70892B85835BCF64
:103190002D873E878D859E850E94960781117BCF66
:1031A00080912E02816080932E02C8010E94A2109D
:1031B000D8CEEE2009F47CCF2D873E878D859E8565
:1031C0000E949607F82E882309F472CF86E0F80152
:1031D000A9E2B2E001900D928A95E1F7809129026F
:1031E00090912A020E948C0792959F70963041F42C
:1031F0008091280291E089278093280290932702EA
:103200000E94E916AECE81E08E25C9CE1F93CF93E2
:10321000DF93CDB7DEB767970FB6F894DEBF0FBE6A
:10322000CDBF6D8B7E8B8F8B8E899F89892BE1F033
:10323000852F84238F3F09F098C05FEF4FEF14C0B4
:1032400030912802332309F44EC0E42FF0E036E039
:10325000539FE00DF11D1124EE0FFF1FED5EFE4F99
:1032600040815181822B8C931A8A198A4B8B5C8BFB
:1032700085E0FE017396DE011D9601900D928A9500
:10328000E1F786E0FE013D96DE01179601900D9272
:103290008A95E1F7CE0107960E944D17811112C061
:1032A00086E0FE013796DE01119601900D928A9517
:1032B000E1F78A859B85892B29F08F819885892361
:1032C0008F3FC9F516E08091600290912F0289131B
:1032D00020C067960FB6F894DEBF0FBECDBFDF915A
:1032E000CF911F91089580958223BDCF96E0929F44
:1032F000D001939FB00D1124A05DBD4FFE0131960A
:1033000001900D929A95E1F780932F020E94950407
:10331000D9CF819FC0011124805D9D4F0E944D1720
:103320008823B9F28091600290E001968770992716
:1033300080936002C8CF20912F0230E0C90101962E
:1033400087709927409160024817190679F60E9404
:10335000D40A10922F021092600286E0E9E2F2E0B5
:10336000DF011D928A95E9F7ADCF81E090E0042E50
:1033700001C0880F0A94EAF7A52FB0E0AA5EBD4FFE
:103380002C913D8931115CCF322F38235BCF8F9246
:103390009F92AF92BF92CF92DF92EF92FF920F93E4
:1033A0001F93CF93DF938091060190910701892BA2
:1033B00091F080910E028F5F80930E0281110BC0FD
:1033C0000E94020E90E09093070180930601892BE2
:1033D00011F40E94E00903EB12E07801C0E0912CA7
:1033E00037E0C32ECC0E8C2F0E94AE0D8C2D0E9488
:1033F000AE0D8C2F0E94790ED7019D917D01D12CAD
:10340000891729F0FD0131978083DD24D3948C2D19
:103410000E94790EF7019681891709F466C08683A8
:1034200081E08D29982A0E94AA08CF5FC730C1F693
:103430000E940A106AEF70E00E941B1D882ED09136
:103440000D02DD2309F45DC010920D02E091A90286
:10345000F091AA027F012EE0E20EF11C40E0CBEFDA
:103460002AEFC22ED12C51915B3F81F0652F70E085
:10347000282D392F8517D8F1261B370B2E31310512
:10348000E4F19F0121503109D901CC93EE16FF06DA
:1034900051F740930D02911002C0411134C01092B7
:1034A0000C02A091A902B091AA0220910D02E6ECB3
:1034B000F2E044ED52E090E06191E80139918E0133
:1034C000631751F06C916B3FD1F48C93BF01615045
:1034D0007109EB01388321E011964E175F0761F700
:1034E00020930D0290930C0212C080E09ACFD60177
:1034F000A61BB70B2A0F3B1FC1CF4D2FC7CF91E0A3
:10350000EBCF9110CCCF90910C029111C8CF892DA7
:10351000DF91CF911F910F91FF90EF90DF90CF90AF
:10352000BF90AF909F908F900895CDB7DEB72A9748
:103530000FB6F894DEBF0FBECDBF84B7877F84BFC0
:103540000FB6F894A8958091600088618093600020
:10355000109260000FBE80E890E00FB6F894809360
:103560006100909361000FBE85B7806885BF85B705
:10357000806885BF0E9406020E94D1028091E2000D
:1035800084608093E2007894809109038823A1F0FD
:103590001091E9001F709091EC00892F817090FDCF
:1035A00080E8182B1092E9008091E80083FD0E94CA
:1035B000E90A1F701093E90082E084BD93E095BD95
:1035C0009AEF97BD80936E000E94020E90E0909358
:1035D0000701809306010E94AA080E94B908A3EB84
:1035E000B2E0E6ECF2E011921D9222E0E43DF20737
:1035F000D1F78EE090E00E947D1D8093A902909308
:10360000AA02FC010E962BEF2193E817F907E1F7C8
:1036100090E080E00E94431D8F3E9E4F11F00E947B
:10362000600A8CE090E00E94351D90E0B0E0A0E0E0
:103630008093AB029093AC02A093AD02B093AE0224
:1036400089EA8093800089E08093810024982C98F7
:103650003F988AB18F7C8AB96E98479A8BB1806304
:103660008BB9769A8FE090E00E943D1D6093AF0287
:103670007093B0028093B1029093B20267708FEFA3
:10368000689FB001112475956795759567957727A3
:10369000709389006093880070938B0060938A0018
:1036A00070938D0060938C000E94E00990E080E0B0
:1036B0000E94431D8F3E9E4F11F00E94600A82E0DF
:1036C00090E00E94351D8093D5020E94C00890931F
:1036D000C2028093C10283E090E00E94351D682FF2
:1036E00070E090E080E00E94030588E091E0909314
:1036F000C4028093C302EE24EA9480E1A82E92E1F2
:10370000B92E28E1C22ED12C30E4932E80910903EA
:103710008530D1F10E94C719E6EDF2E0A6ECB2E0E7
:1037200010E000E0302F8D912191281709F479C025
:1037300090E0FF24F3942827422F4F2109F46CC016
:1037400099833A838F2191E009F490E09B830E9452
:103750000A108160782F9D838C8349815A816B8107
:103760008D810E940619F801EA52FD4F8081F826EA
:10377000F0820E940D059091D402891739F20E94BF
:103780000D058093D402C2CF80910903843009F1E2
:103790001092C5020FB6F894A895C09260000FBEB3
:1037A0009092600083B7817F846083BF83B781601C
:1037B00083BF7894889583B78E7F83BF0FB6F894C4
:1037C000A8958091600088618093600010926000ED
:1037D0000FBE80910803882309F498CF0E94020E3F
:1037E00090E090930701809306010E94AA080E942E
:1037F000B908E6ECF2E0119282E0E43DF807D9F76F
:103800000E94C719E6ECF2E08191811120C022E00C
:10381000E43DF207C9F77ACF9F5FFF0C963009F0BD
:103820008BCF0F5F1F4F0E30110509F07BCFEE825B
:10383000EF8218860E940A108160782F9A87898704
:103840004E815F8168858A850E94061992CFA9BC46
:10385000B9BC09B400FEFDCF8091D8008F7D809364
:10386000D8008091E00082608093E0008091E000C9
:1038700081FDFCCF4BCF1F921FB61F9211248F9357
:103880009F93AF93BF938091C502811113C0809124
:10389000A5029091A602A091A702B091A80241961C
:1038A000A11DB11D8093A5029093A602A093A7022B
:1038B000B093A802BF91AF919F918F911F901FBEAF
:1038C0001F9018951092B9008CE08093B80008956D
:1038D000EF92FF920F931F93CF93DF93182FEB017B
:1038E0001092BC0084EA8093BC000E940A107C0104
:1038F0008091BC0087FF27C08091B900887F883005
:1039000029F08091B900887F8031D9F51093BB00F0
:1039100084E88093BC000E940A108C018091BC0056
:1039200087FF24C02091B900287F90E080E02831F3
:10393000B1F081E090E0203411F490E080E09195C6
:10394000819591090CC0CF3FDC0791F20E940A10CB
:103950008E199F098C179D0758F28EEF9FEFDF910C
:10396000CF911F910F91FF90EF900895CF3FDC070B
:10397000A9F20E940A10801B910B8C179D0770F210
:10398000ECCF8FEF9FEFEBCF0F931F93CF93DF938E
:10399000EB018093BB0084E88093BC000E940A1076
:1039A0008C018091BC0087FF11C02091B900287F55
:1039B00081E090E0283211F490E080E091958195CB
:1039C0009109DF91CF911F910F910895CF3FDC07AF
:1039D00041F30E940A10801B910B8C179D0708F37E
:1039E0008EEF9FEFEECF0F931F93CF93DF93EC01FA
:1039F00084E88093BC000E940A108C018091BC0076
:103A000087FF08C08091BB0090E0DF91CF911F91AC
:103A10000F910895CF3FDC0789F30E940A10801BA5
:103A2000910B8C179D0750F38EEF9FEFEECF84E93B
:103A30008093BC000895AA1BBB1B51E107C0AA1FBD
:103A4000BB1FA617B70710F0A61BB70B881F991F3F
:103A50005A95A9F780959095BC01CD010895EE0F78
:103A6000FF1F0590F491E02D0994F999FECF92BDC6
:103A700081BDF89A992780B50895A6E1B0E044E0A9
:103A800050E00C946F1DA8E1B0E042E050E00C94CF
:103A90006F1D262FF999FECF92BD81BDF89A01972F
:103AA00000B4021639F01FBA20BD0FB6F894FA9A86
:103AB000F99A0FBE08950396272F0E944A1D0E946F
:103AC000491D252F0E944A1D242F0C944A1D019642
:103AD000272F0E944A1D0C94491DDC01CB01FC01DB
:103AE000F999FECF06C0F2BDE1BDF89A319600B457
:103AF0000D9241505040B8F708950F931F93CF9304
:103B0000DF938230910510F482E090E0E09115039C
:103B1000F091160330E020E0B0E0A0E0309799F497
:103B20002115310509F447C0281B390B2430310514
:103B3000C0F58A819B816115710571F1FB01938349
:103B40008283FE0111C04081518102811381481797
:103B50005907F8F04817590799F4109761F0129631
:103B60000C93129713961C933296CF01DF91CF914D
:103B70001F910F9108950093150310931603F4CF2E
:103B80002115310519F04217530718F49A01BD01A8
:103B9000EF01DF01F801C2CF909316038093150364
:103BA000D0CFFE01E20FF31F819391932250310990
:103BB00039832883DACF2091130330911403232B08
:103BC00041F42091020130910301309314032093BA
:103BD000130320910001309101012115310541F4B9
:103BE0002DB73EB74091040150910501241B350BC0
:103BF00040911303509114034217530708F0B5CFB7
:103C0000241B350B2817390708F4AFCFBC016E5FB2
:103C10007F4F2617370708F4A8CF640F751F7093DE
:103C2000140360931303FA01819391939ECFCF9372
:103C3000DF930097E9F0FC01329713821282C09162
:103C40001503D0911603DE0130E020E02097A1F4A7
:103C500020813181820F931F20911303309114032F
:103C60002817390709F067C0F0931403E093130392
:103C7000DF91CF910895DA01AE17BF0708F040C079
:103C800012964D915C9113979D014115510599F73D
:103C9000D9011396FC93EE9312974D915D91A40F69
:103CA000B51FEA17FB0779F4808191810296840F92
:103CB000951FD90111969C938E93828193811396BF
:103CC0009C938E931297B0E0A0E08A819B8100972D
:103CD000B9F5FE0181919191E80FF91F80911303CD
:103CE000909114038E179F0719F6109761F51092A3
:103CF000160310921503D0931403C0931303B8CF87
:103D0000B383A28340815181840F951FA817B907FF
:103D100071F44E5F5F4F8D919C911197480F591F21
:103D20005183408312968D919C91938382832115B8
:103D3000310509F0ADCFF0931603E093150398CF4A
:103D4000DE01EC01C2CF13961C921E921297D3CFC4
:103D5000F894FFCFA507A507AE07AE07B007AE07DB
:103D6000AE07AE07A507A507B507AE07AE07B507AF
:103D7000290835083A08330838083F083D08CC0BB5
:103D8000F40B960DF40B960D270C480C960D510D67
:103D90005E0DED13ED135D145D14AE1422142816A0
:0A3DA0002214C8149E15AD15AD15D0
:103DAA0000001703200020009103100990030A095C
:103DBA00010901000D010D020D030D040D050D0091
:103DCA000C010C020C030C040C050C000B010B0279
:103DDA000B030B040B050B000A010A020A030A046F
:103DEA000A050A000901090209030904090509006B
:103DFA000801080208030804080508000701070269
:103E0A00070307040705070006010602060306045E
:103E1A00060506000501050205030504050505005A
:103E2A000401040204030404040504000301030258
:103E3A00030303040305030002010202020302044E
:103E4A00020502000101010201030104010501004A
:103E5A000001000200030004000500818283E200E1
:103E6A00E900EA00B500B600B700CD008301CC0036
:103E7A008A019201940121022302240225022602C8
:0C3E8A0027022A02B300B4006F00700091
:00000001FF
