:100000000C94D5010C94F2010C94F2010C94F201C1
:100010000C94F2010C94F2010C94F2010C94F20194
:100020000C94F2010C94F2010C94FE0B0C948E10C3
:100030000C94DD1E0C94F2010C94F2010C94F2016C
:100040000C94F2010C94F2010C94F2010C94F20164
:100050000C94F2010C94D50C0C94F2010C94F20166
:100060000C94F2010C94F2010C94F2010C94F20144
:100070000C94F2010C94F2010C94F2010C94F20134
:100080000C94F2010C94F2010C94F2010C94F20124
:100090000C94F2010C94F2010C94F2010C94F20114
:1000A0000C94F2010C94F2010C94F2010501098008
:1000B000A101850319012AB700150126B700950192
:1000C00075108100C0050C0901A101850419012AE0
:1000D000A002150126A002950175108100C005013E
:1000E0000906A1018505050719E029E71500250185
:1000F0009508750181020507190029EF15002501F2
:1001000095F075018102050819012905950575010C
:100110009102950175039101C005010902A1010930
:1001200001A100050919012905150025019505758D
:10013000018102950175038101050109300931151D
:1001400081257F95027508810609381581257F95DF
:100150000175088106050C0A38021581257F950175
:1001600075088106C0C005010906A101050719E04F
:1001700029E715002501950875018102950175088B
:1001800081010507190029FF150026FF0095067556
:100190000881000508190129059505750191029549
:1001A0000175039101C035002B00E000E200290039
:1001B00000001E00140004001D004A0006011F007C
:1001C0001A0016001B004D00E10020000800070087
:1001D00006004C002C0021001500090019002A001F
:1001E0001901220017000A000500000001582C0820
:1001F0004B0000004E000000010039002F000000FD
:1002000030000000AA0023001C000B0011000000B9
:10021000A900240018000D00100050004600250021
:100220000C000E00360051002800260012000F00BE
:1002300037005200E50027001300330038004F005C
:100240004900310034002D002E00E300000044007E
:10025000010001000100010000003A00010001005E
:100260000100010001003B0001000100010001004C
:10027000F5003C000100010001000100F4003D0018
:10028000010001000100010001003E000100010029
:100290000100000001000100010000000100000059
:1002A000005C0100010000000100000001003F00AF
:1002B0005F005C00590000000100400060005D002C
:1002C0005A00F2000100410061005E005B00F10095
:1002D000F9004200620001006300F000FA004300F0
:1002E000010055005400F3000100450001005600D4
:1002F00057000100000009025400030100A0FA09A0
:100300000400000103010100092111010001224044
:10031000000705810308000A090401000103010226
:1003200000092111010001224D0007058203080088
:100330000A09040200010300000009211101000163
:10034000226D000705830320000A1201100100003E
:1003500000089732744901000102000116034500AC
:10036000720067006F0044006F00780020004500B5
:100370005A00000030035A0053004100200054008E
:100380006500630068006E006F006C006F0067001E
:10039000790020004C0061006200730020004900D9
:1003A0006E00630000000403090411241FBECFEF98
:1003B000DAE0DEBFCDBF11E0A0E0B1E0E4E2F3E4BB
:1003C00002C005900D92AC3FB107D9F723E0ACEF26
:1003D000B1E001C01D92A833B207E1F70E94341CBE
:1003E0000C945E210C940000E8EDF0E080818E7F9B
:1003F00080831092E2001092DA001092E100A0EEE9
:10040000B0E08C9181608C9380818F77808319BC60
:10041000A7EDB0E08C918E7F8C9380818F7E80835E
:100420001092020308952091E4003091E50095E6D2
:10043000A9012091EC00822F817020FF06C08091DD
:10044000E80080FF06C080E008952091E80022FDCA
:100450001AC080912703882389F0853089F0809124
:10046000EB0085FD0FC02091E4003091E5004217BC
:100470005307F9F29150E1F684E0089582E008957F
:1004800083E0089581E00895EF92FF920F931F9308
:10049000CF937C018B010E941302C82F811117C0DA
:1004A0008091E80085FD0BC08091E8008E778093F5
:1004B000E8000E941302882399F3C82F08C0F701AF
:1004C00081917F018093F1000150110949F78C2F30
:1004D000CF911F910F91FF90EF9008958091290384
:1004E00087FF13C08091E80082FF06C08091E8007A
:1004F0008B778093E80004C0809127038111F2CFAD
:100500000895809127038823D9F38091E80080FF24
:10051000F8CF8091E8008E77ECCF982F9093E90088
:10052000242F762F50E0891731F07091EC00209144
:10053000ED005091F00021FD07C09F5F973071F7EB
:100540008093E90081E008953091EB003E7F309385
:10055000EB003091ED003D7F3093ED003091EB00EA
:1005600031603093EB007093EC002093ED005093DA
:10057000F0002091EE0027FDE0CF80E00895CF92BB
:10058000DF92EF92FF920F931F93CF93DF93C8ED0B
:10059000D0E088818F7E8883E7EDF0E08081816004
:1005A000808384E082BF81E08093020388818E7F14
:1005B000888302EE10E0F80110821092DA0081EEDA
:1005C000C82ED12CF601108288818F77888388818C
:1005D0008068888388818F7D888319BC1092270367
:1005E00010922803109226031092250390EEE92E14
:1005F000F12CF70180818B7F8083888181608883E3
:1006000042E060E080E00E948D02F60180818E7FF2
:100610008083F8018081816080838081886080830D
:10062000F70180818E7F8083888180618883DF915C
:10063000CF911F910F91FF90EF90DF90CF90089591
:10064000FC0180912F039091300386179707A0F04B
:100650006115710529F49091E8009E779093E80068
:1006600090E06115710551F4911108C08091E80086
:1006700082FF34C080E00895BC01F2CF809127034F
:100680008823C1F18530C1F18091E80083FD30C03D
:100690008091E80082FDEACF8091E80080FFE1CF01
:1006A0008091F3002091F200382F6115710519F047
:1006B0002830310558F091E02830310509F090E0FC
:1006C0002091E8002E772093E800CBCF8191809392
:1006D000F100615071092F5F3F4FE7CF80912703F1
:1006E000882341F0853041F08091E80083FFBECF40
:1006F00081E0089582E0089583E0089580910403E5
:1007000008959091EE02803F59F48091EF0287FFA7
:100710000DC01092EF0291110BC01092EA0208C0B6
:10072000813F81F48091EF0218169CF3992381F0A8
:100730008091F0029091F102892B09F064C010922F
:10074000E7020895823F49F497FFF0CF1092EE023E
:100750008091EF028111ECCFE0CF833F19F419169D
:10076000ACF3E4CF2091F002893F29F41216F4F69D
:100770001092F002DBCF8A3F19F427FFD7CFF8CFD2
:100780002091F1028B3F29F427FFD0CF1092F10284
:10079000CDCF8C3F19F41216CCF3C8CF843F31F47F
:1007A0008091ED028E7F8093ED02C0CF853F21F4D2
:1007B0008091ED028D7FF7CF863F21F48091ED028D
:1007C0008B7FF1CF873F21F48091ED02877FEBCFC4
:1007D000883F21F48091ED028F7EE5CF8D3F31F48B
:1007E0008091B7028E7F8093B702A0CF8E3F21F415
:1007F0008091B7028D7FF7CF8F3F09F097CF80911F
:10080000B7028B7FF0CF08958091B70280FD1AC0A8
:1008100081FD14C082FD14C08091E702882391F00D
:100820008C3370F427E0829FC00111246CE370E0E8
:100830000E94D11F862F672B29F0089583E0089529
:1008400087E0089581E008958091B70280FD16C089
:1008500081FD16C082FD18C08091EA02882391F0C4
:100860008C3390F423E2829FC00111246CE370E08A
:100870000E94D11F862F672B49F0089588E00895C4
:1008800081E1089585E0089583E2089581E0089567
:10089000803F31F40E94240481958093EF020895F3
:1008A000813F19F40E942404F8CF823F31F40E9462
:1008B000240481958093EE020895833F19F40E94E9
:1008C0002404F8CF893F29F40E9404048093F002A5
:1008D00008958A3F21F40E9404048195F7CF8B3F4D
:1008E00031F40E94040481958093F10208958C3FB5
:1008F00019F40E940404F8CF843F31F48091ED0292
:1009000081608093ED020895853F21F48091ED028E
:100910008260F7CF863F21F48091ED028460F1CFB1
:10092000873F21F48091ED028860EBCF883F21F46E
:100930008091ED028061E5CF8D3F31F48091B70267
:1009400081608093B70208958E3F21F48091B702B1
:100950008260F7CF8F3FB9F78091B7028460F1CF03
:100960009C014FB7F8948091B3029091B402A0918A
:10097000B502B091B6024FBF821B930B0895209130
:1009800012012223C9F02091D40227FF15C0E62FBF
:10099000E695E695E695EE31D8F4E80FF92FF11DCE
:1009A000677021E030E001C0220F6A95EAF72095D8
:1009B0008281282322830895FC0132960896219192
:1009C000621303C0DF0111971C92E817F907B9F70A
:1009D0000895209112012223C1F02091D40227FF13
:1009E00014C0E62FE695E695E695EE31F8F4E80FAB
:1009F000F92FF11D677021E030E001C0220F6A95E8
:100A0000EAF78281822B82830895FC0132962FEFD0
:100A100030E04191641751F02F3F19F4411101C0AA
:100A2000232F3F5F3630A9F72F3F09F40895820F37
:100A3000911D27FD9A95FC01628308958091AE0275
:100A400081111092AE0208958091AD029091AC0296
:100A5000892B9091AB02892B8093FC019091AE027F
:100A60009923A1F0892B8093FC01809112018823A6
:100A700041F18091D40287FF24C08EE1EEEFF1E0D6
:100A800090E0815000F591110E941E05E091D60280
:100A9000F091D7023097E1F080911201882359F04C
:100AA0008091D40287FF07C08091FC018093FD01F3
:100AB00085E08093FC010280F381E02D8CEF91E0D2
:100AC000099486E0DBCF21912223D9F29F5FD9CF11
:100AD0000895E92FEE0FE90FEE0F8E0F982F977004
:100AE00086958695869525E0829FF0011124ED5824
:100AF000FD4F50E040E080E0219130E0092E02C03F
:100B0000369527950A94E2F721703327042E01C009
:100B1000220F0A94EAF7822B4F5F5F4F4530510551
:100B200059F70895E92FEE0FE90FEE0F8E0F982F6A
:100B3000977041E001C0440F9A95EAF78695869533
:100B4000869595E0899FF0011124ED58FD4F30E026
:100B500020E070E05191DF011197CB01022E02C01D
:100B6000969587950A94E2F781708195852784236D
:100B700085278C932F5F3F4F2530310559F7089516
:100B80008091720290914102981301C008958F5F85
:100B90008770FACF882341F080959091AC02892329
:100BA0008093AC020C9424050895882339F0909129
:100BB000AC02982B9093AC020C94240508958823E2
:100BC00041F080959091AD0289238093AD020C9401
:100BD00024050895882339F09091AD02982B9093C5
:100BE000AD020C942405089520912502309126022F
:100BF0002817390771F09093260280932502E0911F
:100C0000D602F091D702309721F00084F185E02DD3
:100C1000099408952091230230912402281739075E
:100C200071F09093240280932302E091D602F09118
:100C3000D702309721F00680F781E02D09940895BE
:100C4000E091D602F091D702309721F00190F08127
:100C5000E02D099480E008959091D40292FF06C09F
:100C6000282F28712830F9F4877F846093FF06C00D
:100C7000282F28712831F1F4877E84612091D502D4
:100C800020FF06C0382F38713830D9F4877F816053
:100C900021FF06C0282F28712831D1F4877E816179
:100CA00094FD877E0895282F24712430F9F68B7FD8
:100CB0008860DCCF282F2471243101F78B7E886176
:100CC000DDCF382F3171313019F78E7F8860E0CF5A
:100CD000282F2171213121F78E7E8861E1CFCF93BA
:100CE000DF93972F70E026E0929F600D711D112415
:100CF000FB0134E5839FE00DF11D1124EE0FFF1F72
:100D0000EA55FE4FC591D491CE01C238D105B9F153
:100D1000E8F5C133D10509F499C050F5C932D105C0
:100D200009F48DC0CA32D10509F497C0C11542E556
:100D3000D40708F0C4C0C11521E5D20708F038C1B6
:100D4000C83ED10508F09DC0C03ED10568F5C83A3F
:100D5000D10508F089C0C53AD10508F005C1C130F8
:100D6000D10511F1209709F443C02497E8F440C05D
:100D7000C533D10509F45CC0C933D105B9F620915A
:100D8000D402237089F080EE90E00EC0C33ED105FE
:100D900091F168F4C03ED105F9F0C23ED10531F6BB
:100DA0002091D40222FD20C0DF91CF910895C63E4C
:100DB000D10561F1C73ED10581F1C43ED10509F0ED
:100DC000B5CF2091D50221FFEFCF8091D40284FDD1
:100DD0000FC087EE90E0E8CF2091D40220FD19C12A
:100DE0003091D50230FFE0CF83EE90E024FFDCCFDE
:100DF00090E080E0D9CF2091D40222FD0DC1309146
:100E0000D50230FDC0CF24FFCFCFF2CF2091D40246
:100E100023FFCACF24FDECCFDCCF2091D40223FDE9
:100E2000FEC03091D50231FFEECF84EE90E0BCCF12
:100E30002091D40225FFB8CF89E290E0B5CF209170
:100E4000D40225FFB1CF85E390E0AECF2091D4024C
:100E500026FFAACF8AE290E0A7CF2091D40226FFF6
:100E6000A3CF81E390E0A0CFCF3BD10508F6C85ACD
:100E7000D0E0CC0FDD1FC254DE4F8881998194648D
:100E800093CFC11530E2D30760F4C11541E0D40718
:100E900008F08ACFCE019065C03FD10508F084CF1D
:100EA000A7CFC11580E4D80708F4A2CFC11590E5FB
:100EB000D90708F061C0CE019F70906A75CFC11547
:100EC00026E5D20718F5C11535E5D30708F086C029
:100ED000C11544E5D40708F07CC09C2F96959695E3
:100EE000AE0143705527C115D34508F466C021E013
:100EF00030E002C0220F331F4A95E2F740E2949F90
:100F0000C0011124822B932B9A684ECFC1159AE50C
:100F1000D90778F4C11529E5D20708F069C0C115D1
:100F200038E5D30708F464CF9C2F8827806F906A38
:100F30003BCFC1154BE5D40708F45ACFC1158CE55A
:100F4000D80708F462C0CE0190568115904208F08F
:100F50004FCF8D2F8F710E942C0690E0982F8827FD
:100F600088279F718C2B42C0C55AD0E0C554DE4FF4
:100F7000888190E0906418CF9E01E4E03695279533
:100F8000EA95E1F723708C2F86958695837030E281
:100F9000839FC0011124922BC37021E030E002C076
:100FA000220F331FCA95E2F7822B932B9C68FCCE4D
:100FB0009C2F8827816F906AF7CE21E030E002C035
:100FC000220F331F4A95E2F740E2949FC00111249B
:100FD000EBCF9C2F8827846F906AE6CE8C2F0E94DF
:100FE0002C0690E0982F882788279F719062DCCE8E
:100FF0008C2F8F700E942C0634E0D695C7953A95B9
:10100000E1F7CF709C2F9069CFCECE0199279066E3
:10101000CBCE89E390E0C8CE82EE90E0C5CE86EEDE
:1010200090E0C2CEBF92CF92DF92EF92FF920F93E9
:101030001F93CF93DF938C01C090D002D090D10248
:10104000E090D202F090D3028091AF029091B00272
:10105000A091B102B091B202C82AD92AEA2AFB2A89
:10106000CFE1D0E0BC2ED701C6010C2E04C0B6954E
:10107000A795979587950A94D2F780FD0EC0219782
:1010800088F7B12C8B2DDF91CF911F910F91FF909D
:10109000EF90DF90CF90BF900895B8018C2F0E9401
:1010A0006F06019761F3EECFCF93DF93EC010E94BF
:1010B0001208BE01DF91CF910C946F060E94540874
:1010C000292F2F7092959F7092509E3078F4E92FBF
:1010D000F0E0E05AFE4D0C94E51F803F19F020F43B
:1010E000883E20F481E00895843FE1F380E0089594
:1010F000883EC0F3813FD1F7F5CF822F8695869544
:1011000086950895CF93DF939C013A9521153F4131
:1011100068F5EC01CC27D170DC01AA27B270AC01D4
:10112000442754709C012227387094FF11C080E13D
:10113000CD2B09F480E0AB2B09F08062452B09F040
:101140008064232B09F08068FB01DF91CF91099423
:1011500081E0CD2B09F480E0AB2B09F08260452BB8
:1011600009F08460232B81F38860EECFDF91CF916B
:10117000089527982F98089526982E9808952598D1
:101180002D98089556985E980895279A2F9A089555
:10119000269A2E9A0895259A2D9A0895CF92DF9235
:1011A000EF92FF92CF936B017C01C701AA27BB2767
:1011B000C0E10097A105B10519F4D701CB01C0E04A
:1011C000492F5A2F6B2F772741155105610571055E
:1011D00019F0C85FDB01CA01AC01BD01E4E07695FE
:1011E000679557954795EA95D1F7411551056105E2
:1011F000710519F0CC5FDB01CA01AC01BD0132E021
:1012000076956795579547953A95D1F741155105CC
:101210006105710519F0CE5FDB01CA01B695A7958E
:1012200097958795892B8A2B8B2B09F0CF5F0E948E
:10123000C2080E94BF080E94BC080E94B908C150A1
:10124000C73040F4EC2FF0E0E259FE4D0C94E51F5E
:101250000E94CB08C701B601CF91FF90EF90DF90BD
:10126000CF9008950E94CB080E94C808F3CF0E9437
:10127000CB080E94C508EECF0E94CB080E94C80888
:10128000F8CF209828982198299822982A9823986E
:101290002B9852985A9853985B983E984698089580
:1012A0008098889A8198899A84988C9A85988D9A42
:1012B00086988E9A87988F9A0895CF93DF9300D05F
:1012C0000F92CDB7DEB790912703943019F589833B
:1012D0007B836A8383E08093E9008FEF9091E8003D
:1012E000815095FD06C095ED9A95F1F700008111AA
:1012F000F5CF8091E80085FF0DC050E040E063E04D
:1013000070E0CE0101960E9444028091E8008E7741
:101310008093E8000F900F900F90DF91CF91089588
:10132000BC0184E00C945D09BC0183E00C945D0970
:101330009C0182E08093E9009FEF8091E80091504A
:1013400085FD06C085ED8A95F1F700009111F5CF76
:101350008091E80085FF0CC050E040E065E070E05F
:10136000C9010E9444028091E8008E778093E800D2
:101370000895CF93DF93EC01809112018823B1F19E
:101380008091D40287FF32C060E283E08093E9005D
:101390008FEF9091E800815095FD06C095ED9A95EC
:1013A000F1F700008111F5CF8091E80085FF1BC0A7
:1013B0008091120170E050E040E0811104C050E0E3
:1013C00040E068E070E0CE010E9444028091E800B5
:1013D0008E778093E80080E2FE01A5E0B3E0019003
:1013E0000D928A95E1F7DF91CF91089568E081E051
:1013F000CDCFEF92FF920F931F93CF93DF930E9475
:10140000C2080E94BF080E94BC080E94B90888E870
:10141000E82EF12C8FEF90E0F701918380830AE8AA
:1014200010E0F80191838083CCE8D0E09983888331
:101430000E94CB08FFEF20E782E0F150204080407F
:10144000E1F700C000000E94C8089FEFE0E7F2E06B
:101450009150E040F040E1F700C000000E94C50854
:101460002FEF80E792E0215080409040E1F700C0EC
:1014700000000E94BF08EFEFF0E722E0E150F040EB
:101480002040E1F700C000000E94BC088FEF90E709
:10149000E2E081509040E040E1F700C000000E948F
:1014A000B9088091BE028770FFEF8F9FC0011124A1
:1014B00095958795959587959927F70191838083D1
:1014C000F80191838083998388830E94C2080E94D7
:1014D000BF080E94BC08DF91CF911F910F91FF9030
:1014E000EF900C94B908CF9384E090E00E94EB1F3A
:1014F000C82F81E290E00E94EB1F982F8C2FCF9194
:1015000008956FEE7EEF90E080E00E941D2060E085
:1015100082E090E00E94FF1F60E083E090E00E9484
:10152000FF1F1092AF021092B0021092B1021092FF
:10153000B20260E084E090E00E94FF1F60E081E280
:1015400090E00E94FF1F60E085E090E00E94FF1F96
:1015500060E086E090E00E94FF1F6FEF87E090E080
:101560000E94FF1F40E050E0BA0188E090E00E9436
:10157000112060E08DE090E00E94FF1F40E050E00D
:10158000BA0188E190E00E94112060E087E190E0DC
:101590000E94FF1F40E050E0BA018CE190E00E9401
:1015A000112060E080E290E00E94FF1F40E050E0E8
:1015B000BA0188E190E00E9411201092BE021092C0
:1015C000BF021092C0021092C10284E08061809339
:1015D000BE024091BE025091BF026091C002709164
:1015E000C1028FE090E00E94112040E050E0BA017B
:1015F00083E190E00C941120CF93C82F873070F5D1
:101600008091060190910701892B89F564E670E0CD
:1016100080E40E940A1F9093070180930601892BA2
:10162000D1F464E670E082E10E94661F90930701A6
:1016300080930601892B79F481E090E001C0880F46
:10164000CA95EAF764E670E080950E94661F909361
:10165000070180930601CF910C94B91F8A30B9F02D
:1016600040F4883071F0893079F0209A2898CF9131
:1016700008958C3091F070F08D30B9F73E9A46980D
:10168000F6CF219A2998F3CF229A2A98F0CF239A5D
:101690002B98EDCF529A5A98EACF539A5B98E7CF9E
:1016A00080E290E0909307018093060180911C02F4
:1016B00081110EC00E94041F81E080931C022FEF55
:1016C00083ED90E3215080409040E1F700C000009E
:1016D00064E670E080E40E940A1F90930701809303
:1016E0000601892B09F04EC064E670E080E00E949C
:1016F000661F9093070180930601892B09F042C071
:1017000064E670E080E00E94661F9093070180937A
:101710000601892BB9F564E670E08FE30E94661F2D
:101720009093070180930601892B61F50E94B91FF0
:1017300064E670E080E40E940A1F909307018093A2
:101740000601892BF9F464E670E08CE00E94661FC4
:101750009093070180930601892BA1F464E670E061
:1017600080E00E94661F9093070180930601892BF9
:1017700049F464E670E08FE30E94661F90930701CE
:10178000809306010E94B91F809106010895CF93AE
:10179000873050F58091060190910701C0E0892BB8
:1017A00071F464E670E081E40E940A1F90930701DF
:1017B00080930601892B31F0C0E00E94B91F8C2F65
:1017C000CF91089584E690E00E94951F97FF05C091
:1017D0009093070180930601EFCFC82FC095109218
:1017E000070110920601E9CFCFB18FB1869586959A
:1017F0008C73C3708C2BC82FC095E1CF1F920F92B2
:101800000FB60F9211242F933F934F935F936F93D3
:101810007F938F939F93AF93BF93EF93FF938091A9
:10182000E10082FF09C08091E20082FF05C0809143
:10183000E1008B7F8093E1008091DA0080FF24C07B
:101840008091D80080FF20C08091DA008E7F809345
:10185000DA008091D90080FF9BC080E189BD82E1E0
:1018600089BD09B400FEFDCF81E0809327038091FC
:101870000203811109C00E94F4010E94BF028091FD
:10188000E20084608093E2008091E10080FF17C055
:101890008091E20080FF13C08091E2008E7F8093F0
:1018A000E2008091E20080618093E2008091D800A4
:1018B00080628093D80019BC85E0809327038091D3
:1018C000E10084FF29C08091E20084FF25C080E10F
:1018D00089BD82E189BD89B5982F917080FFFBCFCA
:1018E0008091D8008F7D8093D8008091E1008F7E19
:1018F0008093E1008091E2008F7E8093E2008091EE
:10190000E20081608093E20080912803882309F43B
:1019100045C084E0809327038091E10083FF27C0C6
:101920008091E20083FF23C08091E100877F809354
:10193000E10082E080932703109228038091E10068
:101940008E7F8093E1008091E2008E7F8093E200A1
:101950008091E20080618093E20042E060E080E0FC
:101960000E948D028091F00088608093F000FF91CA
:10197000EF91BF91AF919F918F917F916F915F9107
:101980004F913F912F910F900FBE0F901F90189580
:1019900019BC109227031092020376CF8091E300C6
:1019A00087FD93E090932703B7CF78941F921FB6DB
:1019B0001F9211248F939F93AF93BF938091B30293
:1019C0009091B402A091B502B091B6020196A11D0A
:1019D000B11D8093B3029093B402A093B502B0936B
:1019E000B602BF91AF919F918F911F901FBE1F9024
:1019F00018952FB7F8948091B3029091B402A091FA
:101A0000B502B091B6022FBF08950E94F90C9C0157
:101A10009091EE028091EF02982B21F03093EC022E
:101A20002093EB029091F0028091F102982B21F02B
:101A30003093E9022093E802E091D602F091D702B8
:101A4000309731F00480F581E02D8DEE92E009941D
:101A500008951092AC021092AB020E94240585E01A
:101A6000EDEEF2E0DF011D928A95E9F71092EA02AD
:101A70001092E7021092B7020E94050D90E080E0FC
:101A80000E940A0690E080E00C94F4050E94CE08C3
:101A90006093D0027093D1028093D2029093D302CC
:101AA0000C94290D0F931F9341E050E060E070E02B
:101AB00004C0440F551F661F771F8A95D2F7CB01CC
:101AC000BA0160957095809590950091D002109123
:101AD000D1022091D2023091D3026023712382235C
:101AE00093231F910F910C94460D9091AA0280951B
:101AF00089238093AA02282F277071F4282F082E9B
:101B0000000C330B9217130639F085958595859552
:101B10000E94520D1092AA0208950F931F9341E064
:101B200050E060E070E004C0440F551F661F771F4F
:101B30008A95D2F78091D0029091D102A091D202E1
:101B4000B091D3028A019B01082B192B2A2B3B2B26
:101B5000C901B8011F910F910C94460D6093AF021B
:101B60007093B0028093B1029093B2020C94290D4D
:101B70001092AD0280911201EEEFF1E0882359F04E
:101B80008091D40287FF07C08EE1DF011D928A9504
:101B9000E9F70C94290D86E0F8CF1F93CF93DF93DC
:101BA000CDB7DEB7AA970FB6F894DEBF0FBECDBF94
:101BB00089E293E02091F100DC012D93CD01B3E0A7
:101BC00081339B07B9F780912A03833009F471C0F0
:101BD000B8F4813009F448C0823009F4B2C0809171
:101BE000E80083FF83C28091290390912A039A30F1
:101BF00008F07CC2E92FF0E0EB58FE4D0C94E51F95
:101C00008A3009F48DC08B3009F470C0893039F7FF
:101C100080912903813219F780912D0390912E0331
:101C2000009711F00297D9F68091E800877F8093A2
:101C3000E8008091E80082FF37C09091F300809126
:101C4000F200029729F48091F1008B7F813021F41A
:101C50008091F100809304038091E8008B7780935A
:101C6000E8000E946E02BBCF80912903813A09F0FF
:101C7000B6CF8091E800877F8093E80080912D03A4
:101C800090912E03892B61F460E285E093E070E08F
:101C90000E9420038091E8008B778093E8009FCF1B
:101CA00060E090E080E0F3CF809127038111C1CF05
:101CB00096CF80912903813A09F091CF80912D032D
:101CC00090912E03892B09F08ACF8091E800877FBD
:101CD0008093E8008091E80080FFFCCF80911201A2
:101CE0008093F1008091E8008E77B9CF809129032D
:101CF000813209F074CF80912D0390912E03892BAE
:101D000009F06DCF8091E800877F8093E8000E9402
:101D10006E0280912B03809312010E94B80D5FCF59
:101D200080912903813209F05ACF8091E800877FA2
:101D30008093E8000E946E0280912C03809303033D
:101D40004ECF80912903813A09F049CF8091E80074
:101D5000877F8093E8008091E80080FFFCCF80912E
:101D60000303BECF803899F0823809F0BFC180915B
:101D70002D038F70873008F0B9C18093E9008091FE
:101D8000EB0085FB882780F91092E90006C080915E
:101D9000250390912603911182609091E800977F2E
:101DA0009093E8008093F1001092F1008091E80098
:101DB0008E7798C1882309F486C1823009F096C1D4
:101DC00080912B03811189C180912D038F702FEF9A
:101DD000280F263008F08AC18093E9002091EB009B
:101DE00020FF7BC1933031F48091EB0080628093BF
:101DF000EB0073C19091EB0090619093EB0021E0B8
:101E000030E001C0220F8A95EAF72093EA00109291
:101E1000EA008091EB008860EACF811167C11091E0
:101E20002B031F778091E3008078812B8093E30060
:101E30008091E800877F8093E8000E946E02809185
:101E4000E80080FFFCCF8091E30080688093E3008E
:101E500082E0111183E08093270348C180588230CB
:101E600008F044C120912B0330912C032C3DE3E07A
:101E70003E07A1F583E08A838AE289834FB7F8940D
:101E8000DE01139620E03EE051E2E32FF0E05093B4
:101E90005700E49120FF03C0E295EF703F5FEF70C1
:101EA0008E2F90E0EA30C0F0C7968D939D932F5F00
:101EB000243159F74FBF8091E800877F8093E80075
:101EC0006AE270E0CE0101960E9420038091E80052
:101ED0008B778093E8000AC1C096E7CF80912D03ED
:101EE00090912E03432F55274330510509F44AC0E2
:101EF00078F54130510509F47AC084E590E0E6EFC9
:101F0000F2E04230510509F0F1C02091E800277F4E
:101F10002093E80020912F0330913003821793071C
:101F200008F49C0140E02115310509F065C041111C
:101F300063C08091E80082FDC9CF80912703882388
:101F400029F2853019F28091E80083FFF2CFBECFED
:101F50004132510509F43CC04232510509F0C6C076
:101F60008330910508F0C2C0FC01EE0FFF1FE15164
:101F7000FE4F0190F081E02D84519E4FDC018C9149
:101F800090E01AC0332721303105D1F021153105F9
:101F900061F02230310509F0A9C0ECE5F3E0E491ED
:101FA0008E2F90E0ECE5F3E007C0E6EAF3E0E49181
:101FB0008E2F90E0E6EAF3E0009709F497C0A5CFF2
:101FC000E4E7F3E0E4918E2F90E0E4E7F3E0F4CF70
:101FD0008330910508F08AC0880F991FFC01EB50EF
:101FE000FE4F0190F081E02D89E090E08ECF82E1FC
:101FF00090E0EAE4F3E089CF80912703882309F495
:1020000065CF853009F462CF8091E80083FD5ECF13
:102010008091E80082FD8DCF8091E80080FF83CF22
:102020009091F3008091F2002115310519F088306C
:10203000910550F041E0089709F040E08091E800F8
:102040008E778093E8006FCF44914093F1003196F2
:10205000215031090196E8CF803809F047C08091BE
:10206000E800877F8093E800809128038093F10047
:102070009DCE81113BC010912B031230B8F5809199
:10208000E800877F8093E800109328030E946E0287
:10209000112311F084E005C08091E30087FDFACFA1
:1020A00081E08093270342E061EC81E00E948D0291
:1020B00042E061EC82E00E948D0242E261EC83E04A
:1020C0000E948D0213C080912B03813079F481E04E
:1020D000933009F080E0809326031092E90080910C
:1020E000E800877F8093E8000E946E028091E800FC
:1020F00083FF0AC08091E800877F8093E800809189
:10210000EB0080628093EB00AA960FB6F894DEBFD6
:102110000FBECDBFDF91CF911F9108951F920F92F7
:102120000FB60F9211242F933F934F935F936F93AA
:102130007F938F939F93AF93BF93CF93DF93EF934F
:10214000FF93D091E900DF708091EC00C82FC1703F
:1021500080FDC0E81092E9008091F000877F8093B5
:10216000F00078940E94CD0D1092E9008091F0006B
:1021700088608093F000CD2BCF70C093E900FF9171
:10218000EF91DF91CF91BF91AF919F918F917F910F
:102190006F915F914F913F912F910F900FBE0F90D4
:1021A0001F9018958823B1F19CEF980F913A38F45D
:1021B000682F8CEF91E00E94BF040C94240590E2FC
:1021C000980F983088F4877021E030E0A90102C0B0
:1021D000440F551F8A95E2F7CA0180959091AD0290
:1021E00089238093AD02E9CF9BE5980F933020F4CB
:1021F00090E080E00C940A0698E5980F973120F45F
:1022000090E080E00C94F405803F20F00E94810370
:102210000C94050D0895CF93DF93EC010E94D2102A
:10222000CE01805E9109089720F06AEC75E0209756
:1022300011F46FED75E0CE01DF91CF910C9482081F
:10224000CF93C82F882309F46EC08CEF8C0F813A8E
:10225000B8F580911201882311F18091D40287FF93
:102260001EC0EC2FE695E695E695F0E0E450FE4FB3
:10227000828190E04C2F477021E030E002C0220FB5
:10228000331F4A95E2F782239323892B89F06C2F21
:102290008CEF91E00E94BF040E94240509C0EEEF7C
:1022A000F1E08191C81799F382E0E430F807C9F7AB
:1022B0006C2F8CEF91E00E94E904CF910C942405DF
:1022C00080E28C0F883068F4C77021E030E001C0F4
:1022D000220FCA95EAF78091AD02822B8093AD025E
:1022E000ECCFEBE5EC0FE33040F4F0E0E554FE4FCB
:1022F000808190E0CF910C940A06E8E5EC0FE7317D
:1023000050F4F0E0EE0FFF1FE254FE4F8081918108
:10231000CF910C94F405C03F30F08C2F0E944804FC
:10232000CF910C94050DCF910895CF93C82F0E94A3
:102330002011C93349F42FEF87EE93E021508040FC
:102340009040E1F700C000008C2FCF910C94D21088
:102350000F931F93CF93DF93C62FD42F022FFC012F
:1023600082818823A1F0609333030E94F90C90933B
:10237000320380933103C77081E001C0880FCA9592
:10238000EAF7DF91CF911F910F910C94EA058091AC
:102390003303681335C080913103909132030E945A
:1023A000B004883C910560F510E21D0FCD17B9F01F
:1023B00080E28C0F883040F4C77081E001C0880F44
:1023C000CA95EAF70E94DF05183048F481E09D2F96
:1023D000977001C0880F9A95EAF70E94EA05802F4E
:1023E0000E949511183098F4D77081E001C0880FD1
:1023F000DA95EAF7DF91CF911F910F910C94DF05E9
:10240000C77081E001C0880FCA95EAF7F3CFDF916A
:10241000CF911F910F910895CF93DF93EC01805ED0
:102420009109089720F065ED75E0209711F46AEEA8
:1024300075E0CE010E9482088C2FDF91CF910C9421
:1024400020114F925F926F927F928F929F92AF92E4
:10245000BF92CF92DF92EF92FF920F931F93CF9391
:10246000DF9300D000D00F92CDB7DEB76C01FC0136
:1024700083819481892B39F01081F180812F8F2104
:102480008F3F09F02AC60F900F900F900F900F907A
:10249000DF91CF911F910F91FF90EF90DF90CF9040
:1024A000BF90AF909F908F907F906F905F904F9074
:1024B00008950E941208082F682F89819A810E942E
:1024C0009205E12FF0E026E0F29EE00DF11D1124CF
:1024D00034E5039FE00DF11D1124EE0FFF1FEA55B7
:1024E000FE4F059114910A328DE51807F1F5F601BA
:1024F0008281882309F44DC08091BE0291E0980F3B
:102500009770887F953008F4892B8093BE02809164
:10251000BE028770FFEF8F9FC001112495958795AC
:10252000959587959927909389008093880090933B
:102530008B0080938A0090938D0080938C00409153
:10254000BE025091BF026091C0027091C1028FE043
:1025500090E00E9411206091D0027091D102809190
:10256000D2029091D3020E94CE08F6018281882384
:1025700009F45AC09801225E3C452530310508F027
:1025800053C06EE1600F6093BA028CE090E00E944D
:10259000FF1FF6018281882309F4B0C5109233032E
:1025A0000230FCE51F0708F4B7C506312CE5120719
:1025B00038F098012B5F3C452730310508F0ACC559
:1025C0000E94730A9093D5028093D4020F303CE5A9
:1025D000130709F4DEC108F058C108309CE519075B
:1025E00009F4C1C108F02DC10430FCE51F0709F44E
:1025F000AEC108F013C102303CE5130709F49FC1D6
:1026000003301C4509F49FC16091D4021091D5029A
:1026100084E090E00E94FF1F612F81E290E00E9421
:10262000FF1F0E94B80DC5C017FF9AC0882309F488
:10263000B0CFE091D602F091D70280E0309721F040
:102640000190F081E02D0995869581708093360286
:102650009091BA02913029F4882319F089E30E94FD
:1026600095118091AD02809335021092AD02809158
:10267000BA02813009F44AC0882309F443C0823089
:1026800009F44DC0843009F451C08FE39CE90197EF
:10269000F1F700C000004801E89497F8FCE0AF2E85
:1026A000B12CC4010A2C02C0969587950A94E2F7D2
:1026B0008F70E7E2EE2EF12C882339F0E82EF12C12
:1026C0008A30C8F59DE1E90EF11CC7010E940C1289
:1026D000C7010E940B11F4E0AF1AB1082CEFA2164B
:1026E0002FEFB206F1F68091BA02813061F18823B2
:1026F00031F1823021F1843089F18091350280936B
:10270000AD0247CF82EE0E942011BFCF88E193E057
:102710000E940C1288E193E00E940B11B6CF82EE6A
:102720000E94201187E50E949511AFCF86EE0E948E
:10273000951188E1F8CFE6E0EE1AF108C6CF82EEF7
:102740000E94D210DACF8CE20E949511809136025D
:10275000882399F289E30E949511CFCF88E2FBCFBD
:10276000043F3CE5130709F44AC098F4093D9CE591
:10277000190709F440C00A3DECE51E0709F44BC0F7
:10278000083DFCE51F0709F004CF26E241EE61EEAB
:102790000DC0063F2CE51207D1F1A8F127E245EE66
:1027A00066EE073F8CE5180709F0F3CEC6010E94DC
:1027B000A8118091AA02877009F465CEF601828182
:1027C000882309F460CE82E00F900F900F900F9055
:1027D0000F90DF91CF911F910F91FF90EF90DF90BD
:1027E000CF90BF90AF909F908F907F906F905F90B1
:1027F0004F900C94750D27E245EE65EED7CF26E29B
:1028000041EE60EED3CF27E245EE64EECFCF26E275
:1028100041EE62EECBCF28E241E0EFCF8091D402CF
:10282000806106309CE5190709F447C08091D40205
:10283000886007301C4508F440C08091D402806253
:102840003CC00B30FCE51F0709F49BC068F409305D
:102850003CE5130709F48BC00A301C4509F0D4CEBF
:102860008091D4028C6029C08091D4028B7F0D307E
:102870009CE5190711F18091D4028D7F0E301C4523
:10288000E0F08091D402877F18C00B3FFCE51F0762
:1028900009F461C060F502313CE5130709F481C019
:1028A00078F400319CE5190709F477C08091D402CF
:1028B0008F7B01311C4509F0A7CE8093D402A4CEB2
:1028C0000431FCE51F0709F47AC008F470C0053133
:1028D0001C4509F099CE8091D40282FB992790F98A
:1028E00021E0922790FB82F990FB83F9E6CF0E3F1F
:1028F0008CE5180709F449C070F40C3FECE51E079D
:1029000071F18091D5028E7F0D3F1C4509F07CCE80
:102910008093D50279CE01152DE5120709F44BC03D
:1029200060F101301D4509F06FCE8091D502982FDE
:10293000909591708E7F892B90FB81F9E9CF8091E2
:10294000D4028160BACF8091D4028260B6CF8091E8
:10295000D4028460B2CF8091D5028160D9CF8091BA
:10296000D5028260D5CF8091D4028064A6CF0E9428
:10297000B80D8091D4028068A0CF8091D502836089
:10298000C7CF8091D4028E7F98CF8091D5028D7F62
:10299000BFCF8091D4028F7E90CF8091D4028F7D63
:1029A0008CCF0E94B80D8091D4028F7786CF809112
:1029B000D402837F82CF8091D5028C7FA9CF0E94E1
:1029C000B80D9091D402892F97FB87F9805875CF65
:1029D000882349F001159CE5190709F44EC00F3D05
:1029E0001C4509F487C0F60100811181882309F490
:1029F00084C0C8010E941208F82E682FC8010E94E6
:102A00009205B8018F2D0E946F06082FF92EB82E5F
:102A1000F601E580E2947FE0E72212811111109225
:102A2000AC028091AA028770C1F01123B1F08F2D02
:102A3000807F803449F090E2900F983070F08036BB
:102A400019F4F6EFBF1649F082E00E94750D8091EF
:102A5000AA028770AA24A3948111A12C9F2C92947E
:102A60005FE095226BE0462E491408F481C0E92D01
:102A7000F0E0E158FE4D0C94E51F0E94B80DFFEF09
:102A800024E33CE0F15020403040E1F700C000007A
:102A9000F89481E08093E00080E28093D800109267
:102AA000C9008FE19EE40197F1F700C000001DBA54
:102AB000109268001CBC10BE1FBA10927A001092CF
:102AC0006E0010926F0010927100109272001092BE
:102AD000C9001092BC0014B817B81AB81DB810BAC3
:102AE0001092BC0015B818B81BB81EB811BA0C94D7
:102AF000003F5FCE0E94810A5CCEC8010E9469053A
:102B0000F82E7FCF2F2D2F70E22E8F2D807F19F082
:102B1000E29440EFE4221123C9F0EE2069F080E254
:102B2000800F883010F0B1100BC08091AD02E82A00
:102B3000E092AD020E942405802F0E94201118C04F
:102B40008091AC02E82AE092AC02F4CF802F0E9480
:102B5000D210EE2069F0E094005E083010F0B11061
:102B600057C08091AD02E822E092AD020E94240598
:102B7000292D2850330B2430310510F40E942006F3
:102B8000112379F08F2D807F803619F436EFB3163C
:102B900041F080913802823009F097C283E080933F
:102BA0003802AA20A9F08091AA0280FD11C0F60186
:102BB00012828595859585950E948D0DC6010E948E
:102BC00021128091AA028595859585950E94520DC6
:102BD00085E0F601DE01119601900D928A95E1F7EC
:102BE00089819A810E9469059A81E981F0E026E055
:102BF000929FE00DF11D112434E5839FE00DF11D3E
:102C00001124EE0FFF1FEA55FE4F859194913BCCA6
:102C10008091AC02E822E092AC02A8CF3F2D3F7039
:102C2000832E8F2D807F803219F0829430EF8322A3
:102C3000BB2041F081E0B81631F1112381F1EE2083
:102C400049F17ACF112391F09091AE02882D892B12
:102C5000E11003C00E94EA058BCFE1E0EE12FACF4B
:102C6000891709F485CF8093AE0282CFE11006C0A8
:102C70000E941E05882D0E94DF057ACFF1E0EF1635
:102C800009F476CFF5CF112339F0442443944E1440
:102C900008F46ECF882DDECFE1106ACFEBCFEE20A7
:102CA00049F329E3522EB51009C02FEF37EE83E028
:102CB000215030408040E1F700C00000802F0E948A
:102CC000D21056CF8F2D86958695837069F081300E
:102CD00009F04ECF802F9F2D9370111102C090E00C
:102CE00080E00E94F40544CF802F9F2D9370111136
:102CF00002C090E080E00E940A063ACF802F1123A4
:102D000029F00E9448040E94050D32CF0E948103E1
:102D1000FACF8F2D837009F067C0111129CF202FB2
:102D2000229526952770220F220F402F4F7050E0DA
:102D300070E060E0022E04C0440F551F661F771F2D
:102D40000A94D2F780E090E0DC0104FF0FC08FE02E
:102D500090E0A0E0B0E004C0880F991FAA1FBB1F3D
:102D60002A95D2F780959095A095B0952F2D269510
:102D700026952370223029F1D8F44090AF0250906C
:102D8000B0026090B1027090B202213069F0842BE1
:102D9000952BA62BB72BBC01CD0164217521862173
:102DA00097210E94AE0DE4CE442955296629772942
:102DB0002A013B01482A592A6A2A7B2AC301B20107
:102DC000F0CF842B952BA62BB72B4090AF025090C1
:102DD000B0026090B1027090B202BC01CD016425D6
:102DE000752586259725DDCF8695112311F08F2D2A
:102DF0008170882309F4BCCE202F22952695277058
:102E0000220F220F402F4F7050E070E060E0022E42
:102E100004C0440F551F661F771F0A94D2F780E045
:102E200090E0DC0104FF0FC08FE090E0A0E0B0E094
:102E300004C0880F991FAA1FBB1F2A95D2F780953F
:102E40009095A095B0952F2D26952695237022302C
:102E500029F1D8F44090D0025090D1026090D20273
:102E60007090D302213069F0842B952BA62BB72BC1
:102E7000BC01CD0164217521862197210E94460D58
:102E800077CE44295529662977292A013B01482A0A
:102E9000592A6A2A7B2AC301B201F0CF842B952BD1
:102EA000A62BB72B4090D0025090D1026090D20256
:102EB0007090D302BC01CD01642575258625972528
:102EC000DDCF2F2D2F70E22E112329F0822F0E94AB
:102ED0008D0D802FBFCE802F0E94DF058E2D0E948A
:102EE000520D46CE802F32EFB31609F452C03B1577
:102EF00078F090EFB91629F1E1EFBE1609F441C060
:102F0000112309F46AC0E11017CE8F2D8F713EC0D6
:102F1000F3EFBF1609F442C094EF492EB410F0CF7E
:102F2000112309F44FC00F2D0F71802F0E948D0DBA
:102F300028E0029FC001112483608093AA02802FA1
:102F400025C01123C1F0E11013CE2F2D2F7161E0A8
:102F500070E080E090E004C0660F771F881F991F23
:102F60002A95D2F74090D0025090D1026090D202C0
:102F70007090D302A1CF552453945E1408F4F8CD79
:102F8000E4CF8F2D8F71112309F4A9CF0E948D0DED
:102F9000EFCD8F2D8F711123C9F3A1CF60E070E0C9
:102FA000CB01112309F46ACF2F2D2F7161E070E05E
:102FB00080E090E004C0660F771F881F991F2A9554
:102FC000D2F75CCF81E00E94750D31E03E1508F02C
:102FD000CFCD82E00E94750DCBCDEE2059F0893324
:102FE00009F06CCE8FEF97EEE3E081509040E04027
:102FF000E1F762CE8F2D8F7172CFE0E1E00FE73005
:1030000008F03EC0F0E0E557FE4D0C94E51F11239B
:1030100009F4AECD80913A0291E0892780933A027B
:10302000A7CD10933A02A4CD81E08127F7CF1111EB
:103030009FCD81E0F3CF11119BCD10923A0298CD34
:10304000112321F082E080933802F3CF809138027F
:10305000823021F481E0809338028ACD833009F0F8
:1030600087CD10923802E9CF112339F080913902CF
:10307000882381F2109239027BCDEE2059F278CD6F
:1030800080913902EE20A9F0882341F080913A0224
:1030900091E0892780933A0210923902802F111112
:1030A0004CCD0E94D21086E0F60111928A95E9F784
:1030B0005FCD882309F45CCD11115ACD80913A027D
:1030C00091E0892780933A02D5CF813009F069CD0C
:1030D0001092380210923A0264CD85E0DE0111961A
:1030E00001900D928A95E1F7F601228189819A81FA
:1030F0002111DFC90E946905082FE3C906311C456B
:1031000009F071CC8091370269E2811165E38CEF9F
:1031100091E00E94BF0414C006312CE5120709F0AB
:1031200057CC8091AD028A7A91E009F490E09093B7
:10313000370269E2811165E38CEF91E00E94E904B6
:103140000E94240536CB1F93CF93DF9380914002DA
:10315000807FA9F480913D02882389F080917202DA
:10316000D091410260913B0270913C02A0913E02DD
:10317000B0913F02C62FC72316E0D81304C0DF91D9
:10318000CF911F91089590E0109711F0CF3F19F45F
:1031900001968770F2CF189F9001199F300D11246E
:1031A000F901EE5BFD4F41814713F2CF4081461399
:1031B000EFCF42814111ECCF438154814A1B5B0B1D
:1031C000483C510528F7809140028F7080618093C0
:1031D0004002F901E95BFD4F80818F70806180833F
:1031E0008BE392E00E942112DF91CF911F910C940A
:1031F000C005AF92BF92CF92DF92EF92FF920F93F2
:103200001F93CF93DF93CDB7DEB761970FB6F894D6
:10321000DEBF0FBECDBF8C0185E0F801DE011D963B
:1032200001900D928A95E1F7F80180819181E28009
:103230002BE3A22E22E0B22E60913E0270913F025B
:103240006115710509F43EC130913B0240913C0289
:10325000232F24232F3F09F435C1C380D480F0905D
:103260003D02F601E61BF70BFF2009F4FBC020919D
:103270004002522F507FE83CF10508F0BBC05111CD
:1032800078C0FE2C491321C038131FC0E1101DC0A7
:103290002F70206120934002C5010E94211280916D
:1032A0004002F80185838F2D61960FB6F894DEBF3A
:1032B0000FBECDBFDF91CF911F910F91FF90EF9087
:1032C000DF90CF90BF90AF900895CD2829F0282FA0
:1032D00029232F3F09F022C120E0F22FF170DF2EC9
:1032E00020FF3DC0209172024091410256E024131C
:1032F00015C08D879E878D859E850E945408292F35
:1033000022952F702230F8F0243020F59F70F9F0CC
:10331000F8019581907FD9F4D12C1FC030E0529FE5
:10332000F001539FF00D1124EE5BFD4F6181961368
:1033300006C06081861303C06281E61210C02F5F51
:103340003F4F2770D4CF9F7011F0882329F3805E00
:10335000883010F3C8010E942112FD2CA4CFEE206A
:1033600009F4A1CF80914002816080934002F12C4A
:103370009ACF491312C0381310C0E1100EC0F801E3
:103380002583C8010E94211286E0F801ABE3B2E078
:1033900001900D928A95E1F786CF8D879E878D8566
:1033A0009E850E945E08882309F1EE20F9F0809145
:1033B0004002803270F020913B0230913C0238870D
:1033C0002F831986DB86CA868C87CE0107960E94DA
:1033D000211286E0F801ABE3B2E001900D928A95EC
:1033E000E1F70E94A318FF24F3945DCFC8010E9467
:1033F0002112F9CF51110AC08BE392E00E942112F1
:1034000086E0F50111928A95E9F7B1CF49130FC013
:1034100038130DC0E1100BC0F8012583C8010E94CC
:10342000211286E0F50111928A95E9F73CCF8D874C
:103430009E878D859E850E945E088823B9F2EE20C6
:10344000A9F280914002803220F220913B0230911B
:103450003C023A8329831B82DD82CC828E83CE019B
:103460000196B5CFE83CF105E0F6FE2CEE2009F41C
:10347000BDCF491316C0381314C08091400280FD9F
:1034800083CF982F907F09F47FCFF8018583903FF9
:1034900009F477CF982F907F905F8F70892B858369
:1034A00070CF8D879E878D859E850E945E088111D5
:1034B00090CF80914002816080934002C8010E94B9
:1034C0002112F1CEEE2009F491CF8D879E878D8554
:1034D0009E850E945E08F82E882309F487CF86E037
:1034E000F801ABE3B2E001900D928A95E1F780918B
:1034F0003B0290913C020E94540892959F70963036
:1035000051F4863F41F080913A0291E089278093FF
:103510003A02909339020E94A318C5CE21E02E25CD
:10352000DCCE1F93CF93DF93CDB7DEB767970FB68F
:10353000F894DEBF0FBECDBF6D8B7E8B8F8B8E89D7
:103540009F89892BE1F0852F84238F3F09F098C054
:103550005FEF4FEF14C030913A02332309F44EC0AD
:10356000E42FF0E036E0539FE00DF11D1124EE0F43
:10357000FF1FED5EFE4F40815181822B8C931A8A92
:10358000198A4B8B5C8B85E0FE017396DE011D96DC
:1035900001900D928A95E1F786E0FE013D96DE01ED
:1035A000179601900D928A95E1F7CE0107960E9439
:1035B000F918811112C086E0FE013796DE011196DE
:1035C00001900D928A95E1F78A859B85892B29F0D8
:1035D0008F81988589238F3FC9F516E0809172020B
:1035E00090914102891320C067960FB6F894DEBF10
:1035F0000FBECDBFDF91CF911F910895809582239B
:10360000BDCF96E0929FD001939FB00D1124AE5B89
:10361000BD4FFE01319601900D929A95E1F780938E
:1036200041020E94C005D9CF819FC00111248E5B49
:103630009D4F0E94F9188823B9F28091720290E0A0
:1036400001968770992780937202C8CF209141021A
:1036500030E0C9010196877099274091720248179E
:10366000190679F60E94B80D10924102109272026A
:1036700086E0EBE3F2E0DF011D928A95E9F7ADCF3A
:1036800081E090E0042E01C0880F0A94EAF7A52F8C
:10369000B0E0A95DBD4F2C913D8931115CCF322F37
:1036A00038235BCF8F929F92BF92CF92DF92EF929F
:1036B000FF920F931F93CF93DF9380910601909118
:1036C0000701892B91F080911D028F5F80931D026D
:1036D00081110BC00E94500B90E0909307018093E2
:1036E0000601892B11F40E94F90922EC822E22E0B6
:1036F000922E740110E000E097E0C92EC00E802FDA
:103700000E94FC0A8C2D0E94FC0A802F0E94C70B8D
:10371000E70199917E01D12C891729F0FE0131979B
:103720008083DD24D3948C2D0E94C70BF7019681F2
:10373000891709F47AC0868381E08D29182B0E94AD
:1037400041090F5F0730C1F60E94F90C60911F021A
:10375000709120029093200280931F0220911E02FC
:1037600030E0261B370B820F931F6BEF70E00E9437
:10377000BD1FE82E392F082F80931E02F0902202E1
:10378000FF2009F45EC010922202E091B802F0918D
:10379000B902AF01425F5F4F20E08BEFB82E6BEFB5
:1037A00070E0A191AB3F99F0CA2ED12C8E2D932FB2
:1037B0000A17E8F18C199D09092E000CAA0BBB0B06
:1037C0004E97A105B105C8F1DF011197BC924E17C4
:1037D0005F0739F720932202111102C0211133C073
:1037E00010922102A091B802B091B90290912202E8
:1037F000E9EDF2E080E03191E40129914E013217C8
:1038000051F03C913B3FD9F40C93AF014150510929
:10381000EA01288391E01196D2E0E73EFD0759F7CF
:10382000909322028093210212C080E086CFDB01B8
:10383000AC19BD098A0F9B1FBFCF2F2DC8CF81E0C8
:10384000EACF1111CDCF809121028111C9CF812FF3
:10385000DF91CF911F910F91FF90EF90DF90CF906C
:10386000BF909F908F900895CDB7DEB72F970FB67A
:10387000F894DEBF0FBECDBF84B7877F84BF0FB67D
:10388000F894A89580916000886180936000109200
:1038900060000FBE80E890E00FB6F894809361005E
:1038A000909361000FBE85B7806885BF85B780683B
:1038B00085BF0E94F4010E94BF028091E2008460F3
:1038C0008093E2007894809127038823A1F01091DF
:1038D000E9001F709091EC00892F817090FD80E8C5
:1038E000182B1092E9008091E80083FD0E94CD0D15
:1038F0001F701093E90082E084BD93E095BD9AEFBC
:1039000097BD80936E000E94500B90E0909307014A
:10391000809306010E9441090E945009E2ECF2E006
:1039200080ED92E0A9EDB2E011921D928E179F07F3
:10393000D9F78EE090E00E9433208093B8029093F4
:10394000B902FC010E962BEF21938E179F07E1F72A
:1039500090E080E00E94F91F8F3E9E4F11F00E9480
:10396000810A8CE090E00E94EB1F90E0B0E0A0E0C4
:103970008093BA029093BB02A093BC02B093BD02A5
:1039800089EA8093800089E08093810024982C98B4
:103990003F988AB18F7C8AB96E98479A8BB18063C1
:1039A0008BB9769A8FE090E00E94F31F6093BE027D
:1039B0007093BF028093C0029093C10267704FEF73
:1039C000649FB00111247595679575956795772764
:1039D000709389006093880070938B0060938A00D5
:1039E00070938D0060938C000E94F90990E080E054
:1039F0000E94F91F8F3E9E4F11F00E94810A82E0C3
:103A000090E00E94EB1F8093F3020E94730A909350
:103A1000D5028093D40283E090E00E94EB1F682FD0
:103A200070E090E080E00E94AE0D6091D002709155
:103A3000D1028091D2029091D3020E94CE0888E0F8
:103A400091E09093D7028093D60298E1E92EF12C71
:103A500027EEC22E22E0D22E89ED92E03EE0B32E78
:103A6000B80E80E4A82E8091270300E112E1853092
:103A700009F446C10E94521BE4EFF2E0A9EDB2E066
:103A800010E000E0302F8D912191281709F447C1F3
:103A900090E0992493942827422F492109F43AC1B0
:103AA0009E833F83892191E009F490E098870E94EA
:103AB000F90C8160782F9A8789874E815F816885AC
:103AC0008A850E94911AF801EC50FD4F808198265A
:103AD000908285E0EDEEF2E0DE01119601900D920C
:103AE0008A95E1F79090EE028090EF021091F0023B
:103AF0000091F1021092EE021092EF021092F00289
:103B00001092F102892D882909F448C08091EB02B6
:103B10009091EC020E94B0049C019091EA029923DA
:103B200009F447C125313105C8F19F3F19F09F5F66
:103B30009093EA02992059F00E9424049FEF1914EF
:103B40000CF491E0899F802D11248093EE0288204F
:103B500059F00E9424049FEF18140CF491E0899FFF
:103B6000802D11248093EF023091EE023323B1F0C7
:103B70002091EF02222391F045EB3403C001112480
:103B8000992309F4E3C09093EE0245EB24039001DE
:103B90001124332309F4DEC03093EF02812F802BF0
:103BA00009F448C08091E8029091E9020E94B004B3
:103BB0009C019091E702992309F4F7C02531310562
:103BC000C8F19F3F19F09F5F9093E702112359F0CE
:103BD0000E9404049FEF11160CF491E0899F802D40
:103BE00011248093F002002359F00E9404049FEFF7
:103BF00010160CF491E0899F802D11248093F1021E
:103C00003091F0023323B1F02091F102222391F0A0
:103C100045EB3403C0011124992309F49FC090930C
:103C2000F00245EB240390011124332309F49AC0D8
:103C30003093F1028091EE029091EF02892B9091E6
:103C4000F002892B9091F102892B11F00E94050D51
:103C500085E0FE013196ADEEB2E001900D928A95BD
:103C6000E1F70E9420069091F202891709F4FBCE39
:103C70000E9420068093F202F4CE809127038430C4
:103C800009F11092D8020FB6F894A895E09260005E
:103C90000FBEA092600083B7817F846083BF83B72B
:103CA000816083BF7894889583B78E7F83BF0FB67A
:103CB000F894A895809160008861809360001092CC
:103CC00060000FBE809126038823D1F00E94500B24
:103CD00090E090930701809306010E9441090E94A1
:103CE0005009E9EDF2E01192CE16DF06E1F70E94ED
:103CF000521BE9EDF2E08191811138C0BE12FBCF79
:103D000080912703853009F4B8CF0E94B80D0E9436
:103D10002006B0CE9F5F990C963009F0BDCE0F5FA4
:103D20001F4F0E30110509F0ADCE8FEF8B878C87BA
:103D30001D860E94F90C8160782F9F878E874B85A6
:103D40005C856D858F850E94911AC3CE81E080933A
:103D5000EE021BCF81E08093EF0220CF81E08093C1
:103D6000F0025FCF81E08093F10264CF09BD19BDFD
:103D700009B400FEFDCF8091D8008F7D8093D800DC
:103D80008091E00082608093E0008091E00081FDFE
:103D9000FCCF0E94B80D4FEF83EC99E0415080407A
:103DA0009040E1F700C00000ABCF232B09F00BCF10
:103DB00041CF232B09F0BBCEF1CE1F921FB61F922D
:103DC00011248F939F93AF93BF938091D802811159
:103DD00013C08091B3029091B402A091B502B0914A
:103DE000B6024196A11DB11D8093B3029093B40217
:103DF000A093B502B093B602BF91AF919F918F91FE
:103E00001F901FBE1F9018951092B9008CE08093F0
:103E1000B8000895EF92FF920F931F93CF93DF9313
:103E2000182FEB011092BC0084EA8093BC000E9422
:103E3000F90C7C018091BC0087FF27C08091B900FC
:103E4000887F883029F08091B900887F8031D9F54A
:103E50001093BB0084E88093BC000E94F90C8C0195
:103E60008091BC0087FF24C02091B900287F90E09A
:103E700080E02831B1F081E090E0203411F490E04E
:103E800080E09195819591090CC0CF3FDC0791F2BC
:103E90000E94F90C8E199F098C179D0758F28EEF1E
:103EA0009FEFDF91CF911F910F91FF90EF900895B9
:103EB000CF3FDC07A9F20E94F90C801B910B8C17F5
:103EC0009D0770F2ECCF8FEF9FEFEBCF0F931F9317
:103ED000CF93DF93EB018093BB0084E88093BC0019
:103EE0000E94F90C8C018091BC0087FF11C02091C9
:103EF000B900287F81E090E0283211F490E080E062
:103F0000919581959109DF91CF911F910F9108951E
:103F1000CF3FDC0741F30E94F90C801B910B8C17FB
:103F20009D0708F38EEF9FEFEECF0F931F93CF9374
:103F3000DF93EC0184E88093BC000E94F90C8C01B3
:103F40008091BC0087FF08C08091BB0090E0DF91AA
:103F5000CF911F910F910895CF3FDC0789F30E9405
:103F6000F90C801B910B8C179D0750F38EEF9FEF80
:103F7000EECF84E98093BC000895AA1BBB1B51E1DE
:103F800007C0AA1FBB1FA617B70710F0A61BB70BC9
:103F9000881F991F5A95A9F780959095BC01CD016E
:103FA000089597FB072E16F4009407D077FD09D0EB
:103FB0000E94BD1F07FC05D03EF4909581959F4F50
:103FC0000895709561957F4F0895EE0FFF1F05903E
:103FD000F491E02D0994F999FECF92BD81BDF89A34
:103FE000992780B50895A6E1B0E044E050E00C9434
:103FF0002520A8E1B0E042E050E00C942520262FD7
:10400000F999FECF92BD81BDF89A019700B40216CE
:1040100039F01FBA20BD0FB6F894FA9AF99A0FBE7C
:1040200008950396272F0E9400200E94FF1F252F2E
:104030000E940020242F0C9400200196272F0E941C
:1040400000200C94FF1FDC01CB01FC01F999FECF8D
:1040500006C0F2BDE1BDF89A319600B40D92415010
:104060005040B8F708950F931F93CF93DF9382309A
:10407000910510F482E090E0E0913603F09137036F
:1040800030E020E0B0E0A0E0309799F42115310550
:1040900009F447C0281B390B24303105C0F58A814B
:1040A0009B816115710571F1FB0193838283FE0190
:1040B00011C0408151810281138148175907F8F0DE
:1040C0004817590799F4109761F012960C931297BC
:1040D00013961C933296CF01DF91CF911F910F91D0
:1040E00008950093360310933703F4CF211531055B
:1040F00019F04217530718F49A01BD01EF01DF01CF
:10410000F801C2CF9093370380933603D0CFFE01DE
:10411000E20FF31F81939193225031093983288351
:10412000DACF2091340330913503232B41F42091D1
:104130000201309103013093350320933403209121
:104140000001309101012115310541F42DB73EB731
:104150004091040150910501241B350B409134031B
:10416000509135034217530708F0B5CF241B350B88
:104170002817390708F4AFCFBC016E5F7F4F2617B1
:10418000370708F4A8CF640F751F70933503609349
:104190003403FA01819391939ECFCF93DF930097DD
:1041A000E9F0FC01329713821282C0913603D0915C
:1041B0003703DE0130E020E02097A1F42081318137
:1041C000820F931F2091340330913503281739074C
:1041D00009F067C0F0933503E0933403DF91CF918A
:1041E0000895DA01AE17BF0708F040C012964D914E
:1041F0005C9113979D014115510599F7D9011396CB
:10420000FC93EE9312974D915D91A40FB51FEA17A1
:10421000FB0779F4808191810296840F951FD90163
:1042200011969C938E938281938113969C938E9387
:104230001297B0E0A0E08A819B810097B9F5FE015A
:1042400081919191E80FF91F80913403909135038A
:104250008E179F0719F6109761F510923703109289
:104260003603D0933503C0933403B8CFB383A2830E
:1042700040815181840F951FA817B90771F44E5FD3
:104280005F4F8D919C911197480F591F5183408327
:1042900012968D919C91938382832115310509F0AB
:1042A000ADCFF0933703E093360398CFDE01EC01F6
:1042B000C2CF13961C921E921297D3CFF894FFCFC1
:1042C0006D086D087608760878087608760876080E
:1042D0006D086D087D08760876087D082809340980
:1042E0003909320937093E093C09B20EDA0E761057
:1042F000DA0E76100D0F2E0F76102C103910821555
:1043000082150E160E1662167E16FD17B815891642
:1043100061177217721707183418111814181B1820
:044320001718201832
:1043240000003803200020007E03B909980994098D
:10433400900901000D010D020D030D040D050D0082
:104344000C010C020C030C040C050C000B010B02F9
:104354000B030B040B050B000A010A020A030A04EF
:104364000A050A00090109020903090409050900EB
:1043740008010802080308040805080007010702E9
:1043840007030704070507000601060206030604DF
:1043940006050600050105020503050405050500DB
:1043A40004010402040304040405040003010302D9
:1043B40003030304030503000201020202030204CF
:1043C40002050200010101020103010401050100CB
:1043D4000001000200030004000500818283E20062
:1043E400E900EA00B500B600B700CD008301CC00B7
:1043F4008A01920194012102230224022502260249
:1044040027022A02B300B4006F007000404D6D66AD
:0C441400011901AC00080321033A030069
:00000001FF
