:100000000C9413020C9430020C9430020C943002C5
:100010000C9430020C9430020C9430020C94300298
:100020000C9430020C9430020C94DC120C941E12CE
:100030000C94D0180C9430020C9430020C943002C2
:100040000C9430020C9430020C9430020C94300268
:100050000C9430020C948F180C9430020C943002E3
:100060000C9430020C9430020C9430020C94300248
:100070000C9430020C9430020C9430020C94300238
:100080000C9430020C9430020C9430020C94300228
:100090000C9430020C9430020C9430020C94300218
:1000A0000C9430020C9430020C94300213031803A9
:1000B000220316031B0320031E03D004D0040305F0
:1000C00003056E058C059606960697050B061C061D
:1000D0001C06FD0700080308060809080C080F089D
:1000E00031105810061258100612A410C71006122C
:1000F000BC11CC1135002B00E000E200290000000B
:100100001E00140004001D004B0006011F001A0011
:1001100016001B004E00E10020000800070006004A
:100120004C002C0021001500090019002A0046008F
:10013000220017000A0005000000B90039004A003B
:1001400000002F000000A80001584D000000300002
:100150000000AA0023001C000B0011000000A900F1
:10016000240018000D0010005000490025000C006C
:100170000E00360051002800260012000F00370044
:100180005200E50027001300330038004F0019012A
:10019000310034002D002E00E30000004400010077
:1001A00001000100010000003A000100010001000F
:1001B000010001003B00010001000100005CF200B1
:1001C0003C000100010001000100F1003D000100C0
:1001D00001000100010001003E00010001000100DA
:1001E000000001000100010000000100000001000A
:1001F0000100010000000100000001003F005F005D
:100200005C00590000000100400060005D005A00E1
:10021000EF000100410061005E005B00EE00F900AC
:100220004200620001006300ED00FA00430001009B
:1002300055005400F00001004500530056005700DF
:100240000100000005010980A101850319012AB7F9
:1002500000150126B700950175108100C0050C0935
:1002600001A101850419012AA002150126A0029509
:100270000175108100C005010906A1018506050769
:1002800019E029E715002501950875018102050788
:10029000190029EF1500250195F075018102050867
:1002A00019012905950575019102950175039101C3
:1002B000C005010902A1010901A1000509190129CF
:1002C000081500250195087501810205010930090D
:1002D000311581257F95027508810609381581251C
:1002E0007F950175088106050C0A38021581257F66
:1002F000950175088106C0C00660FF0961A101096A
:1003000062150026FF00952075088102096315001B
:1003100026FF00952075089102C005010906A1017C
:10032000050719E029E715002501950875018102E7
:100330009501750881010507190029FF150026FFA1
:1003400000950675088100050819012905950575B0
:10035000019102950175039101C009027400040125
:1003600000A0FA09040000010301010009211101A4
:100370000001224000070581030800010904010073
:1003800002030000000921110100012222000705DB
:100390008303200001070504032000010904020073
:1003A0000103010200092111010001224700070594
:1003B0008203080001090403000103000000092171
:1003C00011010001226D00070585032000011201C3
:1003D0000002000000089732744901000102000188
:1003E00016034500720067006F0044006F0078003C
:1003F000200045005A00000028035A005300410025
:10040000200054006500630068006E006F006C00FF
:100410006F006700790020004C00610062007300EB
:1004200000000403090411241FBECFEFDAE0DEBF91
:10043000CDBF11E0A0E0B1E0E2EEF0E402C0059033
:100440000D92AA36B107D9F722E0AAE6B1E001C0C1
:100450001D92A73AB207E1F70E943C140C946F205A
:100460000C9400001092F4010E94F61B2FEF84E31D
:100470009CE0215080409040E1F700C000009AE0ED
:1004800088E10FB6F894A895809360000FBE909312
:100490006000FFCFA7E1B0E0E0E5F2E00C94E81DDA
:1004A0004B8B5C8B6D8B7E8B8F8B61111092E70178
:1004B00086E09E01235F3F4FD901E82F1D92EA9508
:1004C000E9F795E0FE017396D90101900D929A9596
:1004D000E1F79C894E895F897B897D879E876F873D
:1004E000598B488BF901DE01179601900D928A9580
:1004F000E1F7CE0107960E94E40B81113EC086E031
:10050000FE013796DE01119601900D928A95E1F772
:10051000FF81E8856A857B856115710531F0EF3FC4
:1005200031F481E0FF3F19F403C081E001C080E0B5
:1005300080FD23C02091940130E0C90101968770AD
:1005400099274091C50150E08417950779F1F98307
:10055000EA837D836C8396E0929FD001939FB00DD8
:100560001124AB56BE4FFE01319601900D929A9523
:10057000E1F7809394010E94710B16E08091C50110
:1005800090919401891709F1189FC00111248B568D
:100590009E4F0E94E40B8823C1F08091C50190E03A
:1005A0000196877099278093C501E8CF1092F401D6
:1005B0000E94F61B109294011092C501EEE8F1E042
:1005C00086E0DF011D928A95E9F76796E3E00C94D7
:1005D000041E982F92959F7019F0892F24E001C076
:1005E00020E0982F9695969511F02E5F892F982FE1
:1005F000969509F02F5F822F0895CF93C82F0E9400
:10060000E90256985E9825982D9826982E98279856
:100610002F9890E0FC013197E730F105A8F4EA5AF1
:10062000FF4F0C943B1F259A2D9A0EC0259A2D9AA8
:10063000269A2E9A09C0259A2D9A04C0259A2D9A99
:10064000269A2E9A279A2F9A8C2FCF910895A5E259
:10065000B0E0EDE2F3E00C94E01DFC0180819181BB
:1006600023813481232B31F09F3F31F491E08F3F80
:1006700019F403C091E001C090E090FD95C37F01A3
:1006800085E0DE01919601900D928A95E1F7D70100
:1006900012962C9189A19AA1222349F00E94D21A84
:1006A000182F682F89A19AA10E94421B03C00E94A3
:1006B0000E1B182F69A17AA1812F0E94AB088C0113
:1006C00090912202F7018281992309F44DC0811192
:1006D0005CC3E0916D01E330A0F481E08E0F809364
:1006E0006D01F0E0EE0FFF1FE65AFD4FD7018D912F
:1006F0009C919183808382E08983CE0101960E9440
:100700001014BFEFE3EDF0E3B150E040F040E1F74B
:1007100000C0000080916D01833009F036C3109253
:100720006D01E0E6F2E0AAE5B2E086E692E0318112
:1007300011962C91119732132EC030812C913213C7
:100740002AC0329612968E179F0789F784E0898314
:1007500081E0809323028EEF8A8310922202CE01E1
:1007600001960E94101411C3909123029923C1F0A5
:10077000811102C087E001C086E08983D7018C9196
:100780008A8311968C918B838EEF8C83CE01019698
:100790000E94101405C083E0898310922302DBCFEE
:1007A000033BBDE51B07D1F5F70182818823B1F139
:1007B0009091270281E0890F8770987F853020F41F
:1007C000892B8093270202C09093270280912702F1
:1007D0008770FFEF8F9FC0011124959587959595A0
:1007E00087959927909389008093880090938B0038
:1007F00080938A0090938D0080938C004091270213
:10080000509128026091290270912A028FE090E0B5
:100810000E94B21E809139020E94FD02F70182817E
:10082000882309F46BC00C352DE5120709F461C06B
:1008300058F401159CE5190799F00F3D1C4509F086
:100840005DC00E94600A4BC00E35BDE51B0709F470
:1008500048C008F450C0093A1D4509F440C04EC0D4
:100860001092F4010E94F61B2FEF84E39CE02150CC
:1008700080409040E1F700C00000F89481E0809350
:10088000E00080E28093D8001092C900AFE1BEE49E
:100890001197F1F700C000001DBA109268001CBC4F
:1008A00010BE1FBA10927A0010926E0010926F0064
:1008B00010927100109272001092C9001092BC0048
:1008C00014B817B81AB81DB810BA1092BC0015B8F1
:1008D00018B81BB81EB811BA0C94003F56C20E943B
:1008E000320280917E0282FB882780F991E089277D
:1008F00003C081E001C080E00E94550BD701129631
:100900008C9112970D911C91882349F0C8010E9487
:10091000D21AD82E682FC8010E94421B04C0C801F9
:100920000E940E1BD82EB8018D2D0E94AB080E948C
:10093000C408B82E192F982ED70112960C91129731
:100940001596AC90A2949FE0A9228091C601877071
:10095000B9F00023A9F0812F807F803421F080E25C
:100960008B0D883068F080917E0282FF09C082E0A2
:100970000E94380B8091C6018770DD24D3948111C9
:10098000D12CC12EC2948FE0C8228C2D90E08C30E7
:10099000910508F0CBC1FC01E35AFF4F0C943B1FBB
:1009A000812F807F1F70882311F01295107F002304
:1009B000B9F0112309F4A8C180E28B0D883010F042
:1009C000911006C08091F401182B1093F40105C01A
:1009D0008091E701182B1093E7010E94E30A94C16C
:1009E0008B2D0E941B1C112309F4A0C180E28B0DEA
:1009F000883080F1992071F110958091E7011823DA
:100A00001093E7012AC0812F807F1F70803211F080
:100A10001295107F8B2D992021F0B1E09B16D9F112
:100A200047C080917E0282FD1BC0002369F0112324
:100A300039F08091F401182B1093F4010E94E30A1D
:100A400080E00E94501C72C180E00E941B1C112398
:100A500009F46CC1812F0E94DC0A0E94E30A66C17E
:100A6000002381F08091E801AA2051F0E1E0AE126C
:100A700007C0182B181709F459C11093E80156C183
:100A8000812B10C0AA2021F0F1E0AF1609F44EC16D
:100A90000E94D60A1FC0002341F021E02A1508F465
:100AA00045C1812F0E94111C41C1A1103FC112C03C
:100AB000002319F0AA20A9F327C1AA2059F08933ED
:100AC00009F031C18FEF97EEA3E081509040A04034
:100AD000E1F727C1812F0E940A1C28C1812F86952A
:100AE0008695837019F0813061F020C1002321F0D8
:100AF0008B2D912F937002C080E090E00E943719F7
:100B00001BC1002321F08B2D912F937002C080E038
:100B100090E00E94211910C18B2D002319F00E9432
:100B20005B1A02C00E94A1190E947A1905C1812F87
:100B30008370A9F50111FEC04B2D42954695477073
:100B4000440F440F8B2D8F7090E09C01042E01C048
:100B5000220F0A94EAF7B4FE08C08FE090E001C0CB
:100B6000880F4A95EAF7809501C080E016951695A2
:100B70001370123069F088F49091E901113019F086
:100B8000822B892302C0922B892B0E94BA1BD2C0D0
:100B9000822B9091E9018927F8CF822BF6CF002391
:100BA00019F0812F817001C08695882309F4C2C095
:100BB0004B2D429546954770440F440F8B2D8F70F7
:100BC00090E09C01042E01C0220F0A94EAF7B4FEC3
:100BD00008C08FE090E001C0880F4A95EAF7809541
:100BE00001C080E0169516951370123059F078F414
:100BF00090913902113019F0822B892309C0922B70
:100C0000892B06C0822B90913902892701C0822B43
:100C10000E94771B8FC01F70002339F0812F0E9424
:100C2000AE1B8B2D0E94111C85C08B2D0E940A1CAF
:100C3000812F0E94A11B7EC08B2DB2EF9B1669F104
:100C4000B91538F0E0EF9E1659F0F1EF9F1601F15B
:100C500057C023EF921641F194EF9916A9F050C0B6
:100C6000002369F0A11062C01F7181E090E001C013
:100C7000880F1A95EAF79091390289271FC0A1E0E1
:100C8000AA1508F453C0F0CF80917E0282FD19C0EE
:100C9000002329F0812F8F7126C00023D9F3812FE3
:100CA0008F710E94A11B42C0002339F01F7181E0A7
:100CB00001C0880F1A95EAF701C080E00E94771BF7
:100CC00035C0002399F01F71812F0E94AE1B8091C7
:100CD0007E0282FF07C0B8E01B9FC0011124836021
:100CE0008093C601812F0E94AE1B20C081E00E942C
:100CF000380BE1E0EA15D0F482E00E94380B16C010
:100D0000002321F0AA2031F28B2D9BCEAA2039F2AC
:100D1000893349F4FFEF27EE83E0F1502040804013
:100D2000E1F700C000008B2D0E941B1C88EF8C0D8A
:100D3000843010F40E944D19DD20B1F08091C6017D
:100D400080FD12C0D70112961C92859585958595D8
:100D50000E94AE1BC7010E9427038091C6018595A2
:100D6000859585950E94A11B85E0F701DE0111960E
:100D700001900D928A95E1F709811A81C8010E94BC
:100D80000E1BB8010E94AB080FC08091C60187708E
:100D900059F0F7018281882339F080917E0282FF29
:100DA00003C082E00E94380BA596EBE00C94FC1D7A
:100DB00080E290E0909318018093170180916C017C
:100DC00081110EC00E94F51C81E080936C012FEF11
:100DD00083ED90E3215080409040E1F700C0000097
:100DE00060E570E080E40E94FB1C90931801809302
:100DF0001701892B09F04EC060E570E080E00E9489
:100E00006E1D9093180180931701892B09F042C041
:100E100060E570E080E00E946E1D90931801809361
:100E20001701892BB9F560E570E08FE30E946E1D14
:100E30009093180180931701892B61F50E94C11DC1
:100E400060E570E080E40E94FB1C909318018093A1
:100E50001701892BF9F460E570E08CE00E946E1DAB
:100E60009093180180931701892BA1F460E570E03D
:100E700080E00E946E1D9093180180931701892BCA
:100E800049F460E570E08FE30E946E1D90931801B5
:100E9000809317010E94C11D809117010895CF937F
:100EA000DF9356985E9825982D9826982E98279827
:100EB0002F98C8E8D0E08FEF90E099838883AAE864
:100EC000B0E011969C938E93ECE8F0E091838083E0
:100ED000259A2D9A2FEF80E792E021508040904094
:100EE000E1F700C00000269A2E9A2FEF80E792E0EB
:100EF000215080409040E1F700C00000279A2F9ACF
:100F00002FEF80E792E0215080409040E1F700C051
:100F1000000025982D982FEF80E792E02150804027
:100F20009040E1F700C0000026982E982FEF80E750
:100F300092E0215080409040E1F700C000002798E7
:100F40002F988091270287702FEF829FC001112474
:100F50009595879595958795992799838883119677
:100F60009C938E939183808356985E9825982D98B4
:100F700026982E9827982F98DF91CF910895CF9398
:100F8000E82F873080F58091170190911801892B07
:100F900009F047C0CE2F60E570E080E40E94FB1CA2
:100FA0009093180180931701892BD1F460E570E0CC
:100FB00082E10E946E1D9093180180931701892B86
:100FC00079F481E090E001C0880FCA95EAF760E506
:100FD00070E080950E946E1D909318018093170118
:100FE0000E94C11D1EC090E0FC013797E730F1055B
:100FF000C0F4E759FF4F0C943B1F209A289811C06A
:10100000219A29980EC0229A2A980BC0239A2B98CD
:1010100008C0529A5A9805C0539A5B9802C03E9AEB
:101020004698CF9108952098289821982998229839
:101030002A9823982B9852985A9853985B983E98E0
:1010400046980895CF93873040F58091170190918D
:101050001801892B59F560E570E081E40E94FB1CC2
:101060009093180180931701892B11F0C0E011C0F3
:1010700080E590E00E949D1D97FF05C090931801A8
:1010800080931701F3CFC82FC095109218011092CA
:1010900017010E94C11D8C2F0AC09FB18FB1807FA4
:1010A000869586959370892B809501C080E0CF91BD
:1010B00008958098889A8198899A84988C9A8598BE
:1010C0008D9A86988E9A87988F9A089580E00895D1
:1010D00090917D0292FF0DC0282F2871283019F4BD
:1010E000877F846006C0282F2471243011F48B7F01
:1010F000886093FF0DC0282F2871283119F4877E4E
:10110000846106C0282F2471243111F48B7E8861FC
:1011100020917E0220FF0DC0382F3871383019F42D
:10112000877F816006C0382F3171313011F48E7F96
:10113000886021FF0DC0282F2871283119F4877E7F
:10114000816106C0282F2171213111F48E7E8861C2
:1011500094FD877E08957E30A0F4663090F494E587
:10116000899FF001112486E0789FE00DF11D112484
:10117000E60FF11DEE0FFF1FEC50FF4F859194918C
:10118000089580E090E00895CF93DF938238910531
:1011900069F1B0F48133910509F477C048F48932DC
:1011A000910509F469C08A32910509F473C092C0AF
:1011B0008533910509F45BC089339105B9F08AC084
:1011C000833E910591F138F4803E9105D1F0823E45
:1011D000910531F17FC0863E9105D9F1873E910599
:1011E000E9F1843E910509F075C028C020917D0287
:1011F00020FD5BC021FD59C020917E0223FD61C00E
:1012000069C080917D0280FD4AC080917E0280FF8E
:101210004CC080917D0284FD4EC183EE90E04DC1B3
:1012200080917D0282FF3EC0F4CF80917D0282FDDD
:1012300039C080917E0280FD38C0EBCF80917E0264
:1012400081FF39C080917D0284FD35C187EE90E039
:1012500034C180917D0283FF2BC0F4CF80917D0249
:1012600083FD26C080917E0281FD25C0EBCF809159
:101270007D0285FD26C022C080917D0285FD1EC0B5
:1012800080917E0283FF1DC00AC080917D0286FD91
:101290001BC01DC080917D0286FD19C015C089E369
:1012A00090E00BC182EE90E008C180EE90E005C1B5
:1012B00086EE90E002C184EE90E0FFC085E390E00E
:1012C000FCC089E290E0F9C08AE290E0F6C081E3D8
:1012D00090E0F3C0811531E5930708F061C08115F6
:1012E00020E59207B0F09C012370332741E050E0E5
:1012F00002C0440F551F2A95E2F7282F2695269500
:1013000080E2289F90011124CA01822B932B9D68B3
:10131000D4C0883E910568F5803E910508F0CDC0A7
:10132000883A9105B8F4853A910548F0855AE82F36
:10133000F0E0E75EFE4F808190E09064BEC08130B7
:10134000910509F4B5C008F4B6C08430910508F4DD
:10135000B2C0B3C08F3B910508F0ADC0885AE82FEA
:10136000F0E0EE0FFF1FE45EFE4F808191819464F8
:10137000A4C0811530E2930758F4811521E092074B
:1013800008F09BC08D3E910508F495C0906595C00E
:10139000811530E4930708F48EC09F70906A8DC069
:1013A000811525E5920708F042C0811534E59307C1
:1013B00028F0982F8827846F906A7FC0811523E5D5
:1013C0009207B0F09C012370332741E050E002C047
:1013D000440F551F2A95E2F7282F2695269580E27F
:1013E000289F90011124CA01822B932B9A6865C013
:1013F000811532E5930728F4982F8827816F906A2A
:101400005CC09C012370332741E050E002C0440FD0
:10141000551F2A95E2F7282F2695269580E2289FCA
:1014200090011124CA01822B932B9C6846C0EC01C9
:10143000C11589E5D807B0F4C11528E5D20728F011
:101440009C2F8827806F906A38C0C11536E5D30776
:1014500090F58C2F0E9468088F7190E0982F882754
:1014600090622BC0C1158AE5D80790F48C2F8F703D
:101470000E94680894E0D695C7959A95E1F7CF70D9
:10148000D0E0DC2FCC27D0699E01282BC90115C0E4
:10149000CE0190568115904270F48D2F8F710E946D
:1014A0006808282F2F71CE0199279062922B05C0D2
:1014B00081E090E002C080E090E0DF91CF9108955C
:1014C00068EE7EEF80E090E00E94BE1E60E082E069
:1014D00090E00E94A01E60E083E090E00E94A01EC9
:1014E0001092E90160E084E090E00E94A01E64E0B8
:1014F00082E290E00E94A01E60E085E090E00E9401
:10150000A01E60E086E090E00E94A01E6FEF87E0E2
:1015100090E00E94A01E40E050E0BA0188E090E018
:101520000E94B21E60E08DE090E00E94A01E40E0AC
:1015300050E0BA0188E190E00E94B21E60E087E1CD
:1015400090E00E94A01E40E050E0BA018CE190E0E3
:101550000E94B21E60E070E080E290E00E94BE1E39
:1015600040E050E0BA0188E190E00E94B21E109283
:101570002702109228021092290210922A0284E077
:1015800080932702409127025091280260912902FE
:1015900070912A028FE090E00E94B21E40E050E07D
:1015A000BA0183E190E00E94B21E08958091E801A3
:1015B00081111092E801089580959091F40189239A
:1015C0008093F40108959091F4018091E701982BA4
:1015D00090936E018091E8018823D9F0892B809344
:1015E0006E0180910A01882331F080917D0287FF8E
:1015F00002C08EE101C086E0E0E7F1E090E08150BA
:1016000028F021912223D9F39F5FF9CF91110E94F5
:10161000D60A40E250E067EC71E08EE691E00E946D
:101620006220892B21F180E2EEE6F1E0A7ECB1E047
:1016300001900D928A95E1F7E0917402F0917502A4
:101640003097A9F080910A01882359F080917D029A
:1016500087FF07C080916E0180936F0186E08093C1
:101660006E010280F381E02D8EE691E009950895E8
:101670002091C601809582238093C601982F977090
:1016800099F430E0482F082E000C550B241735072D
:1016900059F090917E0292FF07C0859585958595BA
:1016A0000E94A11B1092C6010895CF93C0917E02A3
:1016B000C2FB992790F9981791F080FBC2F9C0936B
:1016C0007E0260917D0284E090E00E94A01E6C2F5B
:1016D00082E290E00E94A01E82E00E94380BCF912F
:1016E00008958091C50190919401891719F08F5F39
:1016F0008770FBCF08950F931F93CF93DF93809153
:10170000930182958F7009F05AC0809190018823CF
:1017100009F455C08091C5011091940160918E012A
:1017200070918F01C0919101D091920191E06F3F32
:1017300009F090E0292F06E0811709F440C02097B6
:1017400021F07F3F21F030E003C031E001C0322FB3
:1017500090E030FD31C0089FF001099FF00D112489
:10176000DF01AB56BE4F11963C911197371324C041
:101770003C91361321C012963C91129731111CC036
:1017800013964D915C9114974C1B5D0B483C510591
:1017900098F4809193018F70806180939301E65655
:1017A000FE4F80818F70806180838EE891E00E947F
:1017B00027030E94710B03C001968770BDCFDF9194
:1017C000CF911F910F910895A1E1B0E0EAEEFBE007
:1017D0000C94E01D8C0185E0F801DE011D9601905E
:1017E0000D928A95E1F7F801E28090918E01609167
:1017F0008F0140919101509192014115510531F0B5
:101800006F3F31F481E09F3F19F403C081E001C0D4
:1018100080E0F82FF1709F2E80FD1BC1F801308110
:101820002181C380D4808EE8A82E81E0B82EF0906C
:101830009001F601E41BF50BFF2009F4C7C080916D
:101840009301E83CF10508F092C0482F407F09F071
:1018500051C0621311C093130FC0FE2CE1100CC0D5
:101860008F70806180939301C5010E94270380914E
:101870009301F80185832AC1C114D10431F02F3FAF
:1018800031F481E03F3F19F403C081E001C080E002
:1018900080FD03C081E08E2502C080E090E0F82F3B
:1018A000F170FF2E80FF1CC08091C5014091940112
:1018B00056E0841709F4E8C090E0589FF001599F62
:1018C000F00D1124EB56FE4F6181261306C0608196
:1018D000631303C06281E61203C001968770E9CFEB
:1018E000FE2CEE2009F4F2C0809193018160809378
:1018F000930149C0621306C0931304C0E11002C0F3
:10190000F80186C0C8010E94BF1B882351F1EE2058
:1019100041F120919301822F82958F7090E0029780
:1019200074F080918E0190918F0198878F83198632
:10193000DB86CA862C87CE0107960E94270386E0A5
:10194000F801AEE8B1E001900D928A95E1F70E94AE
:101950007B0B0AC06217C9F0C8010E94BF1B81112E
:101960001EC0C8010E942703FF24F394AFC0482F74
:10197000407F81F78EE891E00E94270386E0F50121
:1019800011928A95E9F7F12CA1C09313E5CFE110EC
:10199000E3CFF8018583C8010E94270354C0EE20DD
:1019A00001F320919301822F82958F7090E002972E
:1019B00034F280918E0190918F019A8389831B82EA
:1019C000DD82CC822E83CE010196B7CFE83CF105B3
:1019D000D0F5FE2CEE2029F2621327C0931325C008
:1019E0002091930120FD18C0822F82958F70482F7F
:1019F00050E04115510581F0F80125834F30510524
:101A000041F08F5F982F9295907F822F8F70892B56
:101A10008583C8010E94270386E0F801AEE8B1E0A3
:101A200001900D928A95E1F751C0C8010E94BF1B39
:101A3000811185CF80919301816080939301C801CA
:101A40000E94270343C086E0F50111928A95E9F7C9
:101A50003DC0EE2009F485CFC8010E94BF1BF82EBF
:101A6000882309F47ECF86E0F801AEE8B1E001906A
:101A70000D928A95E1F780918E0190918F010E94DD
:101A8000011B0E947B0B22C03D872E878D859E8582
:101A90000E94011B292F22952F70223028F49F705D
:101AA00039F0811105C00BC0243028F49F7049F42F
:101AB000805E883020F0C8010E9427039F2CF92CFB
:101AC00005C0F8019581907F99F7F9CF8F2D619628
:101AD000EBE00C94FC1DA0E0B0E0E1E7FDE00C942D
:101AE000E31D8091170190911801892B91F080914D
:101AF000EA018F5F8093EA0181110BC00E94D80632
:101B000090E09093180180931701892B11F40E94A3
:101B10004F070BE212E07801D0E0C0E087E0C82E6A
:101B2000CC0E8C2F0E94BF078C2D0E94BF078C2FDC
:101B30000E9422088F73F7019081891721F080831A
:101B4000DD24D39401C0D12C8C2D0E9422088F73E8
:101B5000F7019781891719F0878381E001C080E040
:101B6000D82ADD290E941308CF5FFFEFEF1AFF0A82
:101B7000C730A1F61092EF01C091EE01CC2309F419
:101B8000C4C00E94C4182091EC013091ED01AC0159
:101B9000421B530B9A019093ED018093EC014F3F50
:101BA000510509F018F4452B19F102C02FEF30E070
:101BB0001092EE011092EB01E0912502F0912602C5
:101BC000AF01425F5F4F90E030E08081882341F0B9
:101BD000281718F010829C2F03C0821B80833C2F93
:101BE0003196E417F50789F73093EE019093EB01F6
:101BF000DD2309F47BC0E0912502F091260280915B
:101C0000EF019091EE01ACE3B2E0AF01425F5F4FB4
:101C10006EE1E80128813C91321779F03081311171
:101C20000CC060832C9398819227282F30E0292BB9
:101C300081E0232B09F480E091E0319611960F5F4B
:101C40001F4FE417F50729F78093EF019093EE01FA
:101C5000C091EF01209122028091F1019091F20157
:101C60002223C9F1892B31F425982D9826982E9896
:101C700027982F988091F1019091F2019170892B12
:101C800079F48091F001882319F026982E9802C0EB
:101C9000269A2E9A9091F00181E089278093F00195
:101CA0008091F1019091F2018130984750F01092AB
:101CB0002202809139020E94FD021092F2011092DC
:101CC000F1018091F1019091F20101969093F2015E
:101CD0008093F1011EC0892BE1F01092F201109265
:101CE000F101809139020E94FD0213C081E09091C0
:101CF000EB01992309F4ACCF81117DCF0E94C41868
:101D00009093ED018093EC0176CFD111F7CF80E075
:101D1000EECF8C2FCDB7DEB7E8E00C94FF1D80919D
:101D20001A0287FF11C08091E80082FD05C08091F2
:101D300024028111F8CF11C08091E8008B770BC08D
:101D400080912402882349F08091E80080FFF8CF39
:101D50008091E8008E778093E8000895982F97305F
:101D600068F59093E900981739F07091EC00209194
:101D7000ED005091F00003C0242F762F50E021FD9C
:101D800002C09F5FECCF3091EB003E7F3093EB00C1
:101D90003091ED003D7F3093ED003091EB003160EC
:101DA0003093EB007093EC002093ED005093F00023
:101DB0002091EE0027FDE5CF80E008958F7080939D
:101DC000E90081E008952091200230912102261738
:101DD000370748F06115710539F42091E8002E7736
:101DE0002093E80001C0B901FC0120E061157105F4
:101DF00079F1809124028823F1F18530F1F180910D
:101E0000E80083FD3CC08091E80082FD2EC08091F7
:101E1000E80080FFEBCF2091F3008091F20090E08A
:101E2000922B6115710551F08830910538F421919C
:101E30002093F100615071090196F3CF21E00897DA
:101E400009F020E08091E8008E778093E800CECF03
:101E50002111CFCF0AC080912402882361F0853000
:101E600061F08091E80083FD0AC08091E80082FF64
:101E7000F2CF80E0089582E0089583E0089581E044
:101E800008950895BC0184E00E9464180895BC017F
:101E900083E00E9464180895AAE2B0E0E2E5FFE062
:101EA0000C94E81DEAE1F2E082E292E02091F10078
:101EB00021938E179F07D1F780911B02833009F47D
:101EC00063C030F4813071F0823009F49FC0B6C035
:101ED0008A3009F48BC08B3009F46EC0893009F068
:101EE000ADC020C080911A02813A09F0A7C080914C
:101EF000E800877F8093E80080911E0290911F0286
:101F0000892B21F460E287EF91E003C060E080E07C
:101F100090E070E00E94E30E8091E8008B77809360
:101F2000E8008CC080911A02813209F087C080914C
:101F30001E0290911F02009719F0039709F07EC0CE
:101F40008091E800877F8093E8008091E80082FD1F
:101F500005C0809124028111F8CF70C02091F30058
:101F60008091F20090E0922B029731F48091F10081
:101F7000813011F0863021F48091F1008093F601D8
:101F80008091E8008B7756C080911A02813A09F05F
:101F900055C080911E0290911F02892B09F04EC0FE
:101FA0008091E800877F8093E8008091E80080FFBF
:101FB000FCCF80910A0139C080911A028132F1F57B
:101FC00080911E0290911F02892BC1F58091E8003B
:101FD000877F8093E8000E948F0E80911C0280937F
:101FE0000A011092F4010E94F61B28C080911A0287
:101FF000813221F58091E800877F8093E8000E947C
:102000008F0E80911D028093F50118C080911A02F5
:10201000813AA1F48091E800877F8093E800809165
:10202000E80080FFFCCF8091F5018093F100809162
:10203000E8008E778093E8000E948F0E8091E80080
:1020400083FFE4C180911A0290911B02492F50E056
:102050004A30510508F0DAC1FA01E059FF4F0C94FB
:102060003B1F803821F0823809F0D0C108C0809130
:10207000170290911802992389F082600FC0809115
:102080001E028F70873008F0C1C18093E9008091F3
:10209000EB0085FB882780F91092E9009091E80019
:1020A000977F9093E8008093F1001092F10070C147
:1020B000282F2D7F09F0AAC1882319F0823061F002
:1020C000A5C180911C02813009F0A0C1933009F0B4
:1020D00080E0809318022EC080911C0281112AC0DA
:1020E00080911E028F702FEF280F263008F08EC1CE
:1020F0008093E9002091EB0020FF1CC0933021F475
:102100008091EB00806214C09091EB0090619093FD
:10211000EB0021E030E0A90102C0440F551F8A9571
:10212000E2F74093EA001092EA008091EB008860A9
:102130008093EB001092E9008091E800877F809304
:10214000E8000E948F0E62C1811160C110911C02D3
:102150001F778091E3008078812B8093E30080914A
:10216000E800877F8093E8000E948F0E8091E8004E
:1021700080FFFCCF8091E30080688093E300111121
:1021800002C082E001C083E0809324023FC18058F6
:10219000823008F03BC120911C0230911D022C3D81
:1021A00053E0350779F583E08A838AE289834FB764
:1021B000F894DE01139620E03EE051E2E32FF0E0D8
:1021C00050935700E49120FF03C0E295EF703F5F0A
:1021D000EF708E2F90E0EA3010F0C79601C0C096E5
:1021E0008D939D932F5F243149F74FBF8091E80075
:1021F000877F8093E8006AE270E0CE0101960E943A
:10220000E30EB4C080911E0290911F02432F552708
:1022100043305105A9F068F44130510509F405C176
:102220004230510509F0F2C084E790E0EAE5F3E0BE
:102230004BC04132510529F14232510589F1E6C0C6
:10224000C901992781309105A1F058F0029709F052
:10225000DDC0E0EEF3E0E4918E2F90E0E0EEF3E0FD
:1022600030C0E2E2F4E0E4918E2F90E0E2E2F4E0AC
:1022700028C0E8EFF3E0E4918E2F90E0E8EFF3E080
:1022800020C08430910508F0C1C0880F991FFC015F
:10229000EA5AFE4F0190F081E02D89E090E014C0F1
:1022A0008430910508F0B2C0FC01EE0FFF1FE25B25
:1022B000FE4F0190F081E02DDC01A65BBE4F8C91BA
:1022C00090E0009709F4A2C02091E800277F2093B6
:1022D000E80020912002309121022817390708F4E4
:1022E000C90140E0009789F120912402222309F4DA
:1022F0003DC02530D9F12091E80023FD37C0209161
:10230000E80022FD2FC02091E80020FFEBCF409194
:10231000F3002091F20030E0342B009759F0283080
:10232000310540F444914093F100319601972F5FBD
:102330003F4FF3CF41E02830310509F040E02091D4
:10234000E8002E772093E800CDCF4111CDCF0AC011
:1023500080912402882351F0853041F08091E8007B
:1023600083FD04C08091E80082FFF2CF8091E800F5
:102370008B778093E8004AC0803809F047C080918D
:10238000E800877F8093E800809119028093F10034
:102390008091E8008E77D3CE811138C080911C02E5
:1023A00090911D02992702978CF58091E800877F14
:1023B0008093E80010911C02109319020E948F0E66
:1023C000111106C08091E30087FD02C081E001C0C9
:1023D00084E08093240242E061EC81E00E94AE0E32
:1023E00042E061EC82E00E94AE0E42E261EC85E0E8
:1023F0000E94AE0E42E261EC83E00E94AE0E42E229
:1024000060EC84E00E94AE0E809124028091E8008E
:1024100083FF10C08091E800877F8093E80080915F
:10242000EB0080628093EB0005C082E190E0EEEC6F
:10243000F3E04ACFAA96E3E00C94041E1F920F9299
:102440000FB60F9211242F933F934F935F936F9387
:102450007F938F939F93AF93BF93CF93DF93EF932C
:10246000FF93C091E900CF708091EC00D82FD1701C
:1024700080FDD0E81092E9008091F000877F809382
:10248000F00078940E944C0F1092E9008091F000C7
:1024900088608093F000CD2BCF70C093E900FF914E
:1024A000EF91DF91CF91BF91AF919F918F917F91EC
:1024B0006F915F914F913F912F910F900FBE0F90B1
:1024C0001F901895E8EDF0E080818E7F8083109258
:1024D000E2001092DA001092E100A0EEB0E08C91E0
:1024E00081608C9380818F77808319BCA7EDB0E0E9
:1024F0008C918E7F8C9380818F7E80831092F301EC
:102500000895A0E0B0E0E7E8F2E10C94E31DC8ED27
:10251000D0E088818F7E8883E7EDF0E08081816064
:10252000808384E082BF81E08093F30188818E7F85
:10253000888302EE10E0F80110821092DA0081EE3A
:10254000C82ED12CF601108288818F7788838881EC
:102550008068888388818F7D888319BC10922402CB
:1025600010921902109218021092170290EEE92EA2
:10257000F12CF70180818B7F808388818160888343
:1025800042E060E080E00E94AE0EF60180818E7F26
:102590008083F8018081816080838081886080836E
:1025A000F70180818E7F8083888180618883CDB7A9
:1025B000DEB7E8E00C94FF1D1F920F920FB60F924A
:1025C00011242F933F934F935F936F937F938F9338
:1025D0009F93AF93BF93EF93FF938091E10082FFAE
:1025E00009C08091E20082FF05C08091E1008B7FED
:1025F0008093E1008091DA0080FF2AC08091D800AA
:1026000080FF26C08091DA008E7F8093DA0080916F
:10261000D90080FF18C080E189BD82E189BD09B47D
:1026200000FEFDCF81E0809324028091F3018111AF
:102630000FC00E9462120E9481128091E2008460A9
:102640008093E20005C019BC109224021092F3019D
:102650008091E10080FF17C08091E20080FF13C0ED
:102660008091E2008E7F8093E2008091E2008061A1
:102670008093E2008091D80080628093D80019BCDA
:1026800085E0809324028091E10084FF30C0809136
:10269000E20084FF2CC080E189BD82E189BD09B4DC
:1026A00000FEFDCF8091D8008F7D8093D80080916F
:1026B000E1008F7E8093E1008091E2008F7E809325
:1026C000E2008091E20081608093E2008091190233
:1026D000882311F084E007C08091E30087FD02C0E9
:1026E00081E001C083E080932402809124028091E4
:1026F000E10083FF27C08091E20083FF23C0809127
:10270000E100877F8093E10082E0809324021092B1
:1027100019028091E1008E7F8093E1008091E200B8
:102720008E7F8093E2008091E20080618093E200DE
:1027300042E060E080E00E94AE0E8091F000886090
:102740008093F000FF91EF91BF91AF919F918F9196
:102750007F916F915F914F913F912F910F900FBE9D
:102760000F901F9018952091E4003091E50095E6B8
:102770004091EC00842F817040FF23C08091E800DD
:1027800080FD1DC080912402882399F0853099F046
:102790008091EB0085FD11C04091E4005091E5006F
:1027A0002417350729F3915011F09A01E1CF84E005
:1027B000089582E0089583E0089581E0089580E01F
:1027C00008954091E80042FFDDCF0895EF92FF9217
:1027D0000F931F93CF93DF937C018B010E94B31360
:1027E000811119C0E70101151105A1F08091E800E0
:1027F00085FD0AC08091E8008E778093E8000E94F2
:10280000B313882381F307C089918093F1000150AD
:102810001109E9CF80E0CDB7DEB7E6E00C94011EE8
:10282000CF9320912402243029F5C091E900CF7084
:102830003091EC00232F217030FD20E8C22B23E0E3
:102840002093E9002091E80020FF11C040E050E013
:1028500060E270E00E94E613882321F010922202C9
:10286000109223028091E8008E778093E800CF7069
:10287000C093E900CF910895ACE5B0E0E2E4F4E163
:102880000C94DC1D85B7806885BF85B7806885BFDF
:1028900084B7877F84BF0FB6F894A89580916000B5
:1028A000886180936000109260000FBE90E080E825
:1028B0000FB6F89480936100909361000FBE86E696
:1028C00098E090936B0180936A010E9462120E94CB
:1028D00081128091E20084608093E200789480917C
:1028E00024028823A1F01091E9001F709091EC0060
:1028F000892F817090FD80E8182B1092E90080915B
:10290000E80083FD0E944C0F1F701093E90082E0E5
:1029100084BD93E095BD9AEF97BD80936E000E94B1
:10292000D80690E090931801809317010E94130835
:102930000E945908EBE2F2E0ACE3B2E011921D9282
:1029400022E0E933F207D1F78EE090E00E94411FC8
:102950008093250290932602FC010E961192E817AF
:10296000F907E1F789EA8093800089E0809381008C
:1029700024982C983F988AB18F7C8AB96E98479A90
:102980008BB180638BB9769A8FE090E00E94841EB1
:1029900060932702709328028093290290932A0261
:1029A00067703FEF639FB00111247595679575952A
:1029B00067957727709389006093880070938B00E8
:1029C00060938A0070938D0060938C000E944F0783
:1029D00080E090E00E948A1E883E9E4F11F00E9487
:1029E000600A82E090E00E947C1E80934A0284E0AC
:1029F00090E00E947C1E182F82E290E00E947C1ED4
:102A0000212F30E0382B30937E0220937D0283E02B
:102A100090E00E947C1E0E94BA1B809139020E94A5
:102A2000FD028BE091E0909375028093740208E1BF
:102A300010E07AE4E72E72E0F72E809124028530D0
:102A400009F057C040E4B42E50E1C52E62E1D62E05
:102A500080912402853009F046C0809124028430A0
:102A600009F1109278020FB6F894A89500936000CF
:102A70000FBEB092600083B7817F846083BF83B74D
:102A8000816083BF7894889583B78E7F83BF0FB6AC
:102A9000F894A895809160008861809360001092FE
:102AA00060000FBE80911802882391F20E94D80620
:102AB00090E090931801809317010E9413080E94E0
:102AC0005908ECE3F2E0119282E0EA34F807D9F712
:102AD0000E946B0DECE3F2E08191811171C2EE1660
:102AE000FF06D1F7B5CF1092F4010E94F61B0E94A9
:102AF0004D190E946B0D3BE4A32E32E0B32E29E565
:102B000032E0ACE3B2E0F50191918D9189272E1767
:102B10003F0719F08823C1F332C0811130C00E94F1
:102B2000C4186C0180913A0290913B02C816D906F4
:102B300009F474C08FEF64968FAF649765968FAF7A
:102B4000659766961FAE66970E94C4188160782FBD
:102B500068969FAF8EAF689764964FAD6497659601
:102B60005FAD659766966FAD669768968FAD68970F
:102B70000E944A02D0923B02C0923A024FC02CE31C
:102B8000822E22E0922ED12CF40151904F01F501BA
:102B90006080652489F1C12C77247394862D872168
:102BA00021F16996CFAE69976A96DFAE6A9791E098
:102BB000852D872109F490E06B969FAF6B970E945B
:102BC000C4188160782F6D969FAF8EAF6D97699610
:102BD0004FAD69976A965FAD6A976B966FAD6B97CD
:102BE0006D968FAD6D970E944A02C394770CF6E004
:102BF000CF12D4CFF5015082D394FFEFAF1ABF0AA2
:102C00002EE0D212C1CF8FB7F89440917902509143
:102C10007A0260917B0270917C028FBF85E0EDE6C5
:102C2000F2E0DE01119601900D928A95E1F7109283
:102C30006E0210926F021092700210927102DA808E
:102C4000D11004C08B81882309F452C080916B029B
:102C500090916C020E94B5189C0190916702992393
:102C600009F4C6C12531310508F442C09F3F19F06F
:102C70009F5F90936702DD2061F00E94381A1D1457
:102C800014F491E001C09FEF899F802D112480935F
:102C90006E02DB80DD2061F00E94381A1D1414F4EE
:102CA00091E001C09FEF899F802D112480936F02D6
:102CB00030916E023323E1F020916F022223C1F0A4
:102CC00045EB3403C0011124992319F090936E024F
:102CD00003C081E080936E0235EB2303C001112411
:102CE000992319F090936F0203C081E080936F02E3
:102CF000DC80D11004C08D81882309F452C08091FA
:102D0000690290916A020E94B5189C019091660236
:102D1000992309F471C12531310508F442C09F3F60
:102D200019F09F5F90936602DD2061F00E94181AEF
:102D30001D1414F491E001C09FEF899F802D112490
:102D400080937002DD80DD2061F00E94181A1D144E
:102D500014F491E001C09FEF899F802D112480938E
:102D60007102309170023323E1F02091710222232D
:102D7000C1F045EB3403C0011124992319F090935D
:102D8000700203C081E08093700235EB2303C00121
:102D90001124992319F09093710203C081E080936C
:102DA000710245E050E0BE016F5F7F4F8DE692E01B
:102DB0000E946220892BA9F480916E0281110FC0BC
:102DC00080916F0281110BC080917002811107C048
:102DD00081E090917102911103C080E001C081E017
:102DE00080FD0E947A1985E0FE013196ADE6B2E0E1
:102DF00001900D928A95E1F70E944D199091590228
:102E0000891769F0809359028FB7F894409179023D
:102E100050917A0260917B0270917C028FBF809109
:102E20002402843009F009CE8093E9008091E80003
:102E300082FF03CE8091E80085FF24C00E94B31377
:102E400081111EC090E2C92ED12C5E0141E2A40E78
:102E5000B11C09C08091F100F50181935F01F1E09F
:102E6000CF1AD10869F08091E80085FDF3CF8091F9
:102E7000E8008B778093E8000E94B313882399F3CE
:102E800091E001C090E08091E8008B778093E800AA
:102E9000992309F4D2CD89A18130E9F158F182302A
:102EA00021F0843009F480C0C8CD8BA19AA1909301
:102EB0005A0280935B028DA19CA190935C02809347
:102EC0005D028FA19EA190935E0280935F0242E11A
:102ED00050E063E270E0CE018F5B9F4F0E946C1E5A
:102EE00084E0898381E0809323028EEF8A831092AD
:102EF00022020CC019828CE0EEE5F1E0DE011296B0
:102F000001900D928A95E1F78EEF8D87CE010196A3
:102F10000E94101492CD80E6C82E82E0D82E0E9426
:102F20005A19F601819391936F01F6E6CF16F2E0FC
:102F3000DF06A9F781E08983909160029A839091DE
:102F400061029B83909162029C83909163029D83B6
:102F5000909164029E83909165029F839EEF988773
:102F600080932202CE0101960E94101442E150E0AB
:102F700063E270E0CE0101960E946C1EFE01319664
:102F800082E183301CF09189928B01C0128A8150BA
:102F900031978F3FB1F742E150E063E270E0CE013C
:102FA00001960E94901E49CD80912302882309F446
:102FB00044CD80E00E94771B8AA10E94AE1B3DCDCC
:102FC000C9BCD9BC09B400FEFDCF8091D8008F7D6B
:102FD0008093D8008091E00082608093E00080912F
:102FE000E00081FDFCCF1092F4010E94F61B30CD71
:102FF000232B09F03DCE7CCE2139314008F091CE13
:10300000D0CE8091F601089522E02093E9002FEFC1
:103010003091E800215035FD06C035ED3A95F1F7C5
:1030200000002111F5CF2091E80025FF0BC040E002
:1030300050E065E070E00E94E6138091E8008E7732
:103040008093E8000895CF93DF9320910A01222313
:1030500039F020917D0227FF03C060E225E002C025
:1030600068E021E02093E9002FEF3091E800215043
:1030700035FD06C035ED3A95F1F700002111F5CF89
:103080002091E80025FF1DC0EC0180910A0181110B
:1030900005C040E050E068E070E003C070E040E050
:1030A00050E0CE010E94E6138091E8008E77809375
:1030B000E80080E2FE01A7EFB1E001900D928A9551
:1030C000E1F7DF91CF91089580937F0270938102A1
:1030D0006093800280912402843001F585E0809322
:1030E000E9008FEF9091E800815095FD06C095EDC5
:1030F0009A95F1F700008111F5CF8091E80085FFE6
:103100000DC040E050E063E070E08FE792E00E9485
:10311000E6138091E8008E778093E8000895789414
:103120001F920F920FB60F9211248F939F93AF931C
:10313000BF938091790290917A02A0917B02B09125
:103140007C020196A11DB11D8093790290937A02B1
:10315000A0937B02B0937C02BF91AF919F918F911E
:103160000F900FBE0F901F9018959C014FB7F894C9
:103170008091790290917A02A0917B02B0917C02B9
:103180004FBF821B930B08952FB7F894809179025B
:1031900090917A02A0917B02B0917C022FBF08959A
:1031A0001F920F920FB60F9211248F939F93AF939C
:1031B000BF9380917802811113C080917902909120
:1031C0007A02A0917B02B0917C024196A11DB11DB3
:1031D0008093790290937A02A0937B02B0937C0251
:1031E000BF91AF919F918F910F900FBE0F901F9045
:1031F000189520910A012223C9F020917D0227FF12
:1032000015C0262F2695269526952E31C8F4FC014B
:10321000E20FF11D677081E090E001C0880F6A95B0
:10322000EAF780959281892382830895FC010696AE
:103230002281621301C012823196E817F907C1F7A3
:10324000089520917602309177022817390771F09E
:103250009093770280937602E0917402F091750268
:10326000309721F00084F185E02D09950895209193
:103270007202309173022817390771F0909373022C
:1032800080937202E0917402F0917502309721F000
:103290000680F781E02D09950895E0917402F09180
:1032A0007502309729F00190F081E02D099508957D
:1032B00080E00895CF93DF930E945C1E66E070E08B
:1032C0000E94271FD82F0E945C1E6EE070E00E94B3
:1032D000271FC82F6D2F782F80E00E94AB0804971E
:1032E000C59718F48D2F9C2F02C00E945A19DF91A8
:1032F000CF9108950E94C41820916E02211104C03C
:1033000020916F02222321F090936C0280936B0234
:1033100020917002211104C020917102222321F01A
:1033200090936A0280936902E0917402F0917502B1
:10333000309731F00480F581E02D8DE692E009951B
:1033400008958D3E39F490916F0297FF35C0109229
:103350006F0259C08E3E29F490916F021916BCF38A
:103360002BC090916E028F3E29F497FF25C01092DA
:103370006E0249C0803F19F41916CCF31DC090911C
:103380007002893F29F41916BCF4109270023BC0F8
:103390008A3F19F497FF10C0F8CF8B3F39F4909112
:1033A000710297FF09C0109271022DC08C3F21F469
:1033B000909171021916BCF39FE0980F983080F439
:1033C00021E030E0A90102C0440F551F9A95E2F7B1
:1033D000CA01809590916D02892380936D0213C07C
:1033E0008D3F21F4809168028E7F0BC08E3F21F4C7
:1033F000809168028D7F05C08F3F29F4809168021B
:103400008B7F8093680280916E02811106C080914B
:103410006F02811102C010926702809170028111C7
:1034200006C080917102811102C010926602089557
:103430008091680280FD18C081FD14C082FD16C015
:1034400080916602882381F08C3380F427E0829F8C
:10345000C00111246CE370E00E94271F862F672BA8
:1034600019F005C083E0089581E0089587E008958C
:103470008091680280FD17C081FD17C082FD19C0D0
:1034800080916702882399F08C3398F428E3829F17
:10349000C00111246CE370E00E94271F862F672B68
:1034A00049F481E008958EE008958CE1089588E064
:1034B000089588E308958D3E21F40E94381A81957D
:1034C00004C08E3E29F40E94381A80936F0208953A
:1034D0008F3E21F40E94381A819504C0803F29F460
:1034E0000E94381A80936E020895893F19F40E9451
:1034F000181A05C08A3F31F40E94181A81958093EA
:10350000700208958B3F21F40E94181A819504C01F
:103510008C3F29F40E94181A8093710208959FE04D
:10352000980F983078F421E030E0A90102C0440FF0
:10353000551F9A95E2F7CA0190916D02892B8093ED
:103540006D0208958D3F21F48091680281600BC067
:103550008E3F21F480916802826005C08F3F29F47C
:1035600080916802846080936802089580E090E012
:103570000E94371980E090E00E9421191092E70123
:103580000E94E30AEDE6F2E085E0DF011D928A95F4
:10359000E9F71092670210926602109268020E9488
:1035A0007A190895CF92DF92FF920F931F93CF93D2
:1035B000DF936C01009139028091E901082BC7E08B
:1035C000D0E010E0C8010C2E02C0959587950A94B2
:1035D000E2F780FD04C02197A8F7F12C09C0FC2E6A
:1035E000B6018C2F0E94AB080E94C408019799F382
:1035F0008F2DDF91CF911F910F91FF90DF90CF9092
:103600000895CF93DF93EC010E94D21ABE010E946D
:10361000AB080E94C408DF91CF910895292F9E30F6
:1036200078F5863068F590E036E0239F800D911D97
:103630001124682F677023E0969587952A95E1F706
:10364000FC01EE0FFF1FE80FF91FEE57FD4F40E0A2
:1036500050E080E0219130E0062E02C0369527959B
:103660000A94E2F721703327042E01C0220F0A9436
:10367000EAF7822B4F5F5F4F4330510559F70895AA
:1036800080E00895292F9E3088F5863078F590E007
:1036900036E0239F800D911D1124282F277051E0C3
:1036A00001C0550F2A95EAF723E0969587952A954C
:1036B000E1F7FC01EE0FFF1FE80FF91FEE57FD4F7A
:1036C00020E030E070E04081CB01022E02C09695F0
:1036D00087950A94E2F78170819584278523842752
:1036E00081932F5F3F4F2330310569F70895A0E2A2
:1036F000B0E0EDE7FBE10C94E81D0E94FD02182FFD
:10370000809123028823A9F02FEF80E792E02150D7
:1037100080409040E1F700C0000085E08983812F60
:103720000E94E9028A838EEF8B83CE0101960E946C
:103730001014109339020E94B61AA096E3E00C947C
:10374000041E21E030E001C0220F8A95EAF720959F
:103750008091390282230E94771B089521E030E096
:1037600001C0220F8A95EAF780913902822B0E94CC
:10377000771B08958093E9010E94B61A0895CF93AC
:10378000FC018081918123813481232B31F09F3F83
:1037900031F491E08F3F19F403C091E001C090E053
:1037A000C92FC17090FD1CC0808191810E94011BB6
:1037B00092959F70963079F010F4925001C09A5013
:1037C000923088F4803F71F018F4883E60F40AC0AB
:1037D000843F49F407C0883E28F0813F21F402C0AD
:1037E000C0E001C0C1E08C2FCF91089580910A0103
:1037F000882331F080917D0287FF02C08EE101C0F5
:1038000086E0E0E7F1E0DF011D928A95E9F70E948A
:10381000B61A0895882321F00E94DC0A0E94E30A68
:103820000895882339F09091F401892B8093F40155
:103830000E94E30A0895882391F19CEF980F913A32
:1038400030F4682F8EE691E00E94F9180DC090E2E6
:10385000980F983060F4877091E001C0990F8A95B5
:10386000EAF7892F0E94DC0A0E94E30A08959BE58B
:10387000980F933028F480E090E00E943719089563
:1038800098E5980F973128F480E090E00E94211984
:1038900008958D3E20F00E94A1190E947A19089582
:1038A000CF93882309F49FC0C82F8CEF8C0F813AE7
:1038B00008F05BC080910A018823E1F080917D02CD
:1038C00087FF18C0EC2FE695E695E695F0E0E25903
:1038D000FE4F8281282F30E04C2F477081E090E02E
:1038E00002C0880F991F4A95E2F782239323892B00
:1038F00059F411C0E0E7F1E08191C81729F081E0A7
:10390000E637F807C9F707C06C2F8EE691E00E94F2
:10391000F9180E94E30A80910A018823B1F080918E
:103920007D0287FF12C0EC2FE695E695E695F0E064
:10393000E259FE4FC77081E090E001C0880FCA9540
:10394000EAF79281892B828320C0A0E7B1E0EFEFF4
:1039500080E09D91C917C9F0EF3F19F4911101C0A2
:10396000E82F8F5F8630A9F735C080E28C0F883052
:1039700078F4C77081E090E001C0880FCA95EAF73B
:103980009091F401892B8093F4010E94E30A2BC0EB
:10399000EBE5EC0FE33040F4F0E0E75EFE4F8081B2
:1039A00090E00E9437191FC0E8E5EC0FE73150F4B2
:1039B000F0E0EE0FFF1FE45EFE4F808191810E94D8
:1039C000211911C0CD3E78F08C2F0E945B1A0E9405
:1039D0007A1909C0EF3FC9F20E2E000CFF0BE25915
:1039E000FE4FC283D2CFCF9108951092B9008CE0E0
:1039F0008093B8000895A0E0B0E0E1E0FDE10C9410
:103A0000E01DB82EEB010E94C4186C01C431D10531
:103A100058F0CF3F8FEFD80759F0CE0164E170E046
:103A20000E94C51D7B0107C0EE24E394F12C03C066
:103A300025E0E22EF12C84E8A82E94EA992E10922B
:103A4000BC009092BC000E94C4188C018091BC0004
:103A500087FD07C0C8010E94B518E816F906B0F73F
:103A600029C08091B900887F883041F08091B900E9
:103A7000887F803119F00FEF1FEF1EC0B092BB009E
:103A8000A092BC000E94C4188C018091BC0087FDEC
:103A900007C0C8010E94B518E816F906B0F70AC0B9
:103AA0008091B900887F883111F0803421F700E0DF
:103AB00010E00EC00EEF1FEFCF3F8FEFD80709F4D5
:103AC000BECFC6010E94B518C817D90708F0B7CFF6
:103AD000C801CDB7DEB7EBE00C94FC1D0F931F932C
:103AE000CF93DF93EB018093BB0084E88093BC000D
:103AF0000E94C4188C018091BC0087FD0DC0CF3F8F
:103B00008FEFD807C1F3C8010E94B518C817D907AD
:103B100090F78EEF9FEF0CC02091B900287F81E0D5
:103B200090E0283211F480E090E091958195910920
:103B3000DF91CF911F910F9108950F931F93CF9312
:103B4000DF93EC0184E88093BC000E94C4188C01D0
:103B50008091BC0087FD0DC0CF3F8FEFD807C1F328
:103B6000C8010E94B518C817D90790F78EEF9FEFCC
:103B700003C08091BB0090E0DF91CF911F910F9126
:103B8000089584E98093BC000895AA1BBB1B51E1F2
:103B900007C0AA1FBB1FA617B70710F0A61BB70BBD
:103BA000881F991F5A95A9F780959095BC01CD0162
:103BB00008952F923F924F925F926F927F928F92D1
:103BC0009F92AF92BF92CF92DF92EF92FF920F93AC
:103BD0001F93CF93DF93CDB7DEB7CA1BDB0B0FB6B6
:103BE000F894DEBF0FBECDBF09942A883988488873
:103BF0005F846E847D848C849B84AA84B984C88409
:103C0000DF80EE80FD800C811B81AA81B981CE0FFF
:103C1000D11D0FB6F894DEBF0FBECDBFED010895E4
:103C20008F929F92AF92BF92CF92DF92EF92FF92CC
:103C3000CF93DF93EC01688179818A819B81611543
:103C400071058105910521F464E279ED8BE597E03A
:103C50002DE133EF41E050E00E94C41E49015A01BA
:103C60009B01AC01A7EAB1E40E94E31E6B017C0159
:103C7000ACEEB4EFA50194010E94F11EDC01CB0172
:103C80008C0D9D1DAE1DBF1DB7FF03C00197A1097F
:103C9000B04888839983AA83BB839F77DF91CF91B4
:103CA000FF90EF90DF90CF90BF90AF909F908F905C
:103CB00008950E94101E089580E091E00E94101E59
:103CC0000895A0E0B0E08093000190930101A093DB
:103CD0000201B09303010895DC01CB01FC01F999C5
:103CE000FECF06C0F2BDE1BDF89A319600B40D9248
:103CF00041505040B8F70895F999FECF92BD81BD6B
:103D0000F89A992780B50895A6E1B0E044E050E024
:103D10000C946E1EA8E1B0E042E050E00C946E1EE0
:103D2000DC01A40FB51F4150504048F0CB01840F77
:103D3000951F2E910E94A11E41505040D0F708952A
:103D4000262FF999FECF92BD81BDF89A019700B454
:103D5000021639F01FBA20BD0FB6F894FA9AF99AF4
:103D60000FBE08950396272F0E94A11E0E94A01E39
:103D7000252F0E94A11E242F0C94A11E0196272FEF
:103D80000E94A11E0C94A01E052E97FB1EF4009409
:103D90000E94DB1E57FD07D00E94F61E07FC03D0D1
:103DA0004EF40C94DB1E50954095309521953F4F75
:103DB0004F4F5F4F089590958095709561957F4F17
:103DC0008F4F9F4F08950E94181FA59F900DB49F7D
:103DD000900DA49F800D911D11240895B7FF0C94A0
:103DE000E31E0E94E31E821B930B0895A1E21A2E8C
:103DF000AA1BBB1BFD010DC0AA1FBB1FEE1FFF1F8F
:103E0000A217B307E407F50720F0A21BB30BE40BDE
:103E1000F50B661F771F881F991F1A9469F7609525
:103E20007095809590959B01AC01BD01CF010895DF
:103E3000A29FB001B39FC001A39F700D811D1124EB
:103E4000911DB29F700D811D1124911D089597FB46
:103E5000072E16F4009407D077FD09D00E94C51DE7
:103E600007FC05D03EF4909581959F4F089570957D
:103E700061957F4F0895EE0FFF1F0590F491E02D9F
:103E800009940F931F93CF93DF938230910510F421
:103E900082E090E0E091A502F091A60220E030E0FF
:103EA000A0E0B0E0309719F1408151810281138187
:103EB00048175907C8F08417950769F4109731F02F
:103EC00012960C93129713961C9327C00093A50289
:103ED0001093A60222C02115310519F0421753078D
:103EE00018F49A01BD01EF01DF01F801DBCF2115C4
:103EF0003105F9F0281B390B2430310580F48A8113
:103F00009B816115710521F0FB019383828304C0BD
:103F10009093A6028093A502FE01329644C0FE0152
:103F2000E20FF31F81939193225031093983288343
:103F30003AC02091A3023091A402232B41F4209196
:103F40000601309107013093A4022093A30220912F
:103F50000401309105012115310541F42DB73EB71B
:103F60004091080150910901241B350BE091A302F7
:103F7000F091A402E217F307A0F42E1B3F0B2817C1
:103F8000390778F0AC014E5F5F4F2417350748F0D2
:103F90004E0F5F1F5093A4024093A302819391930D
:103FA00002C0E0E0F0E0CF01DF91CF911F910F91CF
:103FB0000895CF93DF93009709F481C0FC013297F5
:103FC00013821282A091A502B091A602109781F4EB
:103FD00020813181820F931F2091A3023091A4028E
:103FE0002817390751F5F093A402E093A30267C0A4
:103FF000ED0120E030E0CE17DF0740F44A815B811D
:104000009E0141155105F1F0EA01F5CFD383C2833A
:1040100040815181840F951FC817D90759F48881B1
:104020009981840F951F0296918380838A819B8159
:10403000938382832115310529F4F093A602E0933E
:10404000A5023DC0E901FB83EA8349915991C40F60
:10405000D51FEC17FD0761F480819181840F951FB6
:104060000296E90199838883828193819B838A8365
:10407000E0E0F0E012968D919C911397009719F073
:10408000FD01DC01F7CF8D919C9111979D012E5F71
:104090003F4F820F931F2091A3023091A402281753
:1040A000390769F4309729F41092A6021092A502FC
:1040B00002C013821282B093A402A093A302DF91E4
:1040C000CF910895FB01DC0104C08D91019080190E
:1040D00021F441505040C8F7881B990B0895F8947B
:0240E000FFCF10
:1040E200010000000000A7022000010118231804AB
:1040F20018470F420F410F2000818283E200E9003E
:10410200EA00B500B600B700CD008301CC008A01F9
:10411200920194012102230224022502260227028F
:104122002A02B300B4006F0070004022476D1A03E8
:10413200F802B10244026C038503A503BE03415099
:0A4142005A67522F72706E6562001A
:00000001FF
